:100000000C9442050C946A050C946A050C946A05DC
:100010000C946A050C946A050C946A050C944015BE
:100020000C946A050C946A050C946A050C946A0594
:100030000C946A050C946A050C946A050C946A0584
:100040000C94F6140C946A050C94C2150C949C152F
:100050000C946A050C946A050C946A050C946A0564
:100060000C94F4150C946A052200FF210000000096
:10007000003E5B4F5B3E3E6B4F6B3E1C3E7C3E1C2E
:10008000183C7E3C181C577D571C1C5E7F5E1C0074
:10009000183C1800FFE7C3E7FF0018241800FFE72B
:1000A000DBE7FF30483A060E2629792926407F05EE
:1000B0000507407F05253F5A3CE73C5A7F3E1C1C04
:1000C00008081C1C3E7F14227F22145F5F005F5FC4
:1000D00006097F017F006689956A606060606094B0
:1000E000A2FFA29408047E040810207E20100808B5
:1000F0002A1C08081C2A08081E101010100C1E0CC0
:100100001E0C30383E3830060E3E0E060000000051
:100110000000005F00000007000700147F147F1438
:10012000242A7F2A1223130864623649562050007D
:1001300008070300001C2241000041221C002A1C69
:100140007F1C2A08083E0808008070300008080854
:100150000808000060600020100804023E51494574
:100160003E00427F400072494949462141494D3392
:100170001814127F1027454545393C4A49493141F9
:10018000211109073649494936464949291E0000C7
:10019000140000004034000000081422411414141C
:1001A0001414004122140802015909063E415D5908
:1001B0004E7C1211127C7F494949363E4141412211
:1001C0007F4141413E7F494949417F090909013E3B
:1001D000414151737F0808087F00417F4100204062
:1001E000413F017F081422417F404040407F021C74
:1001F000027F7F0408107F3E4141413E7F0909098B
:10020000063E4151215E7F09192946264949493256
:1002100003017F01033F4040403F1F2040201F3F1C
:100220004038403F631408146303047804036159A1
:10023000494D43007F4141410204081020004141E3
:10024000417F04020102044040404040000307088F
:100250000020545478407F2844443838444444288B
:10026000384444287F385454541800087E09021832
:10027000A4A49C787F0804047800447D40002040BA
:10028000403D007F1028440000417F40007C0478FE
:1002900004787C080404783844444438FC18242446
:1002A0001818242418FC7C080404084854545424C6
:1002B00004043F44243C4040207C1C2040201C3C43
:1002C0004030403C44281028444C9090907C44643A
:1002D000544C4400083641000000770000004136CD
:1002E000080002010204023C2623263C1EA1A16153
:1002F000123A4040207A3854545559215555794185
:100300002254547842215554784020545579400C59
:100310001E5272123955555559395454545939553C
:100320005454580000457C410002457D420001457F
:100330007C407D1211127DF0282528F07C54554513
:10034000002054547C547C0A097F4932494949327F
:100350003A4444443A324A4848303A4141217A3A90
:1003600042402078009DA0A07D3D4242423D3D405C
:1003700040403D3C24FF2424487E4943662B2FFC0B
:100380002F2BFF0929F620C0887E090320545479B9
:10039000410000447D413048484A32384040227A8A
:1003A000007A0A0A727D0D19317D2629292F282607
:1003B0002929292630484D4020380808080808080F
:1003C0000808382F10C8ACBA2F102834FA00007B68
:1003D000000008142A142222142A1408550055007B
:1003E00055AA55AA55AAFF55FF55FF000000FF006A
:1003F000101010FF00141414FF001010FF00FF1065
:1004000010F010F0141414FC001414F700FF000096
:10041000FF00FF1414F404FC141417101F10101F15
:10042000101F1414141F00101010F0000000001F03
:10043000101010101F10101010F010000000FF100E
:100440001010101010101010FF10000000FF14000A
:1004500000FF00FF00001F10170000FC04F414143C
:100460001710171414F404F40000FF00F714141408
:1004700014141414F700F7141414171410101F1088
:100480001F141414F4141010F010F000001F101FAB
:100490000000001F14000000FC140000F010F01019
:1004A00010FF10FF141414FF141010101F00000090
:1004B00000F010FFFFFFFFFFF0F0F0F0F0FFFFFF94
:1004C0000000000000FFFF0F0F0F0F0F38444438EB
:1004D00044FC4A4A4A347E02020606027E027E023A
:1004E00063554941633844443C04407E201E200645
:1004F000027E020299A5E7A5991C2A492A1C4C7282
:1005000001724C304A4D4D303048784830BC625A08
:10051000463D3E494949007E0101017E2A2A2A2A98
:100520002A44445F444440514A444040444A514074
:100530000000FF0103E080FF000008086B6B083635
:1005400012362436060F090F0600001818000000A6
:100550001010003040FF0101001F01011E00191D95
:100560001712003C3C3C3C00000000000001030767
:100570000F1F3F7F0080C0E0F0F8FCFEDB40A4A628
:100580002EAF2000A1C8D300408DAED580A80000BA
:10059000600000000000000000000000000000E01B
:1005A0000000000000000000000000000001E0006A
:1005B00000000000000000000000000001F000004A
:1005C000000000000000000000000003F000000038
:1005D0000000000000000000000007F00000000024
:1005E00000000000000000000007F800000000000C
:1005F00000000000000000000FF800000003C00031
:100600007E000001E0007F0FF800000003C000FE44
:10061000000001E000FFEFF800000003C000FE0052
:100620000001E000FFFFF800000003C000F0000040
:10063000000F007FFE7FC0000003C000F00000003C
:100640000F003FFE7FF83FF1FBCFFCFEF3BC3DEF18
:10065000E01FFE7FFF7FFBFFDFFEFEFFBC3DEFE004
:100660001FC6FFFF7FFBFFDFFEFEFFBC3DEFE00F7D
:10067000E3C7FE787BC3DE1EF0FFBC3DEF0007FF43
:1006800087FC787BC3DE1EF0F83C3DEF0001FFFFE6
:10069000F0007BC3C01EF0F03C3DEF0001F37FE0B3
:1006A0003FFBC3CFFEF0F03C3DEF0003E33F807F14
:1006B000FBC3DFFEF0F03C3DEF0007E73C00787B3A
:1006C000C3DE1EF0F03C3DEF0007FFBE00787BC3A9
:1006D000DE1EF0F03C3DEF0007FFFE00787BC3DE3E
:1006E0001EF0F03C3DEF000FFFFE007FFBFFDFFE42
:1006F000F0F03FFDEFE00FFFFF007FFBFFDFFEF0BC
:10070000F03FFDEFE00FF9FF003E79F9CF9EF0F0EA
:100710001F3DE7E01FF1FF000000000000000000A7
:100720000000001F80FF007FFFFFFFFFFFFFFFFFB4
:10073000FFE01C007F007FFFFFFFFEB46D888D1877
:10074000E000001F007FFFFFFFFE95AD7DB577E065
:1007500000000F007FFFFFFFFEA5AD9D8D19E0009B
:100760000006007FFFFFFFFEB5ADEDB57EE00000A7
:100770000000000180000000000000000000038075
:1007800000000000000000000007C00000000000A2
:100790000000000007C00000000000000000000F83
:1007A000C00000000000000000001FE0000000008A
:1007B00000000000001FE00000000000000000003A
:1007C0003FE00000000000000000003FF0000000DB
:1007D0000000000000007FF0000000000000001F8B
:1007E000F87FF0000000000000003FFE7FF00000F6
:1007F00000000000003FFF7FF0000000000000004C
:100800001FFFFBE0000000000000000FFFF9FFC029
:100810000000000000000FFFF9FFF80000000000DA
:100820000007FFF1FFFF00000000000003FC73FF62
:10083000FF80000000000001FE3FFFFF800000007D
:10084000000000FF1E0FFF000000000000007FFE00
:100850001FFC000000000000003FFFFFF800000048
:10086000000000000FDFFFE0000000000000001F9C
:1008700019FFC0000000000000003F3CFF00000026
:1008800000000000007E7CF8000000000000000076
:100890007FFE7C0000000000000000FFFFFC000065
:1008A000000000000000FFFFFE000000000000004C
:1008B00000FFFFFE0000000000000001FFEFFE004F
:1008C00000000000000001FFCFFE0000000000005B
:1008D0000003FF07FE0000000000000003FC07FE0D
:1008E0000000000000000003F003FE000000000014
:1008F0000000018000FE0000000000000000000079
:100900007E000000000000000000003E000000002B
:100910000000000000000C00000000000007800044
:10092000FC000003C0000000078001FC000003C0C1
:10093000000000078001FC000003C00000000780E9
:1009400001E00000001E000000078001E000000040
:100950001E007FE3F79FF9FDE7787BDFC0FFF7FF1D
:10096000BFFDFDFF787BDFC0FFF7FFBFFDFDFF7818
:100970007BDFC0F0F787BC3DE1FF787BDE00F0F75E
:1009800087BC3DE1F0787BDE0000F787803DE1E049
:10099000787BDE007FF7879FFDE1E0787BDE00FF5C
:1009A000F787BFFDE1E0787BDE00F0F787BC3DE133
:1009B000E0787BDE00F0F787BC3DE1E0787BDE008D
:1009C000F0F787BC3DE1E0787BDE00FFF7FFBFFD7D
:1009D000E1E07FFBDFC0FFF7FFBFFDE1E07FFBDF72
:1009E000C07CF3F39F3DE1E03E7BCFC00000000000
:1009F00000000000000000FFFFFFFFFFFFFFFFFF00
:100A0000FFC0FFFFFFFFFD68DB111A31C0FFFFFFD2
:100A1000FFFD2B5AFB6AEFC0FFFFFFFFFD4B5B3B67
:100A20001A33C0FFFFFFFFFD6B5BDB6AFDC00200F6
:100A3000000008000201000003040700000000009D
:100A400000000000000000250028002B000000002E
:100A500000240027002A00040404040404040402FF
:100A6000020202020203030303030301020408104B
:100A70002040800102040810200102040810200018
:100A80001317C11B11241FBECFEFD8E0DEBFCDBFAF
:100A900011E0A0E0B1E0ECE6FAE302C005900D92AF
:100AA000AA39B107D9F723E0AAE9B1E001C01D9244
:100AB000A136B207E1F715E0C1E4D5E004C0219703
:100AC000FE010E94F21BC034D107C9F70E9496179D
:100AD0000C94291D0C94000090E0FC01E559F54FA1
:100AE0002491895A954FFC018491882399F090E0D4
:100AF000880F991FFC01E35BF54FA591B491FC01B0
:100B0000ED5BF54F859194918FB7F894EC91E22BC2
:100B1000EC938FBF0895089590E0FC01E15DF54FDF
:100B20002491FC01E559F54F3491FC01E95AF54F48
:100B3000E491EE23C9F0222339F0233001F1A8F427
:100B4000213019F1223029F1F0E0EE0FFF1FED5BAB
:100B5000F54FA591B4918FB7F894EC91611126C02F
:100B600030953E233C938FBF08952730A9F028305D
:100B7000C9F0243049F7809180008F7D03C08091B7
:100B800080008F7780938000DFCF84B58F7784BD1E
:100B9000DBCF84B58F7DFBCF8091B0008F778093C2
:100BA000B000D2CF8091B0008F7DF9CF3E2BDACF4D
:100BB0003FB7F89480916C0290916D02A0916E0203
:100BC000B0916F0226B5A89B05C02F3F19F0019682
:100BD000A11DB11D3FBFBA2FA92F982F8827BC0197
:100BE000CD01620F711D811D911D42E0660F771FBF
:100BF000881F991F4A95D1F708958F929F92AF92BF
:100C0000BF92CF92DF92EF92FF924B015C010E9464
:100C1000D8056B017C010E94D8056C197D098E09ED
:100C20009F09683E734081059105A8F321E0821A6F
:100C30009108A108B10888EEC80E83E0D81EE11C17
:100C4000F11C81149104A104B10429F7FF90EF90E5
:100C5000DF90CF90BF90AF909F908F9008950895B0
:100C600008959091000189130BC0EEE2FAE0E4913F
:100C70009FEF90930001E13049F028F0E23061F0FD
:100C800060E00C948C0510926E00FACF90916F008A
:100C90009D7F90936F00F4CF909170009D7F909313
:100CA000700091E09093B0009091B100987F9460B3
:100CB0009093B1001092B300E3CFAF92BF92CF9266
:100CC000DF92EF92FF920F931F93CF93DF936C010C
:100CD0007B018B01040F151FEB015E01AE18BF08ED
:100CE000C017D10759F06991D601ED91FC9101909F
:100CF000F081E02DC6010995892B79F7C501DF91B7
:100D0000CF911F910F91FF90EF90DF90CF90BF9008
:100D1000AF900895FC01538D448D252F30E0842F32
:100D200090E0821B930B541710F0CF960895019713
:100D30000895FC01918D828D981761F0A28DAE0F00
:100D4000BF2FB11D5D968C91928D9F5F9F73928F87
:100D500090E008958FEF9FEF0895FC01918D828DB3
:100D6000981731F0828DE80FF11D858D90E0089580
:100D70008FEF9FEF0895FC01918D228D892F90E0D8
:100D8000805C9F4F821B91098F739927089584E798
:100D900092E00E94BB0621E0892B09F420E0822F1B
:100DA000089580E090E0892B29F00E94C706811108
:100DB0000C9400000895FC01A48DA80FB92FB11D5B
:100DC000A35ABF4F2C91848D90E001968F73992781
:100DD000848FA689B7892C93A089B1898C9183705F
:100DE00080648C93938D848D981306C00288F38958
:100DF000E02D80818F7D80830895EF92FF920F9385
:100E00001F93CF93DF93EC0181E0888F9B8D8C8DB6
:100E100098131AC0E889F989808185FF15C09FB7AA
:100E2000F894EE89FF896083E889F989808183706D
:100E3000806480839FBF81E090E0DF91CF911F911C
:100E40000F91FF90EF900895F62E0B8D10E00F5F3D
:100E50001F4F0F731127E02E8C8D8E110CC00FB613
:100E600007FCFACFE889F989808185FFF5CFCE01AB
:100E70000E94DB06F1CFEB8DEC0FFD2FF11DE35A45
:100E8000FF4FF0829FB7F8940B8FEA89FB8980812E
:100E90008062CFCFCF93DF93EC01888D8823B9F0A8
:100EA000AA89BB89E889F9898C9185FD03C0808175
:100EB00086FD0DC00FB607FCF7CF8C9185FFF2CFF2
:100EC000808185FFEDCFCE010E94DB06E9CFDF9167
:100ED000CF910895EF92FF920F931F93CF93DF93DB
:100EE000EC01EC80FD806E157F050CF070C057FFA3
:100EF00004C0240F351F50E040E08E819F81FA012D
:100F0000E20FF31F8E179F071CF49C01241B350B67
:100F1000121613060CF05BC0922F842F86958695CF
:100F200086958E9DD0018F9DB00D11246A0F7B1F79
:100F3000AF8DB8A1A60FB71F477049F188E0841B99
:100F4000482F682F70E0FB01EC58FA4FE491281706
:100F500008F063C0621B71092FEF30E002C03595C5
:100F600027956A95E2F7E2230130110539F0B0F1D7
:100F70000230110561F58C91E82702C08C91E82BB5
:100F8000EC93941720F12C813D81A20FB31FE92F20
:100F9000E41BE83078F00230110521F58E2F9C918A
:100FA00090959C932C813D81A20FB31F885088306F
:100FB000B0F7E770EE2359F0F0E0E459FA4FE4910E
:100FC00001301105F9F010F10230110519F1DF912E
:100FD000CF911F910F91FF90EF900895E0958C9124
:100FE000E823CECF81E00115110509F480E0819559
:100FF0009E2F8C932C813D81A20FB31F9850983067
:10100000C0F7D7CF8C91E82BEC93E1CFE0958C9192
:10101000E823FACF8C91E827F7CF0130110509F4C6
:10102000ADCFE0F20230110509F4A5CFAE0DBF1D22
:10103000AECF0F931F93CF93DF9377FF04C0260F9C
:10104000371F70E060E0DC011496CD91DC91FB016C
:10105000E20FF31FCE17DF071CF49E01261B370B90
:10106000121613064CF5FA0157FD3796A3E0F595D5
:10107000E795AA95E1F7EC9FD001ED9FB00DFC9F9D
:10108000B00D11246A0F7B1FDC015F96ED91FC917E
:10109000E60FF71F4770552781E090E001C0880FE9
:1010A0004A95EAF7482F0130110559F0A8F02E0FA4
:1010B0003F1F02301105E1F0DF91CF911F910F9199
:1010C00008952E0F3F1FE217F307B1F38191DF015F
:1010D0001197842B8C93F7CF80952E0F3F1FE2172B
:1010E000F30751F39191DF01119798239C93F7CF68
:1010F000E217F30709F38191DF01119784278C939D
:10110000F7CF0F931F93FA01DC0156964C91569737
:101110004230E9F04330A1F1413061F514964D9130
:101120005C91DA01AE1BBF0BFD01E21BF30B77FDF7
:101130000BC0DC0116964D915C916417750724F481
:10114000AB01BF010E9419081F910F9108951496D9
:101150004D915C91DA01A61BB70BBD01615071097D
:10116000DC0116964D915C91DA01AE1BBF0BFD01BF
:10117000E21BF30B77FDE8CFAF010E946A07E4CFD3
:1011800016964D915C91DA01A61BB70BBD0161501B
:101190007109CDCF0F931F93FA01DC0156964C9144
:1011A00056974230A9F0433091F1413019F5149629
:1011B0004D915C91DA01AE1BBF0BFD013197F7FD3C
:1011C00004C0AB01BF010E946A071F910F910895EF
:1011D00014964D915C91DA01A61BB70BBD01DC01A1
:1011E00016964D915C91DA01AE1BBF0BFD01319754
:1011F000621B730BF7FDE9CFDC0116964D915C91F4
:10120000E417F50714F7AF010E941908DECF169610
:101210004D915C91DA01A61BB70BBD01621B730BEC
:10122000CECFFC0177FD64C0808591856817790772
:101230000CF05EC057FD5CC0828593854817590746
:101240000CF056C086898230B1F0833029F18130AC
:1012500041F484819581841B950BAB01BC016150E5
:1012600071092130310509F108F443C022303105FC
:1012700009F463C0089584819581DC01A61BB70B36
:10128000BD016150710986819781DC01A41BB50BFA
:10129000AD0141505109E5CF86819781861B970B9F
:1012A000BA01AC0141505109DCCFCA0157FD079684
:1012B000A3E095958795AA95E1F7A481B5818A9FCA
:1012C00090018B9F300D9A9F300D1124620F731F78
:1012D000078CF0A1E02DE60FF71F4770552721E09E
:1012E00030E001C0220F4A95EAF78081822B80838B
:1012F0000895CA0157FD079633E0959587953A956D
:10130000E1F7A481B5818A9F90018B9F300D9A9F50
:10131000300D1124620F731F078CF0A1E02DE60F32
:10132000F71F4770552781E090E001C0880F4A956C
:10133000EAF7809590818923DACFCA0157FD079695
:1013400023E0959587952A95E1F7A481B5818A9F39
:1013500090018B9F300D9A9F300D1124620F731FE7
:10136000078CF0A1E02DE60FF71F4770552721E00D
:1013700030E001C0220F4A95EAF780818227B7CF7B
:1013800008958EBD00000DB407FEFDCF8EB5089503
:101390008CBD9DBD08950895FC016370668B8481AA
:1013A000958126813781613039F0633029F091874A
:1013B00080873387228708953187208793878287A4
:1013C00008952F923F924F925F926F927F928F92E9
:1013D0009F92AF92BF92CF92DF92EF92FF920F93C4
:1013E0001F93CF93DF93CDB7DEB76A970FB6F8940C
:1013F000DEBF0FBECDBF9A8F898F7A8369834A0182
:10140000D22E18870F833701BC2CDC0159962D9101
:101410003C915A972115310509F015C118968D9107
:101420009C911997681779070CF0D7C11A968D917E
:101430009C91481759070CF0D0C14C2C512CB6E0A8
:10144000CB9E600D711D11247C876B8716161706C5
:101450000CF0C3C1EA2DF0E0FA87E98793E0EE0FC4
:10146000FF1F9A95E1F7F88BEF87CF01840F951F47
:10147000181619060CF0B1C1A98DBA8D58968C9129
:10148000811104C0BFEABD1508F4D394A98DBA8DAB
:10149000ED91FC9111970284F385E02DCD01099522
:1014A000B5E0DB9EC0011124E981FA81FC83EB8366
:1014B000312C212C9C0124593F4F388F2F8B4A2DE2
:1014C00050E05E8B4D8BEF89F88DE20DF31D44915A
:1014D0009E828D82D12CC12C69817A81620D731D0F
:1014E0007A8B698B842F90E09C8B8B8BE98DFA8DA6
:1014F000A081B18140FF82C0F1E0BF126FC0AF1286
:101500006DC01C96ED91FC912F813885A4014C0D86
:101510005D1D69897A89898D9A8D0995EB89FC8988
:10152000F595E7954E2F5FEFC51AD50A6D817E813F
:101530008D899E89680F791F7E836D8398E0C91617
:10154000D10481F6AFEF2A1A3A0AEB81FC81E40D4F
:10155000F51DFC83EB83F5E02F16310409F0B3CFC2
:101560002F81388526153705B9F0A98DBA8DED91F3
:10157000FC91B1E0BB1257C0AB1255C069817A81B2
:101580006B5F7F4F0088F189E02D830128E030E018
:10159000A401898D9A8D0995A98DBA8DED91FC9143
:1015A00011970688F789E02DCD016A960FB6F89459
:1015B000DEBF0FBECDBFDF91CF911F910F91FF9086
:1015C000EF90DF90CF90BF90AF909F908F907F90E3
:1015D0006F905F904F903F902F9009941E96ED91E1
:1015E000FC91EF80F88409851A8592014D815E8116
:1015F0006B817C81898D9A8D099590CF2F8138855B
:101600002615370509F48ACF31E0B31207C0A312BB
:1016100005C01C96ED91FC91930178CF1E96ED913B
:10162000FC917301E0CF6B857C8564197509068494
:10163000F785E02D73010F8518899201A401898D2A
:101640009A8D0995A9CFF9013496949132974591D5
:101650005491D91AB7E0DB9E400D511D1124F901B8
:10166000259134913C8B2B8BFA0125903490FA0113
:101670003296749031963491398B329664903196CB
:10168000449041E04C1518F04A1508F07FC0662DD3
:10169000062C000C770B7C836B83842D042C000CB0
:1016A000990B9E838D83A98DBA8DED91FC91119735
:1016B0000284F385E02DCD010995512CD12CC12C4C
:1016C000EA2DF0E0FA87E9872B2D30E03C872B8765
:1016D000A401440D511D47FC5A95588F4F8B6981C9
:1016E0007A81660D711D67FC7A957E876D87798991
:1016F000C71608F051CF2C2D30E04D815E81420F8E
:10170000531FA985BA854A9FC0014B9F900D5A9FD0
:10171000900D1124FC01E80DF91DF88BEF87852D44
:10172000612C4F89588D420F531F5E8B4D8B671470
:1017300008F050C044244394480E877041F4C1011E
:101740000196EB89FC89E20DF31DD4901C01D7FEB4
:1017500019C0A98DBA8DED91FC91662D70E0B1E0B4
:10176000BB1219C0AB1217C02D853E85620F731FC7
:101770000484F585E02D2F8138854D895E89898D1A
:101780009A8D0995DD0C6394842DD1CF1E821D8224
:101790001C821B8288CF4B815C81640F751FAB85D7
:1017A000BC856A9FC0016B9F900D7A9F900D11249C
:1017B00069817A81680F791F0684F785E02DEF80B3
:1017C000F88409851A859D014F855889898D9A8DE0
:1017D0000995D8CF570CC3948ACF6A960FB6F89460
:1017E000DEBF0FBECDBFDF91CF911F910F91FF9054
:1017F000EF90DF90CF90BF90AF909F908F907F90B1
:101800006F905F904F903F902F9008958F929F928E
:10181000AF92CF92EF92FF920F931F93CF93DF93EC
:10182000EC01262F898D9A8D009709F051C06A30FE
:10183000D1F41D861C868D8948E0849F9001112477
:101840008E859F85820F931F9F878E8781E090E012
:10185000DF91CF911F910F91FF90EF90CF90AF90BC
:101860009F908F9008956D3089F3CC88AD888F89D3
:101870008823C1F08C859D8536E0C39E800D911D27
:101880001124488559854817590764F44E855F85AA
:101890001D861C8638E0A39EC0011124840F951F6D
:1018A0009F878E87EA88FB88088919894E855F851E
:1018B0006C857D85CE010E94E1092C898C859D85F2
:1018C00046E0249F800D911D11249D878C87BECFFB
:1018D0006A3069F41D861C86FC013896E4912D89D6
:1018E0008E859F85E29F800D911D1124ADCF6D30B7
:1018F00009F4ACCFFC0134963491631708F4A6CFF9
:101900003296E491E61708F4A1CFFC013296859057
:101910009490462F431B342F47E0349F800C911C3A
:101920001124F401329634913196E4913323A9F1D4
:10193000EE2399F1CC88F4013596E491AD884F8976
:10194000442301F10E2E000CFF0BE30FF11DCE9E80
:10195000A001CF9E500D11246C857D85460F571F29
:1019600068857985641775076CF44E855F851D86DB
:101970001C86FC013896E491AE9E400D511D112449
:101980005F874E87EA88FB88088919894E855F85BD
:101990006C857D85CE010E94E109F4013496E491C5
:1019A0002C898C859D85E29F800D911D11248DCF02
:1019B0006F927F928F929F92AF92BF92CF92DF925F
:1019C000EF92FF920F931F93CF93DF93EC016B0184
:1019D0005A0139014801E881F9810284F385E02D3B
:1019E0000995E881F9810288F389E02D8701930147
:1019F000A501B601CE010995A501480D591D41501B
:101A00005109E881F9810288F389E02D9301B6013B
:101A1000CE010995E881F9810088F189E02D9401D2
:101A2000A501B601CE010995C60CD71CB6016150BF
:101A30007109E881F9810088F189E02D9401A501FF
:101A4000CE010995E881F9810688F789E02DCE015C
:101A5000DF91CF911F910F91FF90EF90DF90CF908A
:101A6000BF90AF909F908F907F906F9009946F92EE
:101A70007F928F929F92AF92BF92CF92DF92EF921E
:101A8000FF920F931F93CF93DF935C01EB016A01E9
:101A9000490138018701DC01ED91FC916217730760
:101AA00019F5641675062CF0962D872D3A01C92E6E
:101AB000D82E9601261937092F5F3F4F048CF58DDC
:101AC000E02DA301BE01C5010995DF91CF911F91C2
:101AD0000F91FF90EF90DF90CF90BF90AF909F90CD
:101AE0008F907F906F9008954615570591F42617B3
:101AF000370724F0892D4B01C22FD82F9E012819BA
:101B000039092F5F3F4F068CF78DE02DA601B401F8
:101B1000DACF0284F385E02D0995D501ED91FC9192
:101B20000488F589E02D83019401A601BE01C50159
:101B30000995D501ED91FC910688F789E02DC50145
:101B4000DF91CF911F910F91FF90EF90DF90CF9099
:101B5000BF90AF909F908F907F906F900994EF927D
:101B6000FF920F931F93DC011A960D911C911B9706
:101B700018962D913C911997ED91FC9100A0F1A13F
:101B8000E02D7B0150E040E070E060E009951F919E
:101B90000F91FF90EF9008954F925F926F927F9216
:101BA0008F929F92AF92BF92CF92DF92EF92FF926D
:101BB0000F931F93CF93DF936C012B015A013901CF
:101BC0004801DC01ED91FC910284F385E02D09953B
:101BD000E201640C751CD601ED91FC91C615D70588
:101BE0005CF40088F189E02D87019401A501BE0114
:101BF000C60109952196EFCF0688F789E02DC60129
:101C0000DF91CF911F910F91FF90EF90DF90CF90D8
:101C1000BF90AF909F908F907F906F905F904F900C
:101C200009948F929F92AF92BF92CF92DF92EF92E0
:101C3000FF920F931F93CF93DF93EC015B014A0157
:101C40006901E881F9810284F385E02D0995950108
:101C50002C0D3D1D21503109E881F9810488F58959
:101C6000E02D78018401A401B501CE010995E88138
:101C7000F9810688F789E02DCE01DF91CF911F9180
:101C80000F91FF90EF90DF90CF90BF90AF909F901B
:101C90008F9009948F929F92AF92BF92CF92DF92D2
:101CA000EF92FF920F931F93CF93DF93EC015B01B1
:101CB0004A0169017801E881F9810284F385E02D08
:101CC0000995C80CD91C860101501109E881F981D8
:101CD0000488F589E02D9501A401B501CE0109958F
:101CE000E881F9810688F789E02DCE01DF91CF9157
:101CF0001F910F91FF90EF90DF90CF90BF90AF902A
:101D00009F908F900994EF92FF920F931F93DC01A5
:101D1000ED91FC9100A0F1A1E02D09951F910F918B
:101D2000FF90EF9008950F931F93DC01ED91FC91CC
:101D3000068CF78DE02D09951F910F9108950F9353
:101D40001F93DC01ED91FC91048CF58DE02D09953C
:101D50001F910F910895DC01ED91FC910084F185B4
:101D6000E02D09943F924F925F926F927F928F92F3
:101D70009F92AF92BF92CF92DF92EF92FF920F931A
:101D80001F93CF93DF935C017B014A016901390105
:101D900087E0680E711C93E0759467949A95E1F75B
:101DA0002B01400E511E10E000E0312CD0E0C0E0CD
:101DB000CE0187709927330C892B59F4FE0183E0FB
:101DC000F595E7958A95E1F7E00FF11FE80DF91D0C
:101DD000349037FE0AC021E030E0A701B5016C0F56
:101DE0007D1F8DE193E00E94AB0E2196CC16DD069F
:101DF000F9F68FEFE81AF80A060D171DE414F5043A
:101E0000A9F6DF91CF911F910F91FF90EF90DF9096
:101E1000CF90BF90AF909F908F907F906F905F908A
:101E20004F903F9008952F923F924F925F926F9202
:101E30007F928F929F92AF92BF92CF92DF92EF925A
:101E4000FF920F931F93CF93DF9300D000D000D069
:101E5000CDB7DEB73C016A013E832D83FC82EB8265
:101E60005801A41AB50AB7FE03C0B194A194B108F1
:101E70008D809E80861A970A97FE03C09194819464
:101E800091088A149B045CF0902F812F0D811E8194
:101E90009D838E839C2D8D2D6B01692F782F0C15C2
:101EA0001D055CF09D818E817E836D83692F782F67
:101EB000902F812F8601C92ED82E1601201A310AA3
:101EC0002B012D813E81421A530A57FE03C05194C3
:101ED00041945108710137FE03C03FEFE31AF30A42
:101EE000F594E7948D819E81861797075CF5A1E0B4
:101EF000B0E0BA83A983C016D1064CF1D301ED91AD
:101F0000FC910484F585E02D2B813C81A8016D8135
:101F10007E818A149B041CF04D815E81B801C3014F
:101F20000995E418F508F7FE0AC02D813E818981E4
:101F30009A81280F391F3E832D83E20CF31C0F5F1B
:101F40001F4FD9CF2FEF3FEF3A832983D4CF269667
:101F50000FB6F894DEBF0FBECDBFDF91CF911F91BA
:101F60000F91FF90EF90DF90CF90BF90AF909F9038
:101F70008F907F906F905F904F903F902F9008953B
:101F8000089520910002260F3327331F2132310597
:101F9000ECF420912402FC0190E080E0243069F010
:101FA00082E00895A09100022191AC0140525E4F61
:101FB000A40FB52FB11D2C930196861798F380912D
:101FC0000002680F6093000280E0089581E00895A8
:101FD0001092240281E0809326021092250261E093
:101FE00082E10E948C0561E083E10E948C05E9EBAF
:101FF000F0E080818E7F808380818D7F808388E484
:102000008093B80085E48093BC000895CF93DF935C
:1020100091E09093DF018823B9F0C091B800D0918E
:10202000BA008091BC008A7B8093BC0060E082E1B2
:102030000E948C0560E083E10E948C050E94E80FFD
:10204000D093BA00C093B800DF91CF910895E0918A
:10205000500280914F02E81730F4F0E0E654FE4F52
:10206000808190E008958FEF9FEF08959091500246
:1020700080914F022FEF3FEF981748F4E92FF0E0DF
:10208000E654FE4F208130E09F5F90935002C901DB
:10209000089580914F0290915002891B990B0895E9
:1020A000CF92DF92EF92FF920F931F93CF93DF9324
:1020B0007C01CB018A0120917302222389F0EB017C
:1020C0006B01C40ED51ECC15DD0569F06991D701F1
:1020D000ED91FC910190F081E02DC7010995F3CFBE
:1020E000642F0E94C10FC801DF91CF911F910F9102
:1020F000FF90EF90DF90CF900895CF93DF931F92E2
:10210000CDB7DEB76983209173022223F9F02091C5
:102110007002203258F021E030E0FC01338322834A
:1021200090E080E00F90DF91CF910895809171024F
:10213000E82FF0E0E656FE4F998190838F5F809301
:1021400071028093700281E090E0ECCF61E0CE01FB
:1021500001960E94C10FF7CFCF92DF92EF92FF92CC
:102160000F931F93CF93DF93D091700281E0D13210
:1021700008F09CC0C09172020E94D8056B017C01DE
:102180008091240281116CC082E08093240281E05E
:10219000809326028FEF8093230210924802D093FF
:1021A0004702AAE9B1E0E7E2F2E080E0D8138DC08F
:1021B0001092490280914902CC0FC82BC09349026A
:1021C00080912502813009F084C0109225020E947E
:1021D000D8056B017C01809149028093BB008091FE
:1021E000DB019091DC01A091DD01B091DE01892B32
:1021F0008A2B8B2BA1F00E94D8050091DB01109156
:10220000DC012091DD013091DE016C197D098E0920
:102210009F09061717072807390708F442C080915D
:10222000BC0083FDD8CF85EC8093BC000E94D8050C
:102230006B017C0180912402823009F44CC08091B2
:1022400023028F3F09F469C080912302803209F490
:1022500066C080912302803309F463C084E026C005
:102260008091DB019091DC01A091DD01B091DE0154
:10227000892B8A2B8B2B09F483CF0E94D8050091E0
:10228000DB011091DC012091DD013091DE016C1940
:102290007D098E099F09061717072807390708F0D7
:1022A0006FCF8091DA010E94061085E010927102D2
:1022B0001092700210927302DF91CF911F910F91D3
:1022C000FF90EF90DF90CF9008959D9191938F5F55
:1022D0006DCF85EEA9CF8091DB019091DC01A091BB
:1022E000DD01B091DE01892B8A2B8B2B09F4A2CF63
:1022F0000E94D8050091DB011091DC012091DD01E5
:102300003091DE016C197D098E099F0906171707A8
:102310002807390708F08ECFC4CF80E0C7CF82E00E
:10232000C5CF83E0C3CFEF92FF920F931F93CF935C
:10233000DF937C01C62F80913A0390913B03009775
:1023400009F459C020913E0331E030937302209389
:1023500072021092710210927002DC01ED91FC91F8
:102360000190F081E02D60E009958701EE24E3946F
:10237000F12CD1E0C15080913A0390913B03CF3FC3
:1023800091F1B0E2EB16F104D8F00E94AC1080910C
:102390003A0390913B0320913E03D0937302209324
:1023A00072021092710210927002DC01ED91FC91A8
:1023B0000190F081E02D60E00995EE24E394F12C8A
:1023C00080913A0390913B03F8016491DC01ED9117
:1023D000FC910190F081E02D0995BFEFEB1AFB0A0B
:1023E0000F5F1F4FC7CFDF91CF911F910F91FF90CC
:1023F000EF900C94AC10E0914A03F0914B03908164
:10240000809150038095892380838701C15008F40F
:1024100038C0F80184912091380330913903232B7F
:1024200029F00E94C1090F5F1F4FF0CF28E030E074
:1024300040E8E0914603F091470390914E03582FF6
:102440005423D9F05081952B9083E0914803F0916B
:102450004903908150914F03952B9083E09148035D
:10246000F0914903508190914F039095952390836B
:10247000469521503109E9F6D6CF508190959523A4
:10248000E3CFDF91CF911F910F91FF90EF900895CF
:102490001F93CF93DF93EC018D8D9E8D009721F1DB
:1024A000162F29A131E0309373022093720210920B
:1024B000710210927002DC01ED91FC910190F081AB
:1024C000E02D60E009958D8D9E8DDC01ED91FC91F4
:1024D0000190F081E02D612F09958D8D9E8DDF910A
:1024E000CF911F910C94AC10ADA5BEA59C918BA96A
:1024F000809589238C938B8D9C8D892B31F0862F31
:10250000DF91CF911F910C94C10928E030E080E861
:10251000A9A5BAA599A9462F4823C1F04C91942B9F
:102520009C93ABA5BCA59C914AA9942B9C93ABA56D
:10253000BCA54C919AA9909594239C938695215083
:10254000310931F7DF91CF911F9108954C9190950A
:102550009423E6CF1F93CF93DF93EC01162F8D8D3D
:102560009E8D892BB1F12DA93EA94FA958AD60E0F0
:1025700074E284EF90E00E94D01B205131094109A0
:10258000510956954795379527952093B80066EAE7
:10259000111167EACE010E9448128D8D9E8D892B04
:1025A00041F129AD3AAD4BAD5CAD60E074E284EF32
:1025B00090E00E94D01B20513109410951095695E4
:1025C0004795379527952093B800DF91CF911F91BC
:1025D00008958B8D9C8D892B21F08EAD9FAD0E942F
:1025E000C809EFA5F8A990818CA9809589238083DB
:1025F000CECFEFA5F8A980819CA9892B8083E5CF58
:1026000090E080E008952091230330912403C901D4
:10261000079697FD079623E0959587952A95E1F70C
:102620002091210330912203829FA001839F500DAE
:10263000929F500D112470E060E080913C039091D6
:102640003D030C94221D0E941D1DFB0101900020E2
:10265000E9F73197AF01461B570BDC01ED91FC9177
:102660000280F381E02D09940F931F93CF93DF93A2
:10267000EC010E9425138C0167E571E0CE010E94F8
:102680002513800F911FDF91CF911F910F91089516
:10269000DF92EF92FF920F931F93CF93DF93C82F98
:1026A0000E94031381E080933103809332031092E0
:1026B0002A031092290310922C0310922B036AE52F
:1026C00071E08DE193E00E94341382E08093310346
:1026D0008093320310922A031092290384E190E040
:1026E00090932C0380932B036CE671E0C11102C020
:1026F00065E771E08DE193E00E94341380913A0325
:1027000090913B03892B09F4A5C02091520330918D
:102710005303409154035091550360E074E284EFF9
:1027200090E00E94D01B2051310941095109569572
:102730004795379527952093B80064E088E690E0A8
:102740000E9493118091210390912203803491057E
:1027500009F097C060E28DE193E00E944812609119
:102760002103615E8DE193E00E94481220912303D2
:1027700030912403C901079697FD079633E095959C
:1027800087953A95E1F72091210330912203829FAA
:102790008001839F100D929F100D1124C0913C0366
:1027A000D0913D0380913A0390913B030C0F1D1F84
:1027B000009709F498C020913E0331E030937302F2
:1027C000209372021092710210927002DC01ED915E
:1027D000FC910190F081E02D60E40995EE24E394F2
:1027E000F12CDD24D39480913A0390913B030C1794
:1027F0001D0709F44FC0B0E2EB16F104D8F00E94B7
:10280000AC1080913A0390913B0320913E03D0920B
:102810007302209372021092710210927002DC0116
:10282000ED91FC910190F081E02D60E40995EE249A
:10283000E394F12C80913A0390913B036991DC0180
:10284000ED91FC910190F081E02D0995BFEFEB1A1D
:10285000FB0AC9CF8091380390913903892B31F05D
:1028600080915B0390915C030E94C809E0914C0346
:10287000F0914D039081809151038095892380834D
:102880005CCF60E08DE193E00E94481260912103EB
:10289000615068CF0E94AC1080913A0390913B0345
:1028A000892B09F461C02091560330915703409160
:1028B00058035091590360E074E284EF90E00E9465
:1028C000D01B20513109410951095695479537953B
:1028D00027952093B800DF91CF911F910F91FF9022
:1028E000EF90DF900895E0914A03F0914B038081CF
:1028F00090915003892B80830C171D0769F28991F1
:102900002091380330913903232B19F00E94C1091B
:10291000F3CF28E030E040E8E0914603F091470330
:1029200090914E03542F5823D9F05081952B9083CA
:10293000E0914803F0914903908150914F03952B0A
:102940009083E0914803F0914903508190914F03A7
:10295000909595239083469521503109E9F6CCCF87
:10296000508190959523E3CFE0914C03F0914D0376
:10297000808190915103892B8083ADCF85ED809329
:10298000BC008091DB019091DC01A091DD01B09150
:10299000DE010796A11DB11D23E0B695A795979579
:1029A00087952A95D1F72091BC0024FD03C0109291
:1029B000240208954091DB015091DC016091DD011A
:1029C0007091DE01452B462B472B69F30097A1053B
:1029D000B10541F02AE22A95F1F700C00197A1095B
:1029E000B109E1CF8091DA010C9406101F920F9289
:1029F0000FB60F9211242F933F938F939F93AF9312
:102A0000BF938091680290916902A0916A02B0918F
:102A10006B023091670223E0230F2D3758F50196A2
:102A2000A11DB11D209367028093680290936902F3
:102A3000A0936A02B0936B0280916C0290916D0238
:102A4000A0916E02B0916F020196A11DB11D8093FD
:102A50006C0290936D02A0936E02B0936F02BF91CF
:102A6000AF919F918F913F912F910F900FBE0F903B
:102A70001F90189526E8230F0296A11DB11DD2CFF5
:102A80001F920F920FB60F9211242F933F934F93E3
:102A90005F936F937F938F939F93AF93BF93EF93C6
:102AA000FF938091560290915702A0915802B091E5
:102AB0005902892B8A2B8B2BD1F190915102E091F5
:102AC0005202F091530280818927808380915602BF
:102AD00090915702A0915802B09159021816190608
:102AE0001A061B069CF48091560290915702A09101
:102AF0005802B09159020197A109B1098093560279
:102B000090935702A0935802B0935902FF91EF910E
:102B1000BF91AF919F918F917F916F915F914F91F5
:102B20003F912F910F900FBE0F901F90189580919D
:102B300000010E943106EACF1F920F920FB60F924A
:102B400011242F933F934F935F936F937F938F93B2
:102B50009F93AF93BF93EF93FF9384E792E00E941C
:102B6000DB06FF91EF91BF91AF919F918F917F9184
:102B70006F915F914F913F912F910F900FBE0F90EA
:102B80001F9018951F920F920FB60F9211242F933A
:102B90008F939F93EF93FF93E0918402F0918502CE
:102BA0008081E0918A02F0918B0282FD1BC09081AE
:102BB00080918D028F5F8F7320918E02821741F07A
:102BC000E0918D02F0E0EC58FD4F958F80938D02DF
:102BD000FF91EF919F918F912F910F900FBE0F90CA
:102BE0001F9018958081F4CF1F920F920FB60F920D
:102BF00011242F933F934F935F936F937F938F9302
:102C00009F93AF93BF93EF93FF938091B900887F19
:102C1000803609F44AC0F0F5883209F4A7C018F5E7
:102C2000803109F49BC0B8F4882309F4F9C08830D6
:102C300009F494C0FF91EF91BF91AF919F918F9153
:102C40007F916F915F914F913F912F910F900FBEA8
:102C50000F901F901895883109F488C0803251F781
:102C60008093230214C0803409F49DC040F4803363
:102C7000B9F38833F9F68093230285ECB0C0803530
:102C800009F485C0883509F496C0883499F60E9405
:102C9000BE14D0CF883909F48CC038F5883729F0B4
:102CA00050F4883611F0803729F683E080932402AF
:102CB0001092220257C0883809F47BC0803919F07D
:102CC000803809F0B7CF80912202803208F071C0BD
:102CD000E091220281E08E0F809322028091BB005E
:102CE000F0E0EE5FFD4F80833DC0803B39F0E0F4C3
:102CF000803A09F479C0883A09F09CCF84E0809347
:102D000024021092010210920002E0914D02F09113
:102D10004E0209958091000281110FC081E08093DD
:102D200000021092E00109C0803C09F4A6CF883C63
:102D300009F4A3CF883B09F07DCFE091010281E047
:102D40008E0F80930102F0E0E052FE4F808180936D
:102D5000BB00909101028091000229C0809149023C
:102D60008093BB0085EC8093BC0064CF90914802B7
:102D700080914702981758F5E091480281E08E0F44
:102D800080934802F0E0E95DFD4F8081E9CFE0915A
:102D9000480281E08E0F809348028091BB00F0E0F2
:102DA000E95DFD4F8083909148028091470298171A
:102DB000C8F285E8D8CFE091480281E08E0F809379
:102DC00048028091BB00F0E0E95DFD4F8083809177
:102DD000260281115CCF81E08093250284EA8093F2
:102DE000BC001092240226CF85EC8093BC00109288
:102DF000240280912202803230F4E0912202F0E03D
:102E0000EE5FFD4F10826091220270E0E0914B0274
:102E1000F0914C0282E092E00995109222020ACFD2
:102E20001092230234CFE4E7F2E01382128248EEDC
:102E300053E060E070E044835583668377838BE0E2
:102E400091E09183808385EC90E09587848784EC82
:102E500090E09787868780EC90E0918B808B81EC67
:102E600090E0938B828B82EC90E0958B848B86EC48
:102E700090E0978B868B118E128E138E148EA1E1AB
:102E8000B3E013961C921E92129714964D935D9385
:102E90006D937C9317978DE191E011969C938E939F
:102EA000EDE1F3E01382128220E830E035832483E1
:102EB00080E490E097838683318720879387828799
:102EC000168A158614861786168681E0858B848B74
:102ED0002FEF3FEF338B228B318B208B878B108E24
:102EE000128E118E8FE291E091838083148E138E67
:102EF000B68FA58F10A2178E8FEF84A385A386A30C
:102F000087A380A780E89AE1A6E0B0E085AB96AB06
:102F1000A7ABB0AF80EA96E8A1E0B0E081AF92AF96
:102F2000A3AFB4AF80E586AF17AE0895789484B5AB
:102F3000826084BD84B5816084BD85B5826085BDB5
:102F400085B5816085BD80916E00816080936E0043
:102F50001092810080918100826080938100809135
:102F600081008160809381008091800081608093E6
:102F700080008091B10084608093B1008091B000A6
:102F800081608093B00080917A00846080937A00A1
:102F900080917A00826080937A0080917A008160CB
:102FA00080937A0080917A00806880937A001092F2
:102FB000C10084E00E946C0587E00E946C0560E01F
:102FC00084E00E948C0587E00E943106E091840233
:102FD000F091850282E08083E0918002F09181028D
:102FE0001082E0918202F09183028FEC8083109234
:102FF0008C02E0918802F091890286E08083E09162
:103000008602F0918702808180618083E091860250
:10301000F0918702808188608083E0918602F09140
:103020008702808180688083E0918602F091870228
:1030300080818F7D808380913C0390913D03892B1B
:1030400041F52091230330912403C901079697FD90
:103050000796B3E095958795BA95E1F720912103FE
:10306000309122038C01029FC001039F900D129F9B
:10307000900D11240E94F81B90933D0380933C0314
:10308000892B39F469E771E084E792E00E943413F8
:10309000FFCF0E94031320912303309124038091DA
:1030A000210390912203B901213231050CF4B3C000
:1030B0006054710977FF02C06F5F7F4F7595679508
:1030C0008255910997FD019600E410E022E530E079
:1030D0004EE657E0959587950E94B20E82E0809368
:1030E0003F0380913A0390913B03892B09F4A6C0DA
:1030F0008CE380933E031092500210924F02109284
:103100007102109270020E94E80F8FE296E0909395
:103110004E0280934D0280E396E090934C028093A0
:103120004B028091450387FD1DC00E946C0561E044
:10313000809145030E948C0561E070E080E090E0A2
:103140000E94FD0560E0809145030E948C056AE0C5
:1031500070E080E090E00E94FD0561E08091450311
:103160000E948C0580913A0390913B03892B09F4CE
:103170001CC120915203309153034091540350914C
:10318000550360E074E284EF90E00E94D01B205170
:10319000310941095109569547953795279520934F
:1031A000B80064E08AE895E00E94931160912303DF
:1031B00061508DE193E00E94481264E086E895E05A
:1031C0000E94931180913F0364E1813009F460E132
:1031D0008DE193E00E94481264E082E895E00E944D
:1031E00093118FE880935A038091210390912203D9
:1031F0008038910509F0BBC180912303909124038D
:103200008034910509F0C3C180913F03813009F4F6
:10321000E3C08FECE2C06052710977FF02C06F5FBC
:103220007F4F759567958357910997FD019600E249
:1032300010E023E730E04EE855E04CCF80914303A7
:103240000E946C05809144030E946C0580914303A9
:10325000082E000C990BFC01E95AF54FE491F0E0BF
:10326000EE0FFF1FED5BF54F2591349130934B032B
:1032700020934A03FC01E559F54FE491E093500394
:1032800080914403082E000C990BFC01E95AF54F7C
:10329000E491F0E0EE0FFF1FED5BF54FA591B491C7
:1032A000B0934D03A0934C03FC01E559F54FE49115
:1032B000E09351038C91E82BEC938091380390912B
:1032C0003903892B89F1CFB7F89480914A02811193
:1032D00024C0E1E6FAE08491E5E7FAE09491E82F72
:1032E000F0E0EE0FFF1FE35BF54FA591B491EC9179
:1032F000E92321F461E08AE00E948C058AE00E94C3
:103300006C058CB580618CBD8CB580648CBD8DE006
:103310000E946C058BE00E946C0580914A028F5FD1
:1033200080934A02CFBFFDCE809141030E946C057D
:10333000809142030E946C0580914103082E000C8D
:10334000990BFC01E95AF54FE491F0E0EE0FFF1FF5
:10335000ED5BF54F2591349130934703209346035D
:10336000FC01E559F54FE491E0934E03809142034F
:10337000082E000C990BFC01E95AF54FE491F0E09E
:10338000EE0FFF1FED5BF54FA591B491B09349038C
:10339000A0934803FC01E559F54FE491E0934F03F6
:1033A0008C91E095E823EC93BCCE8091380390910A
:1033B0003903892B31F080915B0390915C030E946B
:1033C000C809E0914C03F0914D0390818091510325
:1033D000809589238083E5CE8FE980935A03C2E1EB
:1033E0006AED8DE193E00E9448126C2F8DE193E02D
:1033F0000E94481261E88DE193E00E9448126091BA
:103400005A038DE193E00E94481269ED8DE193E04B
:103410000E94481280913F0361EF813009F462E21B
:103420008DE193E00E94481266E08CE795E00E94EF
:10343000931180913A0390913B03892B09F4BBC00F
:1034400020915603309157034091580350915903EE
:1034500060E074E284EF90E00E94D01B20513109BB
:103460004109510956954795379527952093B800FE
:1034700081E090E09093300380932F0390932E038C
:1034800080932D034FE3C42E4FE1D42E5EE2E52E50
:103490005AE0F52E6EE5462E6AE0562E72E7272E8C
:1034A0007AE0372E88248A94982C540130E0632ED9
:1034B00030E0732ED1E02FB7F8948091680290919C
:1034C0006902A0916A02B0916B022FBF209166023F
:1034D00040916202509163026091640270916502B2
:1034E0008C01211129C19D01041B150B260B370BE3
:1034F000B901A801403253406105710508F408C1C3
:103500008093620290936302A0936402B093650279
:10351000D093660261E084E00E948C0580910001F6
:10352000873009F052C0F701C491C7FDE8C087E0B9
:103530000E946C05CC2309F4B5C0C23009F0C6C0A6
:103540008091B100887F83608093B10089EF809380
:10355000B3008092560290925702A0925802B09205
:10356000590280917000826080937000C8C08036DC
:10357000910589F48091230390912403409739F4B5
:1035800080913F03813029F08FEA80935A03C2E093
:1035900027CF80E1FACF80349105C9F780912303CA
:1035A00090912403809799F780913F03813009F02F
:1035B00030CE80E112CFE0914C03F0914D03808139
:1035C00090915103892B808353CF8F3F09F097C08F
:1035D00087E080930001F701C491CF3F09F48FC0C9
:1035E000C13011F148F0C23009F43BC0C7FD87C0BB
:1035F00087E00E946C05A1CF14BC15BC84B5826025
:1036000084BD85B5816085BDF2018491E82FF0E02D
:10361000EE0FFF1FED5BF54F85919491F1018491C1
:1036200080935502C0E083CF1092800010928100F9
:103630008091810088608093810080918100816009
:1036400080938100F2018491E82FF0E0EE0FFF1FDC
:10365000ED5BF54F85919491F10184918093540233
:1036600066CF1092B0001092B1008091B0008260DD
:103670008093B0008091B10081608093B100F2012D
:103680008491E82FF0E0EE0FFF1FED5BF54F859181
:1036900094919093530280935202F101849180930C
:1036A000510245CF85B5887F836085BD8CE787BD96
:1036B00080925E0290925F02A0926002B0926102DC
:1036C00080916E00826080936E0019C0C13061F5F8
:1036D00080918100887F816080938100D0928900F1
:1036E000C092880080925A0290925B02A0925C0283
:1036F000B0925D0280916F00826080936F0065E8F8
:1037000071E084E792E00E94341381E00E94481344
:103710006114710409F4CFCE0E94C706882309F40E
:10372000CACE0E940000C2CEC23021F0C111E7CF44
:103730008FE3BDCF8FE30BCF9D01041B150B260B31
:10374000370BB901A801483C51056105710500F32B
:103750008093620290936302A0936402B093650227
:103760001092660260E084E00E948C0587E00E946F
:1037700031066FE871E084E792E00E94341380E044
:10378000C5CF8FE291E090931E0380931D0380913B
:103790003C0390913D03009711F00C94941C089504
:1037A000A1E21A2EAA1BBB1BFD010DC0AA1FBB1F45
:1037B000EE1FFF1FA217B307E407F50720F0A21BB7
:1037C000B30BE40BF50B661F771F881F991F1A9424
:1037D00069F760957095809590959B01AC01BD014E
:1037E000CF010895EE0FFF1F0590F491E02D09948D
:1037F0000F931F93CF93DF938230910510F482E0F3
:1038000090E0E0915F03F091600330E020E0B0E0F1
:10381000A0E0309799F42115310509F44AC0281B1E
:10382000390B24303105D8F58A819B8161157105EA
:1038300089F1FB0193838283FE0111C04081518194
:103840000281138148175907E0F04817590799F486
:10385000109761F012960C93129713961C93329660
:10386000CF01DF91CF911F910F91089500935F03D6
:1038700010936003F4CF2115310551F0421753071F
:1038800038F0A901DB019A01BD01DF01F801C1CFC8
:10389000EF01F9CF9093600380935F03CDCFFE01DA
:1038A000E20FF31F819391932250310939832883CA
:1038B000D7CF20915D0330915E03232B41F42091FB
:1038C00003013091040130935E0320935D03209146
:1038D0000101309102012115310541F42DB73EB7A8
:1038E0004091050150910601241B350BE0915D03C9
:1038F000F0915E03E217F307A0F42E1B3F0B28178D
:10390000390778F0AC014E5F5F4F2417350748F058
:103910004E0F5F1F50935E0340935D03819391931D
:103920009FCFF0E0E0E09CCFCF93DF930097E9F0EA
:10393000FC01329713821282A0915F03B091600361
:10394000ED0130E020E01097A1F420813181820F59
:10395000931F20915D0330915E032817390709F00A
:1039600061C0F0935E03E0935D03DF91CF91089512
:10397000EA01CE17DF07E8F54A815B819E01411518
:103980005105B1F7E901FB83EA8349915991C40FCD
:10399000D51FEC17FD0761F4808191810296840F99
:1039A000951FE90199838883828193819B838A8310
:1039B000F0E0E0E012968D919C9113970097B9F595
:1039C0002D913C911197CD010296820F931F20916A
:1039D0005D0330915E032817390739F6309751F5AA
:1039E0001092600310925F03B0935E03A0935D0397
:1039F000BCCFD383C28340815181840F951FC817E8
:103A0000D90761F44E5F5F4F88819981480F591F34
:103A1000518340838A819B81938382832115310561
:103A200009F0B0CFF0936003E0935F039ECFFD01F8
:103A3000DC01C0CF13821282D7CF81E090E0F894EE
:103A40000C94291DDC0101C06D9341505040E0F7FA
:103A5000089515E0C1E4D5E004C0FE010E94F21B08
:0C3A60002196C234D107C9F7F894FFCFBB
:103A6C00FF00006103800000000000FD065D068A77
:103A7C00064A07BB069906AD06000000007D1050F3
:103A8C001000138B0549103610271000000000069B
:103A9C000C5D060013C00F11098B05AB0E830E9F36
:103AAC000E930E130F8B05CC09AA128108CA08CCF1
:103ABC000DAF0D370DD80C0D0A00414C4552544535
:103ACC00204D45444943414D454E5400414C4552CF
:103ADC0054452021002E2E2E0045727265757220E1
:103AEC004F4C454400414C45525445204F4E0041EB
:0A3AFC004C45525445204F46460049
:00000001FF
