:100000000C9446050C946E050C946E050C946E05CC
:100010000C946E050C946E050C946E050C946E0594
:100020000C946E050C946E050C946E050C946E0584
:100030000C946E050C946E050C946E050C946E0574
:100040000C94CC150C946E050C943C160C9416165E
:100050000C946E050C946E050C946E050C946E0554
:100060000C946E160C946E052200FF210000000017
:10007000003E5B4F5B3E3E6B4F6B3E1C3E7C3E1C2E
:10008000183C7E3C181C577D571C1C5E7F5E1C0074
:10009000183C1800FFE7C3E7FF0018241800FFE72B
:1000A000DBE7FF30483A060E2629792926407F05EE
:1000B0000507407F05253F5A3CE73C5A7F3E1C1C04
:1000C00008081C1C3E7F14227F22145F5F005F5FC4
:1000D00006097F017F006689956A606060606094B0
:1000E000A2FFA29408047E040810207E20100808B5
:1000F0002A1C08081C2A08081E101010100C1E0CC0
:100100001E0C30383E3830060E3E0E060000000051
:100110000000005F00000007000700147F147F1438
:10012000242A7F2A1223130864623649562050007D
:1001300008070300001C2241000041221C002A1C69
:100140007F1C2A08083E0808008070300008080854
:100150000808000060600020100804023E51494574
:100160003E00427F400072494949462141494D3392
:100170001814127F1027454545393C4A49493141F9
:10018000211109073649494936464949291E0000C7
:10019000140000004034000000081422411414141C
:1001A0001414004122140802015909063E415D5908
:1001B0004E7C1211127C7F494949363E4141412211
:1001C0007F4141413E7F494949417F090909013E3B
:1001D000414151737F0808087F00417F4100204062
:1001E000413F017F081422417F404040407F021C74
:1001F000027F7F0408107F3E4141413E7F0909098B
:10020000063E4151215E7F09192946264949493256
:1002100003017F01033F4040403F1F2040201F3F1C
:100220004038403F631408146303047804036159A1
:10023000494D43007F4141410204081020004141E3
:10024000417F04020102044040404040000307088F
:100250000020545478407F2844443838444444288B
:10026000384444287F385454541800087E09021832
:10027000A4A49C787F0804047800447D40002040BA
:10028000403D007F1028440000417F40007C0478FE
:1002900004787C080404783844444438FC18242446
:1002A0001818242418FC7C080404084854545424C6
:1002B00004043F44243C4040207C1C2040201C3C43
:1002C0004030403C44281028444C9090907C44643A
:1002D000544C4400083641000000770000004136CD
:1002E000080002010204023C2623263C1EA1A16153
:1002F000123A4040207A3854545559215555794185
:100300002254547842215554784020545579400C59
:100310001E5272123955555559395454545939553C
:100320005454580000457C410002457D420001457F
:100330007C407D1211127DF0282528F07C54554513
:10034000002054547C547C0A097F4932494949327F
:100350003A4444443A324A4848303A4141217A3A90
:1003600042402078009DA0A07D3D4242423D3D405C
:1003700040403D3C24FF2424487E4943662B2FFC0B
:100380002F2BFF0929F620C0887E090320545479B9
:10039000410000447D413048484A32384040227A8A
:1003A000007A0A0A727D0D19317D2629292F282607
:1003B0002929292630484D4020380808080808080F
:1003C0000808382F10C8ACBA2F102834FA00007B68
:1003D000000008142A142222142A1408550055007B
:1003E00055AA55AA55AAFF55FF55FF000000FF006A
:1003F000101010FF00141414FF001010FF00FF1065
:1004000010F010F0141414FC001414F700FF000096
:10041000FF00FF1414F404FC141417101F10101F15
:10042000101F1414141F00101010F0000000001F03
:10043000101010101F10101010F010000000FF100E
:100440001010101010101010FF10000000FF14000A
:1004500000FF00FF00001F10170000FC04F414143C
:100460001710171414F404F40000FF00F714141408
:1004700014141414F700F7141414171410101F1088
:100480001F141414F4141010F010F000001F101FAB
:100490000000001F14000000FC140000F010F01019
:1004A00010FF10FF141414FF141010101F00000090
:1004B00000F010FFFFFFFFFFF0F0F0F0F0FFFFFF94
:1004C0000000000000FFFF0F0F0F0F0F38444438EB
:1004D00044FC4A4A4A347E02020606027E027E023A
:1004E00063554941633844443C04407E201E200645
:1004F000027E020299A5E7A5991C2A492A1C4C7282
:1005000001724C304A4D4D303048784830BC625A08
:10051000463D3E494949007E0101017E2A2A2A2A98
:100520002A44445F444440514A444040444A514074
:100530000000FF0103E080FF000008086B6B083635
:1005400012362436060F090F0600001818000000A6
:100550001010003040FF0101001F01011E00191D95
:100560001712003C3C3C3C00000000000001030767
:100570000F1F3F7F0080C0E0F0F8FCFEDB40A4A628
:100580002EAF2000A1C8D300408DAED580A80000BA
:10059000600000000000000000000000000000E01B
:1005A0000000000000000000000000000001E0006A
:1005B00000000000000000000000000001F000004A
:1005C000000000000000000000000003F000000038
:1005D0000000000000000000000007F00000000024
:1005E00000000000000000000007F800000000000C
:1005F00000000000000000000FF800000003C00031
:100600007E000001E0007F0FF800000003C000FE44
:10061000000001E000FFEFF800000003C000FE0052
:100620000001E000FFFFF800000003C000F0000040
:10063000000F007FFE7FC0000003C000F00000003C
:100640000F003FFE7FF83FF1FBCFFCFEF3BC3DEF18
:10065000E01FFE7FFF7FFBFFDFFEFEFFBC3DEFE004
:100660001FC6FFFF7FFBFFDFFEFEFFBC3DEFE00F7D
:10067000E3C7FE787BC3DE1EF0FFBC3DEF0007FF43
:1006800087FC787BC3DE1EF0F83C3DEF0001FFFFE6
:10069000F0007BC3C01EF0F03C3DEF0001F37FE0B3
:1006A0003FFBC3CFFEF0F03C3DEF0003E33F807F14
:1006B000FBC3DFFEF0F03C3DEF0007E73C00787B3A
:1006C000C3DE1EF0F03C3DEF0007FFBE00787BC3A9
:1006D000DE1EF0F03C3DEF0007FFFE00787BC3DE3E
:1006E0001EF0F03C3DEF000FFFFE007FFBFFDFFE42
:1006F000F0F03FFDEFE00FFFFF007FFBFFDFFEF0BC
:10070000F03FFDEFE00FF9FF003E79F9CF9EF0F0EA
:100710001F3DE7E01FF1FF000000000000000000A7
:100720000000001F80FF007FFFFFFFFFFFFFFFFFB4
:10073000FFE01C007F007FFFFFFFFEB46D888D1877
:10074000E000001F007FFFFFFFFE95AD7DB577E065
:1007500000000F007FFFFFFFFEA5AD9D8D19E0009B
:100760000006007FFFFFFFFEB5ADEDB57EE00000A7
:100770000000000180000000000000000000038075
:1007800000000000000000000007C00000000000A2
:100790000000000007C00000000000000000000F83
:1007A000C00000000000000000001FE0000000008A
:1007B00000000000001FE00000000000000000003A
:1007C0003FE00000000000000000003FF0000000DB
:1007D0000000000000007FF0000000000000001F8B
:1007E000F87FF0000000000000003FFE7FF00000F6
:1007F00000000000003FFF7FF0000000000000004C
:100800001FFFFBE0000000000000000FFFF9FFC029
:100810000000000000000FFFF9FFF80000000000DA
:100820000007FFF1FFFF00000000000003FC73FF62
:10083000FF80000000000001FE3FFFFF800000007D
:10084000000000FF1E0FFF000000000000007FFE00
:100850001FFC000000000000003FFFFFF800000048
:10086000000000000FDFFFE0000000000000001F9C
:1008700019FFC0000000000000003F3CFF00000026
:1008800000000000007E7CF8000000000000000076
:100890007FFE7C0000000000000000FFFFFC000065
:1008A000000000000000FFFFFE000000000000004C
:1008B00000FFFFFE0000000000000001FFEFFE004F
:1008C00000000000000001FFCFFE0000000000005B
:1008D0000003FF07FE0000000000000003FC07FE0D
:1008E0000000000000000003F003FE000000000014
:1008F0000000018000FE0000000000000000000079
:100900007E000000000000000000003E000000002B
:100910000000000000000C00000000000007800044
:10092000FC000003C0000000078001FC000003C0C1
:10093000000000078001FC000003C00000000780E9
:1009400001E00000001E000000078001E000000040
:100950001E007FE3F79FF9FDE7787BDFC0FFF7FF1D
:10096000BFFDFDFF787BDFC0FFF7FFBFFDFDFF7818
:100970007BDFC0F0F787BC3DE1FF787BDE00F0F75E
:1009800087BC3DE1F0787BDE0000F787803DE1E049
:10099000787BDE007FF7879FFDE1E0787BDE00FF5C
:1009A000F787BFFDE1E0787BDE00F0F787BC3DE133
:1009B000E0787BDE00F0F787BC3DE1E0787BDE008D
:1009C000F0F787BC3DE1E0787BDE00FFF7FFBFFD7D
:1009D000E1E07FFBDFC0FFF7FFBFFDE1E07FFBDF72
:1009E000C07CF3F39F3DE1E03E7BCFC00000000000
:1009F00000000000000000FFFFFFFFFFFFFFFFFF00
:100A0000FFC0FFFFFFFFFD68DB111A31C0FFFFFFD2
:100A1000FFFD2B5AFB6AEFC0FFFFFFFFFD4B5B3B67
:100A20001A33C0FFFFFFFFFD6B5BDB6AFDC00000F8
:100A30000000240027002A000000000025002800F4
:100A40002B000000000023002600290004040404F9
:100A50000404040402020202020203030303030368
:100A60000102040810204080010204081020010245
:100A70000408102000000008000201000003040721
:100A800000000000000000008D177C1D11241FBE17
:100A9000CFEFD8E0DEBFCDBF13E0A0E0B1E0E6E6E7
:100AA000F4E402C005900D92A633B107D9F724E013
:100AB000A6E3B3E001C01D92A23FB207E1F715E043
:100AC000C5E4D5E004C02197FE010E94FB1DC4349B
:100AD000D107C9F70E9410180C9426220C9400002C
:100AE000181619068CF4E8E4F1E030E020E050E05C
:100AF00040E061917191260F371F4F5F5F4F841760
:100B00009507B9F7C901089530E020E00097D1F3C7
:100B1000880F991FFC01E85BFE4F30E020E08191D7
:100B20009191280F391F81E0E834F807C1F7EACF27
:100B30000895833081F028F4813099F08230A9F053
:100B400008958730A9F08830C9F08430B1F48091DD
:100B500080008F7D03C0809180008F77809380001C
:100B6000089584B58F7784BD089584B58F7DFBCFBC
:100B70008091B0008F778093B00008958091B0008D
:100B80008F7DF9CFCF93DF93282F30E0F901EC5818
:100B9000F54F8491F901E05AF54FD491F901E45BE6
:100BA000F54FC491CC23A1F081110E949905EC2F3F
:100BB000F0E0EE0FFF1FEE5BF54FA591B491EC91C5
:100BC000ED2381E090E009F480E0DF91CF9108957A
:100BD00080E090E0FACF1F93CF93DF93282F30E08F
:100BE000F901EC58F54F8491F901E05AF54FD49191
:100BF000F901E45BF54FC491CC23A9F0162F8111C4
:100C00000E949905EC2FF0E0EE0FFF1FE85CF54F16
:100C1000A591B4918FB7F894EC91111108C0D095BB
:100C2000DE23DC938FBFDF91CF911F910895DE2BE0
:100C3000F8CFCF93DF9390E0FC01E05AF54F249179
:100C4000845B954FFC0184918823D1F090E0880F5C
:100C5000991FFC01E25DF54FA591B491FC01E85CA0
:100C6000F54FC591D491623071F49FB7F8943C91DF
:100C7000822F809583238C93E8812E2B28839FBF1E
:100C8000DF91CF9108958FB7F894EC912E2B2C9390
:100C90008FBFF6CF3FB7F8948091FD039091FE038C
:100CA000A091FF03B091000426B5A89B05C02F3F7B
:100CB00019F00196A11DB11D3FBFBA2FA92F982F82
:100CC0008827BC01CD01620F711D811D911D42E07D
:100CD000660F771F881F991F4A95D1F708958F9245
:100CE0009F92AF92BF92CF92DF92EF92FF924B0111
:100CF0005C010E944A066B017C010E944A066C1945
:100D00007D098E099F09683E734081059105A8F30E
:100D100021E0821A9108A108B10888EEC80E83E08C
:100D2000D81EE11CF11C81149104A104B10429F71F
:100D3000FF90EF90DF90CF90BF90AF909F908F90FB
:100D4000089508950895AF92BF92CF92DF92EF92E7
:100D5000FF920F931F93CF93DF936C017B018B0165
:100D6000040F151FEB015E01AE18BF08C017D107B5
:100D700059F06991D601ED91FC910190F081E02D3F
:100D8000C6010995892B79F7C501DF91CF911F9194
:100D90000F91FF90EF90DF90CF90BF90AF900895AC
:100DA000FC01538D448D252F30E0842F90E0821B71
:100DB000930B541710F0CF96089501970895FC01F6
:100DC000918D828D981761F0A28DAE0FBF2FB11D4E
:100DD0005D968C91928D9F5F9F73928F90E00895A6
:100DE0008FEF9FEF0895FC01918D828D981731F060
:100DF000828DE80FF11D858D90E008958FEF9FEFB4
:100E00000895FC01918D228D892F90E0805C9F4F89
:100E1000821B91098F739927089585E094E00E94C1
:100E2000010721E0892B09F420E0822F089580E05A
:100E300090E0892B29F00E940D0781110C9400008D
:100E40000895FC01A48DA80FB92FB11DA35ABF4F5F
:100E50002C91848D90E001968F739927848FA689B9
:100E6000B7892C93A089B1898C91837080648C930D
:100E7000938D848D981306C00288F389E02D8081BC
:100E80008F7D80830895EF92FF920F931F93CF93EE
:100E9000DF93EC0181E0888F9B8D8C8D98131AC0B5
:100EA000E889F989808185FF15C09FB7F894EE899C
:100EB000FF896083E889F9898081837080648083F9
:100EC0009FBF81E090E0DF91CF911F910F91FF9044
:100ED000EF900895F62E0B8D10E00F5F1F4F0F73EC
:100EE0001127E02E8C8D8E110CC00FB607FCFACFA7
:100EF000E889F989808185FFF5CFCE010E9421071D
:100F0000F1CFEB8DEC0FFD2FF11DE35AFF4FF08277
:100F10009FB7F8940B8FEA89FB8980818062CFCFDD
:100F2000CF93DF93EC01888D8823B9F0AA89BB8920
:100F3000E889F9898C9185FD03C0808186FD0DC00B
:100F40000FB607FCF7CF8C9185FFF2CF808185FF2C
:100F5000EDCFCE010E942107E9CFDF91CF91089517
:100F6000EF92FF920F931F93CF93DF93EC01EC80EE
:100F7000FD806E157F050CF070C057FF04C0240F74
:100F8000351F50E040E08E819F81FA01E20FF31F90
:100F90008E179F071CF49C01241B350B1216130699
:100FA0000CF05BC0922F842F8695869586958E9D3A
:100FB000D0018F9DB00D11246A0F7B1FAF8DB8A19A
:100FC000A60FB71F477049F188E0841B482F682F90
:100FD00070E0FB01EC58FA4FE491281708F063C069
:100FE000621B71092FEF30E002C0359527956A9595
:100FF000E2F7E2230130110539F0B0F102301105BA
:1010000061F58C91E82702C08C91E82BEC93941742
:1010100020F12C813D81A20FB31FE92FE41BE830A2
:1010200078F00230110521F58E2F9C9190959C93BC
:101030002C813D81A20FB31F88508830B0F7E77034
:10104000EE2359F0F0E0E459FA4FE4910130110534
:10105000F9F010F10230110519F1DF91CF911F91D4
:101060000F91FF90EF900895E0958C91E823CECFFB
:1010700081E00115110509F480E081959E2F8C9384
:101080002C813D81A20FB31F98509830C0F7D7CF65
:101090008C91E82BEC93E1CFE0958C91E823FACF8B
:1010A0008C91E827F7CF0130110509F4ADCFE0F2BC
:1010B0000230110509F4A5CFAE0DBF1DAECF0F93C1
:1010C0001F93CF93DF9377FF04C0260F371F70E085
:1010D00060E0DC011496CD91DC91FB01E20FF31F7F
:1010E000CE17DF071CF49E01261B370B12161306C2
:1010F0004CF5FA0157FD3796A3E0F595E795AA95CB
:10110000E1F7EC9FD001ED9FB00DFC9FB00D1124D5
:101110006A0F7B1FDC015F96ED91FC91E60FF71FD4
:101120004770552781E090E001C0880F4A95EAF7A3
:10113000482F0130110559F0A8F02E0F3F1F023043
:101140001105E1F0DF91CF911F910F9108952E0FBE
:101150003F1FE217F307B1F38191DF011197842B51
:101160008C93F7CF80952E0F3F1FE217F30751F3B3
:101170009191DF01119798239C93F7CFE217F30722
:1011800009F38191DF01119784278C93F7CF0F9397
:101190001F93FA01DC0156964C9156974230E9F0C4
:1011A0004330A1F1413061F514964D915C91DA0123
:1011B000AE1BBF0BFD01E21BF30B77FD0BC0DC0187
:1011C00016964D915C916417750724F4AB01BF012D
:1011D0000E945F081F910F91089514964D915C91A4
:1011E000DA01A61BB70BBD0161507109DC0116962F
:1011F0004D915C91DA01AE1BBF0BFD01E21BF30BBD
:1012000077FDE8CFAF010E94B007E4CF16964D916D
:101210005C91DA01A61BB70BBD0161507109CDCFFE
:101220000F931F93FA01DC0156964C91569742306A
:10123000A9F0433091F1413019F514964D915C912C
:10124000DA01AE1BBF0BFD013197F7FD04C0AB0106
:10125000BF010E94B0071F910F91089514964D9100
:101260005C91DA01A61BB70BBD01DC0116964D910E
:101270005C91DA01AE1BBF0BFD013197621B730B52
:10128000F7FDE9CFDC0116964D915C91E417F50767
:1012900014F7AF010E945F08DECF16964D915C9166
:1012A000DA01A61BB70BBD01621B730BCECFFC018D
:1012B00077FD64C080859185681779070CF05EC062
:1012C00057FD5CC082859385481759070CF056C0BE
:1012D00086898230B1F0833029F1813041F48481F4
:1012E0009581841B950BAB01BC01615071092130C4
:1012F000310509F108F443C02230310509F463C017
:10130000089584819581DC01A61BB70BBD01615056
:10131000710986819781DC01A41BB50BAD01415099
:101320005109E5CF86819781861B970BBA01AC01E5
:1013300041505109DCCFCA0157FD0796A3E09595AE
:101340008795AA95E1F7A481B5818A9F90018B9F2B
:10135000300D9A9F300D1124620F731F078CF0A17E
:10136000E02DE60FF71F4770552721E030E001C060
:10137000220F4A95EAF78081822B80830895CA0163
:1013800057FD079633E0959587953A95E1F7A48147
:10139000B5818A9F90018B9F300D9A9F300D11244B
:1013A000620F731F078CF0A1E02DE60FF71F477047
:1013B000552781E090E001C0880F4A95EAF78095B3
:1013C00090818923DACFCA0157FD079623E09595CE
:1013D00087952A95E1F7A481B5818A9F90018B9F1B
:1013E000300D9A9F300D1124620F731F078CF0A1EE
:1013F000E02DE60FF71F4770552721E030E001C0D0
:10140000220F4A95EAF780818227B7CF08958EBDD3
:1014100000000DB407FEFDCF8EB508958CBD9DBDB7
:1014200008950895FC016370668B848195812681FF
:101430003781613039F0633029F0918780873387B5
:1014400022870895318720879387828708952F9276
:101450003F924F925F926F927F928F929F92AF9244
:10146000BF92CF92DF92EF92FF920F931F93CF9391
:10147000DF93CDB7DEB76A970FB6F894DEBF0FBE25
:10148000CDBF9A8F898F7A8369834A01D22E1887BC
:101490000F833701BC2CDC0159962D913C915A9752
:1014A0002115310509F015C118968D919C91199758
:1014B000681779070CF0D7C11A968D919C9148173F
:1014C00059070CF0D0C14C2C512CB6E0CB9E600DCE
:1014D000711D11247C876B87161617060CF0C3C18B
:1014E000EA2DF0E0FA87E98793E0EE0FFF1F9A9567
:1014F000E1F7F88BEF87CF01840F951F18161906B7
:101500000CF0B1C1A98DBA8D58968C91811104C08F
:10151000BFEABD1508F4D394A98DBA8DED91FC9165
:1015200011970284F385E02DCD010995B5E0DB9E8E
:10153000C0011124E981FA81FC83EB83312C212C39
:101540009C0124593F4F388F2F8B4A2D50E05E8BE2
:101550004D8BEF89F88DE20DF31D44919E828D82B3
:10156000D12CC12C69817A81620D731D7A8B698BB4
:10157000842F90E09C8B8B8BE98DFA8DA081B181BB
:1015800040FF82C0F1E0BF126FC0AF126DC01C9669
:10159000ED91FC912F813885A4014C0D5D1D698969
:1015A0007A89898D9A8D0995EB89FC89F595E7955E
:1015B0004E2F5FEFC51AD50A6D817E818D899E8978
:1015C000680F791F7E836D8398E0C916D10481F678
:1015D000AFEF2A1A3A0AEB81FC81E40DF51DFC837A
:1015E000EB83F5E02F16310409F0B3CF2F81388556
:1015F00026153705B9F0A98DBA8DED91FC91B1E0B2
:10160000BB1257C0AB1255C069817A816B5F7F4FA7
:101610000088F189E02D830128E030E0A401898D64
:101620009A8D0995A98DBA8DED91FC911197068837
:10163000F789E02DCD016A960FB6F894DEBF0FBE94
:10164000CDBFDF91CF911F910F91FF90EF90DF9071
:10165000CF90BF90AF909F908F907F906F905F9052
:101660004F903F902F9009941E96ED91FC91EF8042
:10167000F88409851A8592014D815E816B817C8198
:10168000898D9A8D099590CF2F813885261537053C
:1016900009F48ACF31E0B31207C0A31205C01C962B
:1016A000ED91FC91930178CF1E96ED91FC91730121
:1016B000E0CF6B857C85641975090684F785E02D7C
:1016C00073010F8518899201A401898D9A8D09955E
:1016D000A9CFF90134969491329745915491D91A32
:1016E000B7E0DB9E400D511D1124F9012591349185
:1016F0003C8B2B8BFA0125903490FA013296749032
:1017000031963491398B329664903196449041E011
:101710004C1518F04A1508F07FC0662D062C000CF9
:10172000770B7C836B83842D042C000C990B9E8398
:101730008D83A98DBA8DED91FC9111970284F3856B
:10174000E02DCD010995512CD12CC12CEA2DF0E0D2
:10175000FA87E9872B2D30E03C872B87A401440DC5
:10176000511D47FC5A95588F4F8B69817A81660DC0
:10177000711D67FC7A957E876D877989C71608F099
:1017800051CF2C2D30E04D815E81420F531FA98532
:10179000BA854A9FC0014B9F900D5A9F900D11240E
:1017A000FC01E80DF91DF88BEF87852D612C4F8921
:1017B000588D420F531F5E8B4D8B671408F050C03D
:1017C00044244394480E877041F4C1010196EB898B
:1017D000FC89E20DF31DD4901C01D7FE19C0A98D20
:1017E000BA8DED91FC91662D70E0B1E0BB1219C08D
:1017F000AB1217C02D853E85620F731F0484F585DB
:10180000E02D2F8138854D895E89898D9A8D0995C6
:10181000DD0C6394842DD1CF1E821D821C821B821D
:1018200088CF4B815C81640F751FAB85BC856A9F37
:10183000C0016B9F900D7A9F900D112469817A8170
:10184000680F791F0684F785E02DEF80F8840985FD
:101850001A859D014F855889898D9A8D0995D8CF14
:10186000570CC3948ACF6A960FB6F894DEBF0FBEAA
:10187000CDBFDF91CF911F910F91FF90EF90DF903F
:10188000CF90BF90AF909F908F907F906F905F9020
:101890004F903F902F9008958F929F92AF92CF924A
:1018A000EF92FF920F931F93CF93DF93EC01262FBC
:1018B000898D9A8D009709F051C06A30D1F41D8648
:1018C0001C868D8948E0849F900111248E859F8518
:1018D000820F931F9F878E8781E090E0DF91CF91E9
:1018E0001F910F91FF90EF90CF90AF909F908F90AE
:1018F00008956D3089F3CC88AD888F898823C1F035
:101900008C859D8536E0C39E800D911D11244885F0
:1019100059854817590764F44E855F851D861C86D6
:1019200038E0A39EC0011124840F951F9F878E87E6
:10193000EA88FB88088919894E855F856C857D85D5
:10194000CE010E94270A2C898C859D8546E0249F24
:10195000800D911D11249D878C87BECF6A3069F45C
:101960001D861C86FC013896E4912D898E859F8505
:10197000E29F800D911D1124ADCF6D3009F4ACCFE5
:10198000FC0134963491631708F4A6CF3296E491A3
:10199000E61708F4A1CFFC01329685909490462F6B
:1019A000431B342F47E0349F800C911C1124F40119
:1019B000329634913196E4913323A9F1EE2399F1D3
:1019C000CC88F4013596E491AD884F89442301F128
:1019D0000E2E000CFF0BE30FF11DCE9EA001CF9E3B
:1019E000500D11246C857D85460F571F68857985BC
:1019F000641775076CF44E855F851D861C86FC0197
:101A00003896E491AE9E400D511D11245F874E879C
:101A1000EA88FB88088919894E855F856C857D85F4
:101A2000CE010E94270AF4013496E4912C898C851A
:101A30009D85E29F800D911D11248DCF6F927F9225
:101A40008F929F92AF92BF92CF92DF92EF92FF92CE
:101A50000F931F93CF93DF93EC016B015A01390170
:101A60004801E881F9810284F385E02D0995E88138
:101A7000F9810288F389E02D87019301A501B60160
:101A8000CE010995A501480D591D41505109E88124
:101A9000F9810288F389E02D9301B601CE01099501
:101AA000E881F9810088F189E02D9401A501B60152
:101AB000CE010995C60CD71CB60161507109E881A9
:101AC000F9810088F189E02D9401A501CE010995E5
:101AD000E881F9810688F789E02DCE01DF91CF9169
:101AE0001F910F91FF90EF90DF90CF90BF90AF903C
:101AF0009F908F907F906F9009946F927F928F92BA
:101B00009F92AF92BF92CF92DF92EF92FF920F938C
:101B10001F93CF93DF935C01EB016A014901380108
:101B20008701DC01ED91FC916217730719F56416CA
:101B300075062CF0962D872D3A01C92ED82E9601C8
:101B4000261937092F5F3F4F048CF58DE02DA30137
:101B5000BE01C5010995DF91CF911F910F91FF90B3
:101B6000EF90DF90CF90BF90AF909F908F907F903D
:101B70006F9008954615570591F42617370724F0FE
:101B8000892D4B01C22FD82F9E01281939092F5FAB
:101B90003F4F068CF78DE02DA601B401DACF028409
:101BA000F385E02D0995D501ED91FC910488F58927
:101BB000E02D83019401A601BE01C5010995D5015F
:101BC000ED91FC910688F789E02DC501DF91CF9159
:101BD0001F910F91FF90EF90DF90CF90BF90AF904B
:101BE0009F908F907F906F900994EF92FF920F9348
:101BF0001F93DC011A960D911C911B9718962D913D
:101C00003C911997ED91FC9100A0F1A1E02D7B0191
:101C100050E040E070E060E009951F910F91FF9067
:101C2000EF9008954F925F926F927F928F929F9262
:101C3000AF92BF92CF92DF92EF92FF920F931F93DA
:101C4000CF93DF936C012B015A0139014801DC016C
:101C5000ED91FC910284F385E02D0995E201640C7D
:101C6000751CD601ED91FC91C615D7055CF4008872
:101C7000F189E02D87019401A501BE01C6010995F6
:101C80002196EFCF0688F789E02DC601DF91CF912D
:101C90001F910F91FF90EF90DF90CF90BF90AF908A
:101CA0009F908F907F906F905F904F9009948F924C
:101CB0009F92AF92BF92CF92DF92EF92FF920F93DB
:101CC0001F93CF93DF93EC015B014A016901E88127
:101CD000F9810284F385E02D099595012C0D3D1DB8
:101CE00021503109E881F9810488F589E02D7801D6
:101CF0008401A401B501CE010995E881F981068826
:101D0000F789E02DCE01DF91CF911F910F91FF90C8
:101D1000EF90DF90CF90BF90AF909F908F900994FD
:101D20008F929F92AF92BF92CF92DF92EF92FF92EB
:101D30000F931F93CF93DF93EC015B014A0169017D
:101D40007801E881F9810284F385E02D0995C80CBA
:101D5000D91C860101501109E881F9810488F589AF
:101D6000E02D9501A401B501CE010995E881F98125
:101D70000688F789E02DCE01DF91CF911F910F9159
:101D8000FF90EF90DF90CF90BF90AF909F908F909B
:101D90000994EF92FF920F931F93DC01ED91FC9158
:101DA00000A0F1A1E02D09951F910F91FF90EF90F8
:101DB00008950F931F93DC01ED91FC91068CF78D34
:101DC000E02D09951F910F9108950F931F93DC014A
:101DD000ED91FC91048CF58DE02D09951F910F91EB
:101DE0000895DC01ED91FC910084F185E02D0994CA
:101DF0003F924F925F926F927F928F929F92AF929B
:101E0000BF92CF92DF92EF92FF920F931F93CF93E7
:101E1000DF935C017B014A016901390187E0680EAB
:101E2000711C93E0759467949A95E1F72B01400E2D
:101E3000511E10E000E0312CD0E0C0E0CE018770F0
:101E40009927330C892B59F4FE0183E0F595E7952A
:101E50008A95E1F7E00FF11FE80DF91D349037FE88
:101E60000AC021E030E0A701B5016C0F7D1F8EEAAA
:101E700094E00E94F10E2196CC16DD06F9F68FEF64
:101E8000E81AF80A060D171DE414F504A9F6DF9107
:101E9000CF911F910F91FF90EF90DF90CF90BF9067
:101EA000AF909F908F907F906F905F904F903F90FA
:101EB00008952F923F924F925F926F927F928F92EE
:101EC0009F92AF92BF92CF92DF92EF92FF920F93C9
:101ED0001F93CF93DF9300D000D000D0CDB7DEB7F3
:101EE0003C016A013E832D83FC82EB825801A41AD7
:101EF000B50AB7FE03C0B194A194B1088D809E804D
:101F0000861A970A97FE03C09194819491088A14C7
:101F10009B045CF0902F812F0D811E819D838E8309
:101F20009C2D8D2D6B01692F782F0C151D055CF0F4
:101F30009D818E817E836D83692F782F902F812FD5
:101F40008601C92ED82E1601201A310A2B012D81A7
:101F50003E81421A530A57FE03C0519441945108DE
:101F6000710137FE03C03FEFE31AF30AF594E794DB
:101F70008D819E81861797075CF5A1E0B0E0BA835A
:101F8000A983C016D1064CF1D301ED91FC910484D4
:101F9000F585E02D2B813C81A8016D817E818A141D
:101FA0009B041CF04D815E81B801C3010995E418C2
:101FB000F508F7FE0AC02D813E8189819A81280F9C
:101FC000391F3E832D83E20CF31C0F5F1F4FD9CFC7
:101FD0002FEF3FEF3A832983D4CF26960FB6F8949C
:101FE000DEBF0FBECDBFDF91CF911F910F91FF904C
:101FF000EF90DF90CF90BF90AF909F908F907F90A9
:102000006F905F904F903F902F900895089520918A
:102010009E03260F3327331F21323105ECF4209124
:10202000C203FC0190E080E0243069F082E0089572
:10203000A0919E032191AC0142585C4FA40FB52F93
:10204000B11D2C930196861798F380919E03680F1B
:1020500060939E0380E0089581E008951092C2038A
:1020600081E08093C4031092C30361E082E10E9487
:10207000EB0561E083E10E94EB05E9EBF0E0808194
:102080008E7F808380818D7F808388E48093B800F9
:1020900085E48093BC000895CF93DF9391E0909303
:1020A0007D038823B9F0C091B800D091BA00809127
:1020B000BC008A7B8093BC0060E082E10E94EB055B
:1020C00060E083E10E94EB050E942E10D093BA00DD
:1020D000C093B800DF91CF910895E091EE03809115
:1020E000ED03E81730F4F0E0E85AFC4F808190E00F
:1020F00008958FEF9FEF08959091EE038091ED0387
:102100002FEF3FEF981748F4E92FF0E0E85AFC4F23
:10211000208130E09F5F9093EE03C9010895809184
:10212000ED039091EE03891B990B0895CF92DF92F6
:10213000EF92FF920F931F93CF93DF937C01CB011C
:102140008A0120910404222389F0EB016B01C40E63
:10215000D51ECC15DD0569F06991D701ED91FC9193
:102160000190F081E02DC7010995F3CF642F0E9403
:102170000710C801DF91CF911F910F91FF90EF9051
:10218000DF90CF900895CF93DF931F92CDB7DEB746
:102190006983209104042223F9F020910104203264
:1021A00058F021E030E0FC013383228390E080E0AE
:1021B0000F90DF91CF91089580910204E82FF0E015
:1021C000E85CFC4F998190838F5F80930204809339
:1021D000010481E090E0ECCF61E0CE0101960E9425
:1021E0000710F7CFCF92DF92EF92FF920F931F93DA
:1021F000CF93DF93D091010481E0D13208F09CC0ED
:10220000C09103040E944A066B017C018091C203C5
:1022100081116CC082E08093C20381E08093C4038B
:102220008FEF8093C1031092E603D093E503A8E3F8
:10223000B3E0E5ECF3E080E0D8138DC01092E70343
:102240008091E703CC0FC82BC093E7038091C303B1
:10225000813009F084C01092C3030E944A066B01CA
:102260007C018091E7038093BB008091790390917A
:102270007A03A0917B03B0917C03892B8A2B8B2B53
:10228000A1F00E944A060091790310917A032091EF
:102290007B0330917C036C197D098E099F09061719
:1022A00017072807390708F442C08091BC0083FD56
:1022B000D8CF85EC8093BC000E944A066B017C015C
:1022C0008091C203823009F44CC08091C1038F3FDA
:1022D00009F469C08091C103803209F466C080911D
:1022E000C103803309F463C084E026C08091790380
:1022F00090917A03A0917B03B0917C03892B8A2B68
:102300008B2B09F483CF0E944A0600917903109128
:102310007A0320917B0330917C036C197D098E092F
:102320009F09061717072807390708F06FCF809114
:1023300078030E944C1085E0109202041092010470
:1023400010920404DF91CF911F910F91FF90EF90B5
:10235000DF90CF9008959D9191938F5F6DCF85EE23
:10236000A9CF8091790390917A03A0917B03B091DA
:102370007C03892B8A2B8B2B09F4A2CF0E944A065F
:102380000091790310917A0320917B0330917C03B3
:102390006C197D098E099F09061717072807390749
:1023A00008F08ECFC4CF80E0C7CF82E0C5CF83E0F6
:1023B000C3CFEF92FF920F931F93CF93DF937C01D4
:1023C000C62F8091CB049091CC04009709F459C09A
:1023D0002091CF0431E03093040420930304109241
:1023E000020410920104DC01ED91FC910190F08156
:1023F000E02D60E009958701EE24E394F12CD1E013
:10240000C1508091CB049091CC04CF3F91F1B0E2C8
:10241000EB16F104D8F00E94F2108091CB04909159
:10242000CC042091CF04D093040420930304109291
:10243000020410920104DC01ED91FC910190F08105
:10244000E02D60E00995EE24E394F12C8091CB041B
:102450009091CC04F8016491DC01ED91FC91019024
:10246000F081E02D0995BFEFEB1AFB0A0F5F1F4FBC
:10247000C7CFDF91CF911F910F91FF90EF900C94F8
:10248000F210E091DB04F091DC0490818091E10492
:102490008095892380838701C15008F438C0F801F2
:1024A00084912091C9043091CA04232B29F00E9401
:1024B000070A0F5F1F4FF0CF28E030E040E8E091BF
:1024C000D704F091D8049091DF04582F5423D9F009
:1024D0005081952B9083E091D904F091DA0490819A
:1024E0005091E004952B9083E091D904F091DA04A7
:1024F00050819091E00490959523908346952150CA
:102500003109E9F6D6CF508190959523E3CFDF913D
:10251000CF911F910F91FF90EF9008951F93CF934C
:10252000DF93EC018D8D9E8D009721F1162F29A14F
:1025300031E03093040420930304109202041092BB
:102540000104DC01ED91FC910190F081E02D60E04F
:1025500009958D8D9E8DDC01ED91FC910190F081AE
:10256000E02D612F09958D8D9E8DDF91CF911F916B
:102570000C94F210ADA5BEA59C918BA980958923E2
:102580008C938B8D9C8D892B31F0862FDF91CF9191
:102590001F910C94070A28E030E080E8A9A5BAA5AD
:1025A00099A9462F4823C1F04C91942B9C93ABA53D
:1025B000BCA59C914AA9942B9C93ABA5BCA54C911E
:1025C0009AA9909594239C9386952150310931F7CF
:1025D000DF91CF911F9108954C9190959423E6CF70
:1025E0001F93CF93DF93EC01162F8D8D9E8D892B3A
:1025F000B1F12DA93EA94FA958AD60E074E284EF76
:1026000090E00E949F1D20513109410951095695C2
:102610004795379527952093B80066EA111167EA28
:10262000CE010E948E128D8D9E8D892B41F129AD98
:102630003AAD4BAD5CAD60E074E284EF90E00E9497
:102640009F1D2051310941095109569547953795EC
:1026500027952093B800DF91CF911F9108958B8D1E
:102660009C8D892B21F08EAD9FAD0E940E0AEFA5A7
:10267000F8A990818CA9809589238083CECFEFA57E
:10268000F8A980819CA9892B8083E5CF90E080E028
:102690000895BF92CF92DF92EF92FF920F931F9314
:1026A000CF93DF93EC0110E000E0C12CD12C760138
:1026B00080E4B82EB0927C0080917A008064809390
:1026C0007A0080917A0086FDFCCF8091780090910D
:1026D0007900092E000CAA0BBB0BC80ED91EEA1EEE
:1026E000FB1E62E070E080E090E00E946F060F5FEA
:1026F0001F4FC017D107F1F69E01DD0F440B550B9C
:10270000C701B6010E94C11DC901DF91CF911F9180
:102710000F91FF90EF90DF90CF90BF90089560E011
:1027200088E00E94EB0560E089E00E94EB0560E034
:102730008AE00E94EB0560E08BE00C94EB05CF9300
:10274000DF932091360330913703820F931F089651
:1027500068E070E00E948B1D9093370380933603EE
:1027600023E0880F991F2A95E1F7EC01C85FDE4F3F
:10277000688188E00E94EB056A8189E00E94EB0590
:102780006C818AE00E94EB056E818BE00E94EB0574
:1027900063E070E080E090E0DF91CF910C946F06F1
:1027A0002091B4043091B504C901079697FD0796AE
:1027B00023E0959587952A95E1F72091B204309111
:1027C000B304829FA001839F500D929F500D11244E
:1027D00070E060E08091CD049091CE040C943A1F9B
:1027E0000E94351FFB0101900020E9F73197AF01EE
:1027F000461B570BDC01ED91FC910280F381E02D2B
:1028000009940F931F93CF93DF938C01D0E0C0E026
:102810006115710519F00E94F213EC0164EC71E08E
:10282000C8010E94F2138C0F9D1FDF91CF911F9161
:102830000F910895DF92EF92FF920F931F93CF9322
:10284000DF932091EF03222309F41BC1EB018C01DC
:102850000E94D01381E090E09093C1048093C00463
:102860009093BF048093BE048093C2048093C304FA
:102870001092BB041092BA041092BD041092BC04D2
:10288000B8018EEA94E00E9401141092BB041092E9
:10289000BA0480E190E09093BD048093BC04BE0133
:1028A0008EEA94E00E9401148091CB049091CC04B4
:1028B000892B09F4A5C02091E3043091E4044091F0
:1028C000E5045091E60460E074E284EF90E00E9439
:1028D0009F1D20513109410951095695479537955A
:1028E00027952093B80064E088E690E00E94D91113
:1028F0008091B2049091B3048034910509F097C09F
:1029000060E28EEA94E00E948E126091B204615EF1
:102910008EEA94E00E948E122091B4043091B504A6
:10292000C901079697FD079633E0959587953A95E7
:10293000E1F72091B2043091B304829F8001839F1C
:10294000100D929F100D1124C091CD04D091CE0492
:102950008091CB049091CC040C0F1D1F009709F4BB
:1029600098C02091CF0431E03093040420930304F5
:102970001092020410920104DC01ED91FC9101908F
:10298000F081E02D60E40995EE24E394F12CDD2440
:10299000D3948091CB049091CC040C171D0709F4BB
:1029A0004FC0B0E2EB16F104D8F00E94F210809113
:1029B000CB049091CC042091CF04D09204042093B6
:1029C00003041092020410920104DC01ED91FC91C9
:1029D0000190F081E02D60E40995EE24E394F12C60
:1029E0008091CB049091CC046991DC01ED91FC9134
:1029F0000190F081E02D0995BFEFEB1AFB0AC9CFDA
:102A00008091C9049091CA04892B31F08091EC0423
:102A10009091ED040E940E0AE091DD04F091DE0435
:102A200090818091E2048095892380835CCF60E06F
:102A30008EEA94E00E948E126091B204615068CFD9
:102A40000E94F2108091CB049091CC04892B09F460
:102A500061C02091E7043091E8044091E90450916D
:102A6000EA0460E074E284EF90E00E949F1D205130
:102A70003109410951095695479537952795209376
:102A8000B800DF91CF911F910F91FF90EF90DF90F1
:102A90000895E091DB04F091DC0480819091E104E1
:102AA000892B80830C171D0769F289912091C90435
:102AB0003091CA04232B19F00E94070AF3CF28E0B3
:102AC00030E040E8E091D704F091D8049091DF0421
:102AD000582F5423D9F05081952B9083E091D9043D
:102AE000F091DA0490815091E004952B9083E0916D
:102AF000D904F091DA0450819091E00490959523E7
:102B00009083469521503109E9F6CCCF50819095BC
:102B10009523E3CFE091DD04F091DE048081909174
:102B2000E204892B8083ADCF85ED8093BC0080913A
:102B3000790390917A03A0917B03B0917C0307966F
:102B4000A11DB11D23E0B695A795979587952A9568
:102B5000D1F72091BC0024FD03C01092C203089558
:102B60004091790350917A0360917B0370917C03CB
:102B7000452B462B472B69F30097A105B10541F082
:102B80002AE22A95F1F700C00197A109B109E1CF26
:102B9000809178030C944C101F920F920FB60F92F5
:102BA00011242F933F938F939F93AF93BF93809163
:102BB000F9039091FA03A091FB03B091FC033091CB
:102BC000F80323E0230F2D3758F50196A11DB11D01
:102BD0002093F8038093F9039093FA03A093FB03E7
:102BE000B093FC038091FD039091FE03A091FF033D
:102BF000B09100040196A11DB11D8093FD03909337
:102C0000FE03A093FF03B0930004BF91AF919F9187
:102C10008F913F912F910F900FBE0F901F9018959D
:102C200026E8230F0296A11DB11DD2CF1F920F924D
:102C30000FB60F9211242F933F934F935F936F938F
:102C40007F938F939F93AF93BF93EF93FF9385E011
:102C500094E00E942107FF91EF91BF91AF919F9166
:102C60008F917F916F915F914F913F912F910F9035
:102C70000FBE0F901F9018951F920F920FB60F92D4
:102C800011242F938F939F93EF93FF93E09115045B
:102C9000F09116048081E0911B04F0911C0482FDE8
:102CA0001BC0908180911E048F5F8F7320911F0441
:102CB000821741F0E0911E04F0E0EB5FFB4F958F2F
:102CC00080931E04FF91EF919F918F912F910F9010
:102CD0000FBE0F901F9018958081F4CF1F920F9216
:102CE0000FB60F9211242F933F934F935F936F93DF
:102CF0007F938F939F93AF93BF93EF93FF938091B5
:102D0000B900887F803609F44AC0F0F5883209F4AA
:102D1000A7C018F5803109F49BC0B8F4882309F4E2
:102D2000F9C0883009F494C0FF91EF91BF91AF9141
:102D30009F918F917F916F915F914F913F912F91D3
:102D40000F900FBE0F901F901895883109F488C01E
:102D5000803251F78093C10314C0803409F49DC0C0
:102D600040F48033B9F38833F9F68093C10385ECDE
:102D7000B0C0803509F485C0883509F496C0883420
:102D800099F60E949415D0CF883909F48CC038F593
:102D9000883729F050F4883611F0803729F683E01F
:102DA0008093C2031092C00357C0883809F47BC0D7
:102DB000803919F0803809F0B7CF8091C003803294
:102DC00008F071C0E091C00381E08E0F8093C003D2
:102DD0008091BB00F0E0E056FC4F80833DC0803B1B
:102DE00039F0E0F4803A09F479C0883A09F09CCFD0
:102DF00084E08093C20310929F0310929E03E0919F
:102E0000EB03F091EC03099580919E0381110FC0B3
:102E100081E080939E0310927E0309C0803C09F4F8
:102E2000A6CF883C09F4A3CF883B09F07DCFE09181
:102E30009F0381E08E0F80939F03F0E0E258FC4FE8
:102E400080818093BB0090919F0380919E0329C055
:102E50008091E7038093BB0085EC8093BC0064CF36
:102E60009091E6038091E503981758F5E091E60309
:102E700081E08E0F8093E603F0E0EB53FC4F8081FE
:102E8000E9CFE091E60381E08E0F8093E603809125
:102E9000BB00F0E0EB53FC4F80839091E603809100
:102EA000E5039817C8F285E8D8CFE091E60381E002
:102EB0008E0F8093E6038091BB00F0E0EB53FC4F54
:102EC00080838091C40381115CCF81E08093C30330
:102ED00084EA8093BC001092C20326CF85EC8093D5
:102EE000BC001092C2038091C003803230F4E091A4
:102EF000C003F0E0E056FC4F10826091C00370E028
:102F0000E091E903F091EA0380EA93E009951092D9
:102F1000C0030ACF1092C10334CFE5E0F4E013827E
:102F2000128248EE53E060E070E04483558366838C
:102F3000778388E791E09183808385EC90E09587A3
:102F4000848784EC90E09787868780EC90E0918B73
:102F5000808B81EC90E0938B828B82EC90E0958B60
:102F6000848B86EC90E0978B868B118E128E138E5D
:102F7000148EA2EAB4E013961C921E921297149635
:102F80004D935D936D937C9317978AE891E011962A
:102F90009C938E93EEEAF4E01382128220E830E0F4
:102FA0003583248380E290E097838683318720876E
:102FB00093878287168A158614861786168681E07F
:102FC000858B848B2FEF3FEF338B228B318B208BC4
:102FD000878B108E128E118E8CE991E09183808305
:102FE000148E138EB68FA58F10A2178E8FEF84A329
:102FF00085A386A387A380A780E89AE1A6E0B0E036
:1030000085AB96ABA7ABB0AF80EA96E8A1E0B0E0A5
:1030100081AF92AFA3AFB4AF80E586AF17AE08958E
:10302000CF93DF93CDB7DEB7E5970FB6F894DEBF49
:103030000FBECDBF789484B5826084BD84B58160B5
:1030400084BD85B5826085BD85B5816085BD809173
:103050006E00816080936E001092810080918100EB
:1030600082608093810080918100816080938100E3
:10307000809180008160809380008091B1008460A5
:103080008093B1008091B00081608093B000809106
:103090007A00846080937A0080917A0082608093C5
:1030A0007A0080917A00816080937A0080917A0022
:1030B000806880937A001092C100E0911504F0912D
:1030C000160482E08083E0911104F09112041082D2
:1030D000E0911304F09114048FEC808310921D048E
:1030E000E0911904F0911A0486E08083E0911704BE
:1030F000F0911804808180618083E0911704F09141
:103100001804808188608083E0911704F09118048E
:10311000808180688083E0911704F0911804808199
:103120008F7D808361E088E00E94190661E089E07C
:103130000E94190661E08AE00E94190661E08BE0B6
:103140000E94190662E082E00E94190662E083E0B4
:103150000E94190661E084E00E94190661E08CE09B
:103160000E94190660E084E00E94EB0560E08CE0BC
:103170000E94EB058091CD049091CE04892B09F03B
:1031800026C12091B4043091B504C901079697FD7A
:103190000796B3E095958795BA95E1F72091B2042B
:1031A0003091B304AC01429FC001439F900D529FE8
:1031B000900D11240E94101E9093CE048093CD0494
:1031C000892B09F004C11092EF0360E273E080E004
:1031D00090E00E946F066CED71E08DE192E00E943C
:1031E0001A146BEE71E085E094E00E9401140CEF7C
:1031F00018E082E00E94C205892B09F417C381E020
:1032000090E00E949F130150110999F710E00E946D
:103210008F13112309F40CC381E08093F7031092FC
:1032200001011092000161E084E00E94EB0563EF70
:1032300072E085EF91E00E941A1465EF71E085E07D
:1032400094E00E94011468EE73E080E090E00E9438
:103250006F068091F7038823D1F083E00E94C205B6
:103260009C0191E02130310509F090E09093F60344
:103270009093F3032130310509F4E3C281E0809398
:10328000F40364E272E08EE292E00E941A14412C90
:1032900088E0582E612C712C1E0152E2250E311C43
:1032A0009AE0C92ED12CE12CF12C8091F7038823D0
:1032B00009F415C483E00E94C20521E08130910524
:1032C00009F020E02093F6032091F503211108C0B6
:1032D000019731F064E272E08EE292E00E941A14EB
:1032E0008091F403882309F40DC38091F6038823A9
:1032F00009F408C38091F303811104C38091F5039D
:10330000811100C366E372E085E094E00E9401143D
:103310001092F20360E08CE00E94EB0581E090E007
:103320000E9470055C0161E572E08BE592E00E940D
:103330001A146CE672E085E094E00E94F21361E5F5
:1033400072E085E094E00E94011410E000E0C50105
:1033500001974C010A151B050CF076C281E090E044
:103360000E949F13C8016EE170E00E948B1D892BA3
:1033700019F00815190541F528E631E0D401A01B24
:10338000B10B0E94E01DA30192010E94C11D3F9359
:103390002F93EAE7F2E0FF93EF931F9244E14F93FC
:1033A00081E090E08C0F9D1F9F938F930E94411F9F
:1033B000BE016F5F7F4F81E592E00E941A140FB645
:1033C000F894DEBF0FBECDBF0F5F1F4FC3CF0E946B
:1033D000D0132091B4043091B5048091B20490913F
:1033E000B304B901213231050CF408C160547109EC
:1033F00077FF02C06F5F7F4F759567958255910982
:1034000097FD019600E410E022E530E04EE657E03B
:10341000959587950E94F80E82E08093D004809164
:10342000CB049091CC04892B09F4FBC08CE38093EE
:10343000CF041092EE031092ED031092020410924A
:1034400001040E942E1081EA96E09093EC03809391
:10345000EB0382EA96E09093EA038093E90380917C
:10346000D60487FD1EC061E00E94190661E08091CC
:10347000D6040E94EB0561E070E080E090E00E94DD
:103480006F0660E08091D6040E94EB056AE070E070
:1034900080E090E00E946F0661E08091D6040E9477
:1034A000EB058091CB049091CC04892B09F478C171
:1034B0002091E3043091E4044091E5045091E60446
:1034C00060E074E284EF90E00E949F1D205131097A
:1034D0004109510956954795379527952093B8008E
:1034E00064E08AE895E00E94D9116091B4046150CB
:1034F0008EEA94E00E948E1264E086E895E00E94D5
:10350000D9118091D00460E1813009F064E18EEA44
:1035100094E00E948E1264E082E895E00E94D91146
:103520008FE88093EB048091B2049091B3048038CB
:10353000910509F04CC18091B4049091B504803498
:10354000910509F054C18091D004813009F062C125
:103550008FE98093EB0412E16AED8EEA94E00E9419
:103560008E12612F8EEA94E00E948E1261E88EEA3C
:1035700094E00E948E126091EB048EEA94E00E9427
:103580008E1269ED8EEA94E00E948E128091D00432
:1035900062E2813009F061EF8EEA94E00E948E12BF
:1035A00066E08CE795E00E94D9118091CB04909160
:1035B000CC04892B09F430C12091E7043091E80450
:1035C0004091E9045091EA0460E074E284EF90E0F5
:1035D0000E949F1D20513109410951095695479577
:1035E000379527952093B80081E08093EF0367EC2F
:1035F00071E08FEC91E00E941A14E7CD60527109DE
:1036000077FF02C06F5F7F4F75956795835791096C
:1036100097FD019600E210E023E730E04EE855E028
:10362000F7CE61E08091D4040E94190661E0809198
:10363000D5040E9419068091D404082E000C990B21
:10364000FC01E45BF54FE491F0E0EE0FFF1FE85C56
:10365000F54F259134913093DC042093DB04FC0179
:10366000E05AF54FE491E093E1048091D504082EEF
:10367000000C990BFC01E45BF54FE491F0E0EE0FD8
:10368000FF1FE85CF54FA591B491B093DE04A093C1
:10369000DD04FC01E05AF54FE491E093E2048C91E3
:1036A000E82BEC938091C9049091CA04892B09F40A
:1036B00034C01FB7F8948091E803811127C0E6E574
:1036C000FAE08491EAE6FAE09491E82FF0E0EE0F58
:1036D000FF1FE25DF54FA591B491EC91E92321F430
:1036E00061E08AE00E94EB0561E08AE00E94190631
:1036F0008CB580618CBD8CB580648CBD61E08DE043
:103700000E94190661E08BE00E9419068091E8038F
:103710008F5F8093E8031FBFA2CE61E08091D20447
:103720000E94190661E08091D3040E9419068091DD
:10373000D204082E000C990BFC01E45BF54FE491D8
:10374000F0E0EE0FFF1FE85CF54F259134913093C8
:10375000D8042093D704FC01E05AF54FE491E0939C
:10376000DF048091D304082E000C990BFC01E45B6C
:10377000F54FE491F0E0EE0FFF1FE85CF54FA591E7
:10378000B491B093DA04A093D904FC01E05AF54F48
:10379000E491E093E0048C91E095E823EC935FCE14
:1037A0008091C9049091CA04892B31F08091EC0476
:1037B0009091ED040E940E0AE091DD04F091DE0488
:1037C00090818091E20480958923808389CE803620
:1037D000910589F48091B4049091B504409739F42F
:1037E0008091D004813029F480E18093EB0412E0D1
:1037F000B3CE8FEAFACF80349105C9F78091B40433
:103800009091B504809799F78091D004813011F49C
:1038100080E19FCE8FEC9DCEE091DD04F091DE043F
:1038200080819091E204892B8083DECE11E0EFCC81
:1038300063E072E08FE092E00E941A1466E172E0A9
:10384000FECC1092F4031DCD0E948F1381E090E016
:10385000909301018093000167E872E081E592E0B6
:103860000E941A1465E972E085E094E00E94011458
:1038700081E08093F5031092F4038AE090E00E94C7
:1038800049139093F1038093F00369EA72E085E0B5
:1038900094E00E94F2138090F0039090F103092CC1
:1038A000000CAA08BB08B7FED8C06DE285E094E022
:1038B0000E94430722273327A901281939094A09F9
:1038C0005B0919A28E010F5D1F4FCA01B901A70143
:1038D00096010E949F1D605DF80162938F01211582
:1038E00031054105510589F70115110529F0B80188
:1038F00085E094E00E94F21364EC71E085E094E0CE
:103900000E94F2138091F603882331F18091F50330
:10391000882311F185E090E00E9449132091F00383
:103920003091F103281B390B6CEB72E02233310527
:103930004CF081E08093F20361E08CE00E94EB05A3
:1039400066EB72E081E592E00E941A146AEF70E083
:1039500080E090E00E946F068091F6038111B5C06F
:103960008091F303882309F4B0C08091F503882384
:1039700009F4ABC066EC72E085E094E00E940114AB
:103980008091F203882309F47EC08AE090E00E94CF
:1039900049139093F1038093F00361EE72E08DEE92
:1039A00092E00E941A146CEB72E080E090E00E94BA
:1039B0006F068091000190910101181619060CF014
:1039C00079C00E9470055C0166EE71E083E093E0CF
:1039D0000E941A146AE073E085E094E00E940114EA
:1039E00010E000E0A501415051094A010A151B05EC
:1039F0000CF04EC08FEF9FEF0E949F13C8016EE145
:103A000070E00E948B1D892B19F00815190511F51E
:103A100028E631E0D401A01BB10B0E94E01DA301F8
:103A200092010E94C11D3F932F938AE792E09F93DA
:103A30008F931F92F4E1FF933F922F920E94411FB8
:103A4000B10181EE92E00E941A140FB6F894DEBF25
:103A50000FBECDBF0F5F1F4FC9CFA501940119A2A3
:103A60008E010F5D1F4FCA01B901A70196010E9487
:103A70009F1D605DF80162938F012115310541059D
:103A8000510589F731CF61EE72E086EF92E089CF80
:103A90000E948F13109201011092000166EE71E0F6
:103AA0008CE193E00E941A1462E273E085E094E0F6
:103AB0000E9401141092F50381E08093F40364E204
:103AC00072E08EE292E00E941A148091F6038093D5
:103AD000F30360E570E080E090E00E946F0680E014
:103AE00090E0892B09F4E1CB0E940D07882309F4AB
:103AF000DCCB0E940000D9CB8CE991E09093AF041D
:103B00008093AE048091CD049091CE04009711F083
:103B10000C94AC1E089597FB072E16F4009407D062
:103B200077FD09D00E94E71D07FC05D03EF4909573
:103B300081959F4F0895709561957F4F0895A1E2FB
:103B40001A2EAA1BBB1BFD010DC0AA1FBB1FEE1F17
:103B5000FF1FA217B307E407F50720F0A21BB30B62
:103B6000E40BF50B661F771F881F991F1A9469F7DE
:103B700060957095809590959B01AC01BD01CF013A
:103B80000895052E97FB1EF400940E94D81D57FD42
:103B900007D00E949F1D07FC03D04EF40C94D81D43
:103BA00050954095309521953F4F4F4F5F4F089569
:103BB00090958095709561957F4F8F4F9F4F089599
:103BC0000E94011EB7FF0895821B930B0895AA1B44
:103BD000BB1B51E107C0AA1FBB1FA617B70710F0F8
:103BE000A61BB70B881F991F5A95A9F7809590952A
:103BF000BC01CD010895EE0FFF1F0590F491E02D5B
:103C00000994A29FB001B39FC001A39F700D811DB5
:103C10001124911DB29F700D811D1124911D0895D5
:103C20000F931F93CF93DF938230910510F482E0BE
:103C300090E0E091F004F091F10430E020E0B0E099
:103C4000A0E0309799F42115310509F44AC0281BEA
:103C5000390B24303105D8F58A819B8161157105B6
:103C600089F1FB0193838283FE0111C04081518160
:103C70000281138148175907E0F04817590799F452
:103C8000109761F012960C93129713961C9332962C
:103C9000CF01DF91CF911F910F9108950093F00410
:103CA0001093F104F4CF2115310551F04217530759
:103CB00038F0A901DB019A01BD01DF01F801C1CF94
:103CC000EF01F9CF9093F1048093F004CDCFFE0182
:103CD000E20FF31F81939193225031093983288396
:103CE000D7CF2091EE043091EF04232B41F42091A3
:103CF0000401309105013093EF042093EE042091EC
:103D00000201309103012115310541F42DB73EB771
:103D10004091060150910701241B350BE091EE0400
:103D2000F091EF04E217F307A0F42E1B3F0B2817C6
:103D3000390778F0AC014E5F5F4F2417350748F024
:103D40004E0F5F1F5093EF044093EE0481939193C5
:103D50009FCFF0E0E0E09CCFCF93DF930097E9F0B6
:103D6000FC01329713821282A091F004B091F10409
:103D7000ED0130E020E01097A1F420813181820F25
:103D8000931F2091EE043091EF042817390709F0B2
:103D900061C0F093EF04E093EE04DF91CF910895BA
:103DA000EA01CE17DF07E8F54A815B819E014115E4
:103DB0005105B1F7E901FB83EA8349915991C40F99
:103DC000D51FEC17FD0761F4808191810296840F65
:103DD000951FE90199838883828193819B838A83DC
:103DE000F0E0E0E012968D919C9113970097B9F561
:103DF0002D913C911197CD010296820F931F209136
:103E0000EE043091EF042817390739F6309751F551
:103E10001092F1041092F004B093EF04A093EE041A
:103E2000BCCFD383C28340815181840F951FC817B3
:103E3000D90761F44E5F5F4F88819981480F591F00
:103E4000518340838A819B8193838283211531052D
:103E500009F0B0CFF093F104E093F0049ECFFD01A0
:103E6000DC01C0CF13821282D7CF81E090E0F894BA
:103E70000C942622DC0101C06D9341505040E0F7C4
:103E80000895AEE0B0E0E7E4FFE10C94FD210D8978
:103E90001E898F89988D26E02C831A83098397FFCA
:103EA00002C080E090E801979E838D83AE01455E5D
:103EB0005F4F698D7A8DCE0101960E94711F4D81F1
:103EC0005E8157FD0AC02F813885421753070CF4D5
:103ED0009A01020F131FF80110822E96E4E00C9451
:103EE0001922ABE0B0E0E7E7FFE10C94EF217C01A1
:103EF0003B018A01FC0117821682838181FFC8C1C0
:103F0000CE0101965C01F7019381F30193FD859148
:103F100093FF81913F01882309F453C1853239F41D
:103F200093FD859193FF81913F01853229F4B7017B
:103F300090E00E946121E7CF912C212C312CFFE1F0
:103F4000F31538F08B3211F190F4803209F183329D
:103F500029F137FC3CC020ED280F2A3050F536FE01
:103F600020C08AE0989E200D1124922E06C08D322A
:103F700091F0803371F7689430F8F30193FD8591E7
:103F800093FF81913F018111DACF21C0689431F80C
:103F9000689432F8F2CF689433F8EFCF689434F82D
:103FA000ECCFEAE02E9E200D1124222E689435F8E5
:103FB000E4CF8E3229F436FC04C1689436F8DDCFA4
:103FC0008C3619F4689437F8D8CF8836B1F2982F28
:103FD0009F7D95549330E0F08336A1F18337C1F192
:103FE000833509F063C02801F2E04F0E511CF8013F
:103FF000C080D180692D70E036FC02C06FEF7FEF8A
:10400000C6010E944B214C01689437F882010AC016
:104010000C5F1F4FFFE3F98388248394912C650183
:10402000E89437F833FE2DC0522C8114910471F5B9
:10403000552009F468CFB70180E290E00E94612129
:104040005A94F6CFF801808189830E5F1F4FE4CF29
:104050002801F2E04F0E511CF801C080D180692D7B
:1040600070E036FC02C06FEF7FEFC6010E94562160
:104070004C018201D5CFB70180E290E00E9461211E
:104080002A942814190409F0B0F7CECFF60137FCB2
:10409000859137FE81916F01B70190E00E94612107
:1040A00051105A94F1E08F1A9108BFCF843619F05D
:1040B000893609F077C0F80137FE6BC060817181E5
:1040C000828193810C5F1F4FF32DFF763F2E97FF68
:1040D00009C090958095709561957F4F8F4F9F4F48
:1040E000689437F82AE030E0A5010E949121C82E9B
:1040F000CA188C2C432C36FE0CC0E89440F8C91426
:1041000040F434FE05C032FC03C0F32DFE7E4F2E7A
:10411000892C44FE95C0FE01EC0DF11D8081803399
:1041200009F087C0242D297E422E842D8870582EB8
:1041300043FC95C040FE8FC09C2C821418F42C0CBC
:10414000922C981844FE91C0B70180E390E00E9441
:10415000612142FE09C088E790E041FE02C088E587
:1041600090E0B7010E946121C91408F48AC0CA9482
:10417000D12C9FEFC91AD90ACA0CDB1CF601829117
:104180006F01B70190E00E946121AC14BD04B1F74A
:104190004FCF60817181072E000C880B990B0E5F49
:1041A0001F4F92CFD32CE894D4F82AE030E0853723
:1041B00039F1232D297FD22E8F3601F148F488352D
:1041C000A9F0F701868197812B96E2E10C940B22EE
:1041D000803749F08837A9F7D4FE02C06894D2F836
:1041E00020E130E00DC06894D4F8F6CF34FE03C06F
:1041F000822F8660D82E20E132E002C028E030E035
:10420000F801D7FE0FC060817181828193810C5FBC
:104210001F4FA5010E949121C82ECA183D2CE89479
:1042200037F867CF6081718190E080E00E5F1F4FAB
:10423000F0CF42FC02C0839478CF8394839475CFEF
:10424000842D867809F471CFF6CFB70180E290E033
:104250000E94612183948214C0F3512C73CF522C9D
:104260005818821408F46ECFF8CF842D867809F49C
:104270007BCF8BE241FE80E247FC8DE2B70190E00C
:1042800071CFB70180E390E00E9461219A946CCFD6
:104290008FEF9FEF99CFFC010590615070400110A6
:1042A000D8F7809590958E0F9F1F0895FC0161505F
:1042B000704001900110D8F7809590958E0F9F1F48
:1042C00008950F931F93CF93DF93182F092FEB01BE
:1042D0008B8181FD09C01FEF0FEF812F902FDF91A0
:1042E000CF911F910F91089582FF14C02E813F81BD
:1042F0008C819D81281739073CF4E881F981CF0131
:1043000001969983888310838E819F8101969F8374
:104310008E83E3CFE885F985812F0995892BA1F359
:10432000DACFFA01AA27283051F1203181F1E8943F
:104330006F936E7F6E5F7F4F8F4F9F4FAF4FB1E098
:104340003ED0B4E03CD0670F781F891F9A1FA11D93
:10435000680F791F8A1F911DA11D6A0F711D811D94
:10436000911DA11D20D009F468943F912AE0269F59
:1043700011243019305D3193DEF6CF010895462FB8
:104380004770405D4193B3E00FD0C9F7F6CF462F99
:104390004F70405D4A3318F0495D31FD4052419302
:1043A00002D0A9F7EACFB4E0A695979587957795BF
:1043B0006795BA95C9F700976105710508959B0146
:1043C000AC010A2E06945795479537952795BA95CF
:1043D000C9F7620F731F841F951FA01D08952F92A8
:1043E0003F924F925F926F927F928F929F92AF9285
:1043F000BF92CF92DF92EF92FF920F931F93CF93D2
:10440000DF93CDB7DEB7CA1BDB0B0FB6F894DEBF68
:104410000FBECDBF09942A88398848885F846E848E
:104420007D848C849B84AA84B984C884DF80EE80D8
:10443000FD800C811B81AA81B981CE0FD11D0FB6E1
:10444000F894DEBF0FBECDBFED01089515E0C5E4C1
:10445000D5E004C0FE010E94FB1D2196C634D107A1
:06446000C9F7F894FFCF3C
:10446600FFFF0000F20480000100000000000000D1
:104476000100010000000000000001000000000033
:104486000000010001000000000000000100000023
:104496000000000001000100000000000000010013
:1044A60001000000000001005D005D005D005D0090
:1044B6005D005D005D005D005D005D005E005D000D
:1044C6005D005D005D005D005D005D005D005D00FE
:1044D6005D005E00000000004307A306D0069007BB
:1044E6000107DF06F30600000000C310961046130E
:1044F60098058F107C106D10000000004C0CA30670
:104506004613061057099805F10EC90EE50ED90E89
:10451600590F9805120AF012C7081009120EF50D68
:104526007D0D1E0D0D0A00496E69742E2E2E004D4E
:1045360065646963696E6520426F780052656368D9
:10454600657263686520504F533000486F6D696E21
:10455600672E2E2E00504F533020646574656374A9
:104566006565005265656420616273656E74004519
:1045760052524555520045525245555220484F4DCC
:10458600494E47006F7576657274757265004174A1
:1045960074656E7465004576656E656D656E74202E
:1045A6006F75766572747572652076616C6964657F
:1045B600004C756E206D6174696E00436F7576658B
:1045C60072636C65206F757665727400416C6C65FC
:1045D600722076657273203A2000526573746520E6
:1045E60025642064656700417474656E7465207087
:1045F6007269736500436F6D70617274696D656E83
:10460600742061727269766500506F6964732072F6
:104616006566203D20005052495345004E6F6E207E
:104626007072697365004576656E656D656E74209A
:104636006665726D65747572652076616C69646510
:10464600005265746F757220504F53300050726976
:104656007365204F4B00417563756E6520707269F6
:104666007365005265746F7572005265746F75726A
:1046760020706F736974696F6E2030005265706FB9
:1046860073005265746F757220504F5330207465F5
:06469600726D696E650003
:00000001FF
