:020000040000FA
:100000000C94A0050C94C8050C94C8050C94C80564
:100010000C94C8050C94C8050C94C8050C94C8052C
:100020000C94C8050C94C8050C94C8050C94C8051C
:100030000C94C8050C94C8050C94C8050C94C8050C
:100040000C9411170C94C8050C9481170C945B1731
:100050000C94C8050C94C8050C94C8050C94C805EC
:100060000C94B3170C94C8052200FF210000000077
:10007000003E5B4F5B3E3E6B4F6B3E1C3E7C3E1C2E
:10008000183C7E3C181C577D571C1C5E7F5E1C0074
:10009000183C1800FFE7C3E7FF0018241800FFE72B
:1000A000DBE7FF30483A060E2629792926407F05EE
:1000B0000507407F05253F5A3CE73C5A7F3E1C1C04
:1000C00008081C1C3E7F14227F22145F5F005F5FC4
:1000D00006097F017F006689956A606060606094B0
:1000E000A2FFA29408047E040810207E20100808B5
:1000F0002A1C08081C2A08081E101010100C1E0CC0
:100100001E0C30383E3830060E3E0E060000000051
:100110000000005F00000007000700147F147F1438
:10012000242A7F2A1223130864623649562050007D
:1001300008070300001C2241000041221C002A1C69
:100140007F1C2A08083E0808008070300008080854
:100150000808000060600020100804023E51494574
:100160003E00427F400072494949462141494D3392
:100170001814127F1027454545393C4A49493141F9
:10018000211109073649494936464949291E0000C7
:10019000140000004034000000081422411414141C
:1001A0001414004122140802015909063E415D5908
:1001B0004E7C1211127C7F494949363E4141412211
:1001C0007F4141413E7F494949417F090909013E3B
:1001D000414151737F0808087F00417F4100204062
:1001E000413F017F081422417F404040407F021C74
:1001F000027F7F0408107F3E4141413E7F0909098B
:10020000063E4151215E7F09192946264949493256
:1002100003017F01033F4040403F1F2040201F3F1C
:100220004038403F631408146303047804036159A1
:10023000494D43007F4141410204081020004141E3
:10024000417F04020102044040404040000307088F
:100250000020545478407F2844443838444444288B
:10026000384444287F385454541800087E09021832
:10027000A4A49C787F0804047800447D40002040BA
:10028000403D007F1028440000417F40007C0478FE
:1002900004787C080404783844444438FC18242446
:1002A0001818242418FC7C080404084854545424C6
:1002B00004043F44243C4040207C1C2040201C3C43
:1002C0004030403C44281028444C9090907C44643A
:1002D000544C4400083641000000770000004136CD
:1002E000080002010204023C2623263C1EA1A16153
:1002F000123A4040207A3854545559215555794185
:100300002254547842215554784020545579400C59
:100310001E5272123955555559395454545939553C
:100320005454580000457C410002457D420001457F
:100330007C407D1211127DF0282528F07C54554513
:10034000002054547C547C0A097F4932494949327F
:100350003A4444443A324A4848303A4141217A3A90
:1003600042402078009DA0A07D3D4242423D3D405C
:1003700040403D3C24FF2424487E4943662B2FFC0B
:100380002F2BFF0929F620C0887E090320545479B9
:10039000410000447D413048484A32384040227A8A
:1003A000007A0A0A727D0D19317D2629292F282607
:1003B0002929292630484D4020380808080808080F
:1003C0000808382F10C8ACBA2F102834FA00007B68
:1003D000000008142A142222142A1408550055007B
:1003E00055AA55AA55AAFF55FF55FF000000FF006A
:1003F000101010FF00141414FF001010FF00FF1065
:1004000010F010F0141414FC001414F700FF000096
:10041000FF00FF1414F404FC141417101F10101F15
:10042000101F1414141F00101010F0000000001F03
:10043000101010101F10101010F010000000FF100E
:100440001010101010101010FF10000000FF14000A
:1004500000FF00FF00001F10170000FC04F414143C
:100460001710171414F404F40000FF00F714141408
:1004700014141414F700F7141414171410101F1088
:100480001F141414F4141010F010F000001F101FAB
:100490000000001F14000000FC140000F010F01019
:1004A00010FF10FF141414FF141010101F00000090
:1004B00000F010FFFFFFFFFFF0F0F0F0F0FFFFFF94
:1004C0000000000000FFFF0F0F0F0F0F38444438EB
:1004D00044FC4A4A4A347E02020606027E027E023A
:1004E00063554941633844443C04407E201E200645
:1004F000027E020299A5E7A5991C2A492A1C4C7282
:1005000001724C304A4D4D303048784830BC625A08
:10051000463D3E494949007E0101017E2A2A2A2A98
:100520002A44445F444440514A444040444A514074
:100530000000FF0103E080FF000008086B6B083635
:1005400012362436060F090F0600001818000000A6
:100550001010003040FF0101001F01011E00191D95
:100560001712003C3C3C3C00000000000001030767
:100570000F1F3F7F0080C0E0F0F8FCFEDB40A4A628
:100580002EAF2000A1C8D300408DAED580A80000BA
:10059000600000000000000000000000000000E01B
:1005A0000000000000000000000000000001E0006A
:1005B00000000000000000000000000001F000004A
:1005C000000000000000000000000003F000000038
:1005D0000000000000000000000007F00000000024
:1005E00000000000000000000007F800000000000C
:1005F00000000000000000000FF800000003C00031
:100600007E000001E0007F0FF800000003C000FE44
:10061000000001E000FFEFF800000003C000FE0052
:100620000001E000FFFFF800000003C000F0000040
:10063000000F007FFE7FC0000003C000F00000003C
:100640000F003FFE7FF83FF1FBCFFCFEF3BC3DEF18
:10065000E01FFE7FFF7FFBFFDFFEFEFFBC3DEFE004
:100660001FC6FFFF7FFBFFDFFEFEFFBC3DEFE00F7D
:10067000E3C7FE787BC3DE1EF0FFBC3DEF0007FF43
:1006800087FC787BC3DE1EF0F83C3DEF0001FFFFE6
:10069000F0007BC3C01EF0F03C3DEF0001F37FE0B3
:1006A0003FFBC3CFFEF0F03C3DEF0003E33F807F14
:1006B000FBC3DFFEF0F03C3DEF0007E73C00787B3A
:1006C000C3DE1EF0F03C3DEF0007FFBE00787BC3A9
:1006D000DE1EF0F03C3DEF0007FFFE00787BC3DE3E
:1006E0001EF0F03C3DEF000FFFFE007FFBFFDFFE42
:1006F000F0F03FFDEFE00FFFFF007FFBFFDFFEF0BC
:10070000F03FFDEFE00FF9FF003E79F9CF9EF0F0EA
:100710001F3DE7E01FF1FF000000000000000000A7
:100720000000001F80FF007FFFFFFFFFFFFFFFFFB4
:10073000FFE01C007F007FFFFFFFFEB46D888D1877
:10074000E000001F007FFFFFFFFE95AD7DB577E065
:1007500000000F007FFFFFFFFEA5AD9D8D19E0009B
:100760000006007FFFFFFFFEB5ADEDB57EE00000A7
:100770000000000180000000000000000000038075
:1007800000000000000000000007C00000000000A2
:100790000000000007C00000000000000000000F83
:1007A000C00000000000000000001FE0000000008A
:1007B00000000000001FE00000000000000000003A
:1007C0003FE00000000000000000003FF0000000DB
:1007D0000000000000007FF0000000000000001F8B
:1007E000F87FF0000000000000003FFE7FF00000F6
:1007F00000000000003FFF7FF0000000000000004C
:100800001FFFFBE0000000000000000FFFF9FFC029
:100810000000000000000FFFF9FFF80000000000DA
:100820000007FFF1FFFF00000000000003FC73FF62
:10083000FF80000000000001FE3FFFFF800000007D
:10084000000000FF1E0FFF000000000000007FFE00
:100850001FFC000000000000003FFFFFF800000048
:10086000000000000FDFFFE0000000000000001F9C
:1008700019FFC0000000000000003F3CFF00000026
:1008800000000000007E7CF8000000000000000076
:100890007FFE7C0000000000000000FFFFFC000065
:1008A000000000000000FFFFFE000000000000004C
:1008B00000FFFFFE0000000000000001FFEFFE004F
:1008C00000000000000001FFCFFE0000000000005B
:1008D0000003FF07FE0000000000000003FC07FE0D
:1008E0000000000000000003F003FE000000000014
:1008F0000000018000FE0000000000000000000079
:100900007E000000000000000000003E000000002B
:100910000000000000000C00000000000007800044
:10092000FC000003C0000000078001FC000003C0C1
:10093000000000078001FC000003C00000000780E9
:1009400001E00000001E000000078001E000000040
:100950001E007FE3F79FF9FDE7787BDFC0FFF7FF1D
:10096000BFFDFDFF787BDFC0FFF7FFBFFDFDFF7818
:100970007BDFC0F0F787BC3DE1FF787BDE00F0F75E
:1009800087BC3DE1F0787BDE0000F787803DE1E049
:10099000787BDE007FF7879FFDE1E0787BDE00FF5C
:1009A000F787BFFDE1E0787BDE00F0F787BC3DE133
:1009B000E0787BDE00F0F787BC3DE1E0787BDE008D
:1009C000F0F787BC3DE1E0787BDE00FFF7FFBFFD7D
:1009D000E1E07FFBDFC0FFF7FFBFFDE1E07FFBDF72
:1009E000C07CF3F39F3DE1E03E7BCFC00000000000
:1009F00000000000000000FFFFFFFFFFFFFFFFFF00
:100A0000FFC0FFFFFFFFFD68DB111A31C0FFFFFFD2
:100A1000FFFD2B5AFB6AEFC0FFFFFFFFFD4B5B3B67
:100A20001A33C0FFFFFFFFFD6B5BDB6AFDC03D3D7E
:100A30003D3D3D3D3D3D3D3D3D3D3D3D3D3D3D3DE6
:100A40003D3D3D3D3D3D3D3D3D3D3D3D3D3D3D0013
:100A50004F4C45442073756974206C657320657430
:100A60006170657300426F75746F6E73206163749B
:100A700069667320736920636F75766572636C6550
:100A80002048494748004D6F64652072656D706C61
:100A9000697373616765206469726563742061635B
:100AA000746966004D45444943494E4520424F58BC
:100AB000202D2074657374206C6F676971756500F3
:100AC0003D3D3D3D3D3D3D3D3D3D3D3D3D3D3D3D56
:100AD0003D3D3D3D3D3D3D3D3D3D3D3D3D3D3D3D46
:100AE0003D0000000000240027002A000000000054
:100AF000250028002B00000000002300260029000C
:100B000004040404040404040202020202020303B3
:100B100003030303010204081020408001020408BB
:100B2000102001020408102000000008000201004B
:100B3000000304070000000000000000D2185C1E43
:100B400011241FBECFEFD8E0DEBFCDBF14E0A0E080
:100B5000B1E0E6E2F6E402C005900D92AE31B107D5
:100B6000D9F726E0AEE1B4E001C01D92AC30B20787
:100B7000E1F715E0CFE9D5E004C02197FE010E941E
:100B8000DB1ECE39D107C9F70E9455190C940623F4
:100B90000C9400000895833081F028F4813099F09E
:100BA0008230A9F008958730A9F08830C9F08430E8
:100BB000B1F4809180008F7D03C0809180008F7799
:100BC00080938000089584B58F7784BD089584B59F
:100BD0008F7DFBCF8091B0008F778093B000089518
:100BE0008091B0008F7DF9CFCF93DF93282F30E035
:100BF000F901E85DF44F8491F901EC5EF44FD49172
:100C0000F901E050F54FC491CC23A1F081110E946D
:100C1000CB05EC2FF0E0EE0FFF1FEA50F54FA5914A
:100C2000B491EC91ED2381E090E009F480E0DF9154
:100C3000CF91089580E090E0FACF1F93CF93DF9398
:100C4000282F30E0F901E85DF44F8491F901EC5E62
:100C5000F44FD491F901E050F54FC491CC23A9F0A1
:100C6000162F81110E94CB05EC2FF0E0EE0FFF1F35
:100C7000E451F54FA591B4918FB7F894EC9111110F
:100C800008C0D095DE23DC938FBFDF91CF911F91F9
:100C90000895DE2BF8CFCF93DF9390E0FC01EC5E5C
:100CA000F44F24918050954FFC0184918823C9F022
:100CB00090E0880F991FFC01EE51F54FA591B4917A
:100CC000FC01E451F54FC591D49161110DC09FB75E
:100CD000F8948C91209582238C93888128232883F3
:100CE0009FBFDF91CF910895623051F49FB7F89480
:100CF0003C91822F809583238C93E8812E2BEFCF1C
:100D00008FB7F894EC912E2B2C938FBFEACF3FB77F
:100D1000F8948091170590911805A0911905B0914C
:100D20001A0526B5A89B05C02F3F19F00196A11DF5
:100D3000B11D3FBFBA2FA92F982F8827BC01CD0125
:100D4000620F711D811D911D42E0660F771F881F84
:100D5000991F4A95D1F708958F929F92AF92BF92B3
:100D6000CF92DF92EF92FF924B015C010E948706C7
:100D70006B017C010E9487066C197D098E099F0911
:100D8000683E734081059105A8F321E0821A91081D
:100D9000A108B10888EEC80E83E0D81EE11CF11C42
:100DA00081149104A104B10429F7FF90EF90DF9022
:100DB000CF90BF90AF909F908F9008952FB7F894E9
:100DC0006091130570911405809115059091160599
:100DD0002FBF089508950895AF92BF92CF92DF92EA
:100DE000EF92FF920F931F93CF93DF936C017B01E0
:100DF0008B01040F151FEB015E01AE18BF08C01771
:100E0000D10759F06991D601ED91FC910190F081E3
:100E1000E02DC6010995892B79F7C501DF91CF91A6
:100E20001F910F91FF90EF90DF90CF90BF90AF9008
:100E30000895FC01538D448D252F30E0842F90E0E0
:100E4000821B930B541710F0CF96089501970895C5
:100E5000FC01918D828D981761F0A28DAE0FBF2F8E
:100E6000B11D5D968C91928D9F5F9F73928F90E0E4
:100E700008958FEF9FEF0895FC01918D828D981753
:100E800031F0828DE80FF11D858D90E008958FEF90
:100E90009FEF0895FC01918D228D892F90E0805C59
:100EA0009F4F821B91098F73992708958FE195E0D9
:100EB0000E944A0721E0892B09F420E0822F08953F
:100EC00080E090E0892B29F00E94560781110C9454
:100ED00000000895FC01A48DA80FB92FB11DA35ADD
:100EE000BF4F2C91848D90E001968F739927848F4A
:100EF000A689B7892C93A089B1898C91837080646D
:100F00008C93938D848D981306C00288F389E02D0D
:100F100080818F7D80830895EF92FF920F931F93BE
:100F2000CF93DF93EC0181E0888F9B8D8C8D98139C
:100F30001AC0E889F989808185FF15C09FB7F894A8
:100F4000EE89FF896083E889F989808183708064F4
:100F500080839FBF81E090E0DF91CF911F910F913F
:100F6000FF90EF900895F62E0B8D10E00F5F1F4F4E
:100F70000F731127E02E8C8D8E110CC00FB607FC5D
:100F8000FACFE889F989808185FFF5CFCE010E94EB
:100F90006A07F1CFEB8DEC0FFD2FF11DE35AFF4FE8
:100FA000F0829FB7F8940B8FEA89FB898081806279
:100FB000CFCFCF93DF93EC01888D8823B9F0AA8936
:100FC000BB89E889F9898C9185FD03C0808186FD04
:100FD0000DC00FB607FCF7CF8C9185FFF2CF808153
:100FE00085FFEDCFCE010E946A07E9CFDF91CF9157
:100FF0000895EF92FF920F931F93CF93DF93EC012D
:10100000EC80FD806E157F050CF070C057FF04C0AA
:10101000240F351F50E040E08E819F81FA01E20FDE
:10102000F31F8E179F071CF49C01241B350B12160F
:1010300013060CF05BC0922F842F869586958695BB
:101040008E9DD0018F9DB00D11246A0F7B1FAF8D37
:10105000B8A1A60FB71F477049F188E0841B482F3D
:10106000682F70E0FB01EC58FA4FE491281708F064
:1010700063C0621B71092FEF30E002C035952795E0
:101080006A95E2F7E2230130110539F0B0F1023040
:10109000110561F58C91E82702C08C91E82BEC9347
:1010A000941720F12C813D81A20FB31FE92FE41B7F
:1010B000E83078F00230110521F58E2F9C91909543
:1010C0009C932C813D81A20FB31F88508830B0F7CC
:1010D000E770EE2359F0F0E0E459FA4FE491013063
:1010E0001105F9F010F10230110519F1DF91CF91DE
:1010F0001F910F91FF90EF900895E0958C91E82358
:10110000CECF81E00115110509F480E081959E2F75
:101110008C932C813D81A20FB31F98509830C0F75B
:10112000D7CF8C91E82BEC93E1CFE0958C91E8231D
:10113000FACF8C91E827F7CF0130110509F4ADCF34
:10114000E0F20230110509F4A5CFAE0DBF1DAECF00
:101150000F931F93CF93DF9377FF04C0260F371FA2
:1011600070E060E0DC011496CD91DC91FB01E20FB0
:10117000F31FCE17DF071CF49E01261B370B121638
:1011800013064CF5FA0157FD3796A3E0F595E79560
:10119000AA95E1F7EC9FD001ED9FB00DFC9FB00D3B
:1011A00011246A0F7B1FDC015F96ED91FC91E60F25
:1011B000F71F4770552781E090E001C0880F4A95DE
:1011C000EAF7482F0130110559F0A8F02E0F3F1F04
:1011D00002301105E1F0DF91CF911F910F91089539
:1011E0002E0F3F1FE217F307B1F38191DF01119733
:1011F000842B8C93F7CF80952E0F3F1FE217F307B8
:1012000051F39191DF01119798239C93F7CFE21747
:10121000F30709F38191DF01119784278C93F7CFAE
:101220000F931F93FA01DC0156964C91569742306A
:10123000E9F04330A1F1413061F514964D915C9194
:10124000DA01AE1BBF0BFD01E21BF30B77FD0BC0F8
:10125000DC0116964D915C916417750724F4AB017F
:10126000BF010E94A8081F910F91089514964D91F7
:101270005C91DA01A61BB70BBD0161507109DC015D
:1012800016964D915C91DA01AE1BBF0BFD01E21B7E
:10129000F30B77FDE8CFAF010E94F907E4CF169674
:1012A0004D915C91DA01A61BB70BBD01615071092C
:1012B000CDCF0F931F93FA01DC0156964C915697B0
:1012C0004230A9F0433091F1413019F514964D9117
:1012D0005C91DA01AE1BBF0BFD013197F7FD04C035
:1012E000AB01BF010E94F9071F910F910895149659
:1012F0004D915C91DA01A61BB70BBD01DC0116967E
:101300004D915C91DA01AE1BBF0BFD013197621B61
:10131000730BF7FDE9CFDC0116964D915C91E41754
:10132000F50714F7AF010E94A808DECF16964D917D
:101330005C91DA01A61BB70BBD01621B730BCECF0C
:10134000FC0177FD64C080859185681779070CF0F2
:101350005EC057FD5CC082859385481759070CF025
:1013600056C086898230B1F0833029F1813041F452
:1013700084819581841B950BAB01BC01615071097F
:101380002130310509F108F443C02230310509F458
:1013900063C0089584819581DC01A61BB70BBD0154
:1013A0006150710986819781DC01A41BB50BAD01E9
:1013B00041505109E5CF86819781861B970BBA0171
:1013C000AC0141505109DCCFCA0157FD0796A3E09B
:1013D00095958795AA95E1F7A481B5818A9F90019B
:1013E0008B9F300D9A9F300D1124620F731F078C55
:1013F000F0A1E02DE60FF71F4770552721E030E000
:1014000001C0220F4A95EAF78081822B80830895DC
:10141000CA0157FD079633E0959587953A95E1F710
:10142000A481B5818A9F90018B9F300D9A9F300DCA
:101430001124620F731F078CF0A1E02DE60FF71F38
:101440004770552781E090E001C0880F4A95EAF780
:10145000809590818923DACFCA0157FD079623E052
:10146000959587952A95E1F7A481B5818A9F90018A
:101470008B9F300D9A9F300D1124620F731F078CC4
:10148000F0A1E02DE60FF71F4770552721E030E06F
:1014900001C0220F4A95EAF780818227B7CF0895CD
:1014A0008EBD00000DB407FEFDCF8EB508958CBD36
:1014B0009DBD08950895FC016370668B84819581BC
:1014C00026813781613039F0633029F09187808738
:1014D00033872287089531872087938782870895ED
:1014E0002F923F924F925F926F927F928F929F9234
:1014F000AF92BF92CF92DF92EF92FF920F931F9322
:10150000CF93DF93CDB7DEB76A970FB6F894DEBFFF
:101510000FBECDBF9A8F898F7A8369834A01D22EFD
:1015200018870F833701BC2CDC0159962D913C9113
:101530005A972115310509F015C118968D919C9186
:101540001997681779070CF0D7C11A968D919C915D
:10155000481759070CF0D0C14C2C512CB6E0CB9E4B
:10156000600D711D11247C876B87161617060CF011
:10157000C3C1EA2DF0E0FA87E98793E0EE0FFF1F81
:101580009A95E1F7F88BEF87CF01840F951F181616
:1015900019060CF0B1C1A98DBA8D58968C918111A4
:1015A00004C0BFEABD1508F4D394A98DBA8DED919E
:1015B000FC9111970284F385E02DCD010995B5E0EA
:1015C000DB9EC0011124E981FA81FC83EB83312C7D
:1015D000212C9C0124593F4F388F2F8B4A2D50E0EE
:1015E0005E8B4D8BEF89F88DE20DF31D44919E8249
:1015F0008D82D12CC12C69817A81620D731D7A8B09
:10160000698B842F90E09C8B8B8BE98DFA8DA08168
:10161000B18140FF82C0F1E0BF126FC0AF126DC058
:101620001C96ED91FC912F813885A4014C0D5D1D18
:1016300069897A89898D9A8D0995EB89FC89F59557
:10164000E7954E2F5FEFC51AD50A6D817E818D8992
:101650009E89680F791F7E836D8398E0C916D10437
:1016600081F6AFEF2A1A3A0AEB81FC81E40DF51DF1
:10167000FC83EB83F5E02F16310409F0B3CF2F8103
:10168000388526153705B9F0A98DBA8DED91FC91F5
:10169000B1E0BB1257C0AB1255C069817A816B5F54
:1016A0007F4F0088F189E02D830128E030E0A4011C
:1016B000898D9A8D0995A98DBA8DED91FC9111971F
:1016C0000688F789E02DCD016A960FB6F894DEBF43
:1016D0000FBECDBFDF91CF911F910F91FF90EF9083
:1016E000DF90CF90BF90AF909F908F907F906F9042
:1016F0005F904F903F902F9009941E96ED91FC9132
:10170000EF80F88409851A8592014D815E816B8195
:101710007C81898D9A8D099590CF2F8138852615EA
:10172000370509F48ACF31E0B31207C0A31205C010
:101730001C96ED91FC91930178CF1E96ED91FC9152
:101740007301E0CF6B857C85641975090684F78584
:10175000E02D73010F8518899201A401898D9A8D5E
:101760000995A9CFF90134969491329745915491F6
:10177000D91AB7E0DB9E400D511D1124F9012591C6
:1017800034913C8B2B8BFA0125903490FA013296E0
:10179000749031963491398B32966490319644909E
:1017A00041E04C1518F04A1508F07FC0662D062C54
:1017B000000C770B7C836B83842D042C000C990B1D
:1017C0009E838D83A98DBA8DED91FC911197028432
:1017D000F385E02DCD010995512CD12CC12CEA2D9A
:1017E000F0E0FA87E9872B2D30E03C872B87A401B6
:1017F000440D511D47FC5A95588F4F8B69817A8152
:10180000660D711D67FC7A957E876D877989C7168D
:1018100008F051CF2C2D30E04D815E81420F531FD7
:10182000A985BA854A9FC0014B9F900D5A9F900D84
:101830001124FC01E80DF91DF88BEF87852D612C33
:101840004F89588D420F531F5E8B4D8B671408F0E4
:1018500050C044244394480E877041F4C10101965E
:10186000EB89FC89E20DF31DD4901C01D7FE19C051
:10187000A98DBA8DED91FC91662D70E0B1E0BB129F
:1018800019C0AB1217C02D853E85620F731F0484EB
:10189000F585E02D2F8138854D895E89898D9A8D5A
:1018A0000995DD0C6394842DD1CF1E821D821C828C
:1018B0001B8288CF4B815C81640F751FAB85BC8513
:1018C0006A9FC0016B9F900D7A9F900D11246981D2
:1018D0007A81680F791F0684F785E02DEF80F88400
:1018E00009851A859D014F855889898D9A8D09959D
:1018F000D8CF570CC3948ACF6A960FB6F894DEBF40
:101900000FBECDBFDF91CF911F910F91FF90EF9050
:10191000DF90CF90BF90AF909F908F907F906F900F
:101920005F904F903F902F9008958F929F92AF922B
:10193000CF92EF92FF920F931F93CF93DF93EC011F
:10194000262F898D9A8D009709F051C06A30D1F405
:101950001D861C868D8948E0849F900111248E8508
:101960009F85820F931F9F878E8781E090E0DF9194
:10197000CF911F910F91FF90EF90CF90AF909F90DC
:101980008F9008956D3089F3CC88AD888F89882336
:10199000C1F08C859D8536E0C39E800D911D11247C
:1019A000488559854817590764F44E855F851D861B
:1019B0001C8638E0A39EC0011124840F951F9F87C9
:1019C0008E87EA88FB88088919894E855F856C8532
:1019D0007D85CE010E94700A2C898C859D8546E00C
:1019E000249F800D911D11249D878C87BECF6A3066
:1019F00069F41D861C86FC013896E4912D898E853C
:101A00009F85E29F800D911D1124ADCF6D3009F4AB
:101A1000ACCFFC0134963491631708F4A6CF32960C
:101A2000E491E61708F4A1CFFC01329685909490DA
:101A3000462F431B342F47E0349F800C911C112408
:101A4000F401329634913196E4913323A9F1EE23D7
:101A500099F1CC88F4013596E491AD884F894423FF
:101A600001F10E2E000CFF0BE30FF11DCE9EA00125
:101A7000CF9E500D11246C857D85460F571F6885BC
:101A80007985641775076CF44E855F851D861C8605
:101A9000FC013896E491AE9E400D511D11245F87E4
:101AA0004E87EA88FB88088919894E855F856C8591
:101AB0007D85CE010E94700AF4013496E4912C8950
:101AC0008C859D85E29F800D911D11248DCF6F9295
:101AD0007F928F929F92AF92BF92CF92DF92EF92BE
:101AE000FF920F931F93CF93DF93EC016B015A0189
:101AF00039014801E881F9810284F385E02D0995D7
:101B0000E881F9810288F389E02D87019301A5011D
:101B1000B601CE010995A501480D591D4150510945
:101B2000E881F9810288F389E02D9301B601CE01A5
:101B30000995E881F9810088F189E02D9401A501DA
:101B4000B601CE010995C60CD71CB60161507109CA
:101B5000E881F9810088F189E02D9401A501CE0189
:101B60000995E881F9810688F789E02DCE01DF919A
:101B7000CF911F910F91FF90EF90DF90CF90BF908A
:101B8000AF909F908F907F906F9009946F927F920B
:101B90008F929F92AF92BF92CF92DF92EF92FF927D
:101BA0000F931F93CF93DF935C01EB016A0149010F
:101BB00038018701DC01ED91FC916217730719F57B
:101BC000641675062CF0962D872D3A01C92ED82E55
:101BD0009601261937092F5F3F4F048CF58DE02DB4
:101BE000A301BE01C5010995DF91CF911F910F910E
:101BF000FF90EF90DF90CF90BF90AF909F908F902D
:101C00007F906F9008954615570591F42617370772
:101C100024F0892D4B01C22FD82F9E012819390994
:101C20002F5F3F4F068CF78DE02DA601B401DACF70
:101C30000284F385E02D0995D501ED91FC9104888E
:101C4000F589E02D83019401A601BE01C501099526
:101C5000D501ED91FC910688F789E02DC501DF9152
:101C6000CF911F910F91FF90EF90DF90CF90BF9099
:101C7000AF909F908F907F906F900994EF92FF921A
:101C80000F931F93DC011A960D911C911B971896C8
:101C90002D913C911997ED91FC9100A0F1A1E02DBF
:101CA0007B0150E040E070E060E009951F910F91EA
:101CB000FF90EF9008954F925F926F927F928F9274
:101CC0009F92AF92BF92CF92DF92EF92FF920F93CB
:101CD0001F93CF93DF936C012B015A013901480107
:101CE000DC01ED91FC910284F385E02D0995E20180
:101CF000640C751CD601ED91FC91C615D7055CF4FA
:101D00000088F189E02D87019401A501BE01C6017B
:101D100009952196EFCF0688F789E02DC601DF915E
:101D2000CF911F910F91FF90EF90DF90CF90BF90D8
:101D3000AF909F908F907F906F905F904F9009949D
:101D40008F929F92AF92BF92CF92DF92EF92FF92CB
:101D50000F931F93CF93DF93EC015B014A0169015D
:101D6000E881F9810284F385E02D099595012C0D18
:101D70003D1D21503109E881F9810488F589E02D64
:101D800078018401A401B501CE010995E881F981AA
:101D90000688F789E02DCE01DF91CF911F910F9139
:101DA000FF90EF90DF90CF90BF90AF909F908F907B
:101DB00009948F929F92AF92BF92CF92DF92EF924F
:101DC000FF920F931F93CF93DF93EC015B014A01C6
:101DD00069017801E881F9810284F385E02D099594
:101DE000C80CD91C860101501109E881F9810488C9
:101DF000F589E02D9501A401B501CE010995E88191
:101E0000F9810688F789E02DCE01DF91CF911F91EE
:101E10000F91FF90EF90DF90CF90BF90AF909F9089
:101E20008F900994EF92FF920F931F93DC01ED9135
:101E3000FC9100A0F1A1E02D09951F910F91FF9059
:101E4000EF9008950F931F93DC01ED91FC91068CA8
:101E5000F78DE02D09951F910F9108950F931F9312
:101E6000DC01ED91FC91048CF58DE02D09951F911D
:101E70000F910895DC01ED91FC910084F185E02D36
:101E800009943F924F925F926F927F928F929F92AE
:101E9000AF92BF92CF92DF92EF92FF920F931F9378
:101EA000CF93DF935C017B014A016901390187E02F
:101EB000680E711C93E0759467949A95E1F72B0175
:101EC000400E511E10E000E0312CD0E0C0E0CE0109
:101ED00087709927330C892B59F4FE0183E0F5951F
:101EE000E7958A95E1F7E00FF11FE80DF91D3490B1
:101EF00037FE0AC021E030E0A701B5016C0F7D1F5D
:101F000088EC95E00E943A0F2196CC16DD06F9F692
:101F10008FEFE81AF80A060D171DE414F504A9F668
:101F2000DF91CF911F910F91FF90EF90DF90CF90B5
:101F3000BF90AF909F908F907F906F905F904F90E9
:101F40003F9008952F923F924F925F926F927F92AF
:101F50008F929F92AF92BF92CF92DF92EF92FF92B9
:101F60000F931F93CF93DF9300D000D000D0CDB755
:101F7000DEB73C016A013E832D83FC82EB8258016F
:101F8000A41AB50AB7FE03C0B194A194B1088D801C
:101F90009E80861A970A97FE03C0919481949108B7
:101FA0008A149B045CF0902F812F0D811E819D83EC
:101FB0008E839C2D8D2D6B01692F782F0C151D059F
:101FC0005CF09D818E817E836D83692F782F902FA9
:101FD000812F8601C92ED82E1601201A310A2B0115
:101FE0002D813E81421A530A57FE03C051944194F9
:101FF0005108710137FE03C03FEFE31AF30AF5946D
:10200000E7948D819E81861797075CF5A1E0B0E08B
:10201000BA83A983C016D1064CF1D301ED91FC918E
:102020000484F585E02D2B813C81A8016D817E81A2
:102030008A149B041CF04D815E81B801C30109958F
:10204000E418F508F7FE0AC02D813E8189819A8146
:10205000280F391F3E832D83E20CF31C0F5F1F4FA7
:10206000D9CF2FEF3FEF3A832983D4CF26960FB6EF
:10207000F894DEBF0FBECDBFDF91CF911F910F91BE
:10208000FF90EF90DF90CF90BF90AF909F908F9098
:102090007F906F905F904F903F902F90089508959C
:1020A00020918604260F3327331F21323105ECF4AB
:1020B0002091AA04FC0190E080E0243069F082E0E5
:1020C0000895A09186042191AC014A595B4FA40F59
:1020D000B52FB11D2C930196861798F38091860435
:1020E000680F6093860480E0089581E0089510925F
:1020F000AA0481E08093AC041092AB0461E082E119
:102100000E941D0661E083E10E941D06E9EBF0E0FC
:1021100080818E7F808380818D7F808388E480931F
:10212000B80085E48093BC000895CF93DF9391E0DD
:10213000909365048823B9F0C091B800D091BA009B
:102140008091BC008A7B8093BC0060E082E10E94A9
:102150001D0660E083E10E941D060E947710D09367
:10216000BA00C093B800DF91CF910895E091D604F2
:102170008091D504E81730F4F0E0E05CFB4F8081FB
:1021800090E008958FEF9FEF08959091D60480918D
:10219000D5042FEF3FEF981748F4E92FF0E0E05C0B
:1021A000FB4F208130E09F5F9093D604C9010895D2
:1021B0008091D5049091D604891B990B0895CF92F4
:1021C000DF92EF92FF920F931F93CF93DF937C01E7
:1021D000CB018A0120911E05222389F0EB016B01BE
:1021E000C40ED51ECC15DD0569F06991D701ED91BE
:1021F000FC910190F081E02DC7010995F3CF642F88
:102200000E945010C801DF91CF911F910F91FF9054
:10221000EF90DF90CF900895CF93DF931F92CDB7CB
:10222000DEB7698320911E052223F9F020911B055A
:10223000203258F021E030E0FC013383228390E02B
:1022400080E00F90DF91CF91089580911C05E82FD9
:10225000F0E0E05EFB4F998190838F5F80931C05D7
:1022600080931B0581E090E0ECCF61E0CE01019608
:102270000E945010F7CFCF92DF92EF92FF920F9310
:102280001F93CF93DF93D0911B0581E0D13208F0EB
:102290009CC0C0911D050E9487066B017C01809146
:1022A000AA0481116CC082E08093AA0481E080932B
:1022B000AC048FEF8093A9041092CE04D093CD0488
:1022C000A0E2B4E0EDEAF4E080E0D8138DC0109213
:1022D000CF048091CF04CC0FC82BC093CF04809142
:1022E000AB04813009F084C01092AB040E948706D1
:1022F0006B017C018091CF048093BB0080916104CD
:1023000090916204A0916304B0916404892B8A2B9C
:102310008B2BA1F00E94870600916104109162044A
:1023200020916304309164046C197D098E099F0922
:10233000061717072807390708F442C08091BC0028
:1023400083FDD8CF85EC8093BC000E9487066B018B
:102350007C018091AA04823009F44CC08091A904C8
:102360008F3F09F469C08091A904803209F466C0E6
:102370008091A904803309F463C084E026C0809171
:10238000610490916204A0916304B0916404892B6C
:102390008A2B8B2B09F483CF0E948706009161045E
:1023A0001091620420916304309164046C197D09DA
:1023B0008E099F09061717072807390708F06FCFFE
:1023C000809160040E94951085E010921C05109287
:1023D0001B0510921E05DF91CF911F910F91FF9069
:1023E000EF90DF90CF9008959D9191938F5F6DCF87
:1023F00085EEA9CF8091610490916204A09163045D
:10240000B0916404892B8A2B8B2B09F4A2CF0E94F4
:102410008706009161041091620420916304309159
:1024200064046C197D098E099F0906171707280790
:10243000390708F08ECFC4CF80E0C7CF82E0C5CF88
:1024400083E0C3CFEF92FF920F931F93CF93DF935D
:102450007C01C62F8091E5059091E605009709F46F
:1024600059C02091E90531E030931E0520931D05E8
:1024700010921C0510921B05DC01ED91FC9101905E
:10248000F081E02D60E009958701EE24E394F12CC2
:10249000D1E0C1508091E5059091E605CF3F91F1E3
:1024A000B0E2EB16F104D8F00E943B118091E505F3
:1024B0009091E6052091E905D0931E0520931D0516
:1024C00010921C0510921B05DC01ED91FC9101900E
:1024D000F081E02D60E00995EE24E394F12C8091E9
:1024E000E5059091E605F8016491DC01ED91FC9120
:1024F0000190F081E02D0995BFEFEB1AFB0A0F5F09
:102500001F4FC7CFDF91CF911F910F91FF90EF9099
:102510000C943B11E091F505F091F60590818091C6
:10252000FB058095892380838701C15008F438C05A
:10253000F80184912091E3053091E405232B29F0E3
:102540000E94500A0F5F1F4FF0CF28E030E040E8B4
:10255000E091F105F091F2059091F905582F54237F
:10256000D9F05081952B9083E091F305F091F4051B
:1025700090815091FA05952B9083E091F305F091AD
:10258000F40550819091FA05909595239083469596
:1025900021503109E9F6D6CF508190959523E3CFAC
:1025A000DF91CF911F910F91FF90EF9008951F93AE
:1025B000CF93DF93EC018D8D9E8D009721F1162F27
:1025C00029A131E030931E0520931D0510921C05B2
:1025D00010921B05DC01ED91FC910190F081E02D42
:1025E00060E009958D8D9E8DDC01ED91FC9101904F
:1025F000F081E02D612F09958D8D9E8DDF91CF911A
:102600001F910C943B11ADA5BEA59C918BA9809503
:1026100089238C938B8D9C8D892B31F0862FDF91B4
:10262000CF911F910C94500A28E030E080E8A9A5D2
:10263000BAA599A9462F4823C1F04C91942B9C939D
:10264000ABA5BCA59C914AA9942B9C93ABA5BCA51A
:102650004C919AA9909594239C9386952150310989
:1026600031F7DF91CF911F9108954C91909594236C
:10267000E6CF1F93CF93DF93EC01162F8D8D9E8DA8
:10268000892BB1F12DA93EA94FA958AD60E074E2A4
:1026900084EF90E00E947F1E2051310941095109C9
:1026A00056954795379527952093B80066EA1111FE
:1026B00067EACE010E94D7128D8D9E8D892B41F144
:1026C00029AD3AAD4BAD5CAD60E074E284EF90E0D3
:1026D0000E947F1E205131094109510956954795A5
:1026E000379527952093B800DF91CF911F910895DA
:1026F0008B8D9C8D892B21F08EAD9FAD0E94570A4A
:10270000EFA5F8A990818CA9809589238083CECFED
:10271000EFA5F8A980819CA9892B8083E5CF90E063
:1027200080E008958F929F92AF92BF92EF92FF92B6
:102730001F93CF93DF93EC01862F0E94F4057C0159
:1027400011E0892B09F410E08981811739F00E948A
:10275000DE066A837B838C839D8319830E94DE0659
:102760008A809B80AC80BD80681979098A099B09A1
:10277000633371058105910540F08881882321F03C
:10278000EF2811F481E08E831883DF91CF911F91A0
:10279000FF90EF90BF90AF909F908F90089560E072
:1027A00088E00E941D0660E089E00E941D0660E04E
:1027B0008AE00E941D0660E08BE00C941D06CF931A
:1027C000DF9320911E0430911F04820F931F8830E5
:1027D00091059CF590931F0480931E0480911E0424
:1027E00090911F0497FF06C087E090E090931F042C
:1027F00080931E04C0911E04D0911F0483E0CC0F6F
:10280000DD1F8A95E1F7CF5BDE4F688188E00E948B
:102810001D066A8189E00E941D066C818AE00E9483
:102820001D066E818BE00E941D0663E070E080E073
:1028300090E0DF91CF910C94AC0610921F0410929F
:102840001E04CCCF2091CE053091CF05C90107964B
:1028500097FD079623E0959587952A95E1F72091B6
:10286000CC053091CD05829FA001839F500D929F92
:10287000500D112470E060E08091E7059091E8052B
:102880000C941A200E941520FB0101900020E9F70A
:102890003197AF01461B570BDC01ED91FC91028093
:1028A000F381E02D0994CF93DF93D0E0C0E000974F
:1028B00031F0BC0188EC95E00E944414EC016DEF0E
:1028C00071E088EC95E00E9444148C0F9D1FDF910D
:1028D000CF910895DF92EF92FF920F931F93CF93C2
:1028E000DF938C01EB010E94221481E08093DC05D0
:1028F0008093DD0581E090E09093DB058093DA051D
:102900009093D9058093D8051092D5051092D405DF
:102910001092D7051092D605C8010E945314109248
:10292000D5051092D40580E190E09093D70580936F
:10293000D605CE010E9453148091E5059091E605DD
:10294000892B09F4A5C02091FD053091FE05409129
:10295000FF055091000660E074E284EF90E00E9471
:102960007F1E2051310941095109569547953795E8
:1029700027952093B80064E088E690E00E94221238
:102980008091CC059091CD058034910509F097C0D8
:1029900060E288EC95E00E94D7126091CC05615E00
:1029A00088EC95E00E94D7122091CE053091CF059A
:1029B000C901079697FD079633E0959587953A9557
:1029C000E1F72091CC053091CD05829F8001839F56
:1029D000100D929F100D1124C091E705D091E805CC
:1029E0008091E5059091E6050C0F1D1F009709F4F5
:1029F00098C02091E90531E030931E0520931D0514
:102A000010921C0510921B05DC01ED91FC910190C8
:102A1000F081E02D60E40995EE24E394F12CDD24AF
:102A2000D3948091E5059091E6050C171D0709F4F4
:102A30004FC0B0E2EB16F104D8F00E943B11809138
:102A4000E5059091E6052091E905D0921E052093B9
:102A50001D0510921C0510921B05DC01ED91FC91E7
:102A60000190F081E02D60E40995EE24E394F12CCF
:102A70008091E5059091E6056991DC01ED91FC916D
:102A80000190F081E02D0995BFEFEB1AFB0AC9CF49
:102A90008091E3059091E405892B31F08091060641
:102AA000909107060E94570AE091F705F091F8050A
:102AB00090818091FC058095892380835CCF60E0C4
:102AC00088EC95E00E94D7126091CC05615068CFE8
:102AD0000E943B118091E5059091E605892B09F450
:102AE00061C0209101063091020640910306509189
:102AF000040660E074E284EF90E00E947F1E2051A3
:102B000031094109510956954795379527952093E5
:102B1000B800DF91CF911F910F91FF90EF90DF9060
:102B20000895E091F505F091F60580819091FB05FF
:102B3000892B80830C171D0769F289912091E30589
:102B40003091E405232B19F00E94500AF3CF28E0BE
:102B500030E040E8E091F105F091F2059091F9053F
:102B6000582F5423D9F05081952B9083E091F30591
:102B7000F091F40590815091FA05952B9083E091A6
:102B8000F305F091F40550819091FA059095952305
:102B90009083469521503109E9F6CCCF508190952C
:102BA0009523E3CFE091F705F091F80580819091AE
:102BB000FC05892B8083ADCF2F923F924F925F927D
:102BC0006F927F928F929F92AF92BF92CF92DF923D
:102BD000EF92FF920F931F93CF93DF93CDB7DEB7A2
:102BE0006C970FB6F894DEBF0FBECDBF1C018B01F2
:102BF000469708F087C080910305909104058215DF
:102C0000930509F47FC0880F991FDC01A952BB4FBF
:102C10002D913C91D101AA0FBB1FA952BB4FCD9062
:102C2000DC90C601821B930B985FE0E0F8E0BF01E7
:102C30000E946B1E5C01C9018C199D09985FBF0140
:102C40000E946B1E8A159B050CF053C05C018FEF30
:102C50009FEF988F8F8B1C8F0B8F28E631E0D5016B
:102C60000E94C01E6B017C0110E000E0412C88E056
:102C7000582E612C712CCE0101964C01C501019793
:102C80009A8F898F0A151B05BCF58F89988D0E9434
:102C9000DF1398E6C91A91E0D90AE108F108C801E2
:102CA0008F719927892B29F0898D9A8D081719071B
:102CB000E9F4C701B601A30192010E94A11E3F934E
:102CC0002F9380E092E09F938F931F9286E18F93E2
:102CD0009F928F920E942120B4018B8D9C8D0E9427
:102CE0006A140FB6F894DEBF0FBECDBF0F5F1F4F43
:102CF000C9CF81E090E0ADCF0E94CF1330920405A0
:102D0000209203056C960FB6F894DEBF0FBECDBFC0
:102D1000DF91CF911F910F91FF90EF90DF90CF90B7
:102D2000BF90AF909F908F907F906F905F904F90EB
:102D30003F902F900895809103059091040500978E
:102D400031F46DE072E088E192E00C946A1401972E
:102D50006DE072E08531910538F4880F991FFC0110
:102D6000E95EFE4F6081718189E292E0EECF0F93C0
:102D70001F93CF93DF938C01D0E0C0E0F801EC0FFC
:102D8000FD1F6491662341F08FE195E00E948C075E
:102D9000892B11F02196F2CF6DEF71E08FE195E074
:102DA0000E9444148C0F9D1FDF91CF911F910F91B2
:102DB000089585ED8093BC00809161049091620438
:102DC000A0916304B09164040796A11DB11D23E096
:102DD000B695A795979587952A95D1F72091BC0030
:102DE00024FD03C01092AA040895409161045091FB
:102DF00062046091630470916404452B462B472B59
:102E000069F30097A105B10541F02AE22A95F1F78F
:102E100000C00197A109B109E1CF809160040C9431
:102E200095101F920F920FB60F9211242F933F937C
:102E30008F939F93AF93BF93809113059091140547
:102E4000A0911505B09116053091120523E0230FCE
:102E50002D3758F50196A11DB11D209312058093C1
:102E6000130590931405A0931505B0931605809152
:102E7000170590911805A0911905B0911A050196B2
:102E8000A11DB11D8093170590931805A0931905F6
:102E9000B0931A05BF91AF919F918F913F912F9160
:102EA0000F900FBE0F901F90189526E8230F0296E3
:102EB000A11DB11DD2CF1F920F920FB60F921124F8
:102EC0002F933F934F935F936F937F938F939F9332
:102ED000AF93BF93EF93FF938FE195E00E946A0752
:102EE000FF91EF91BF91AF919F918F917F916F91E2
:102EF0005F914F913F912F910F900FBE0F901F90B8
:102F000018951F920F920FB60F9211242F938F9343
:102F10009F93EF93FF93E0912F05F091300580810F
:102F2000E0913505F091360582FD1BC090818091BE
:102F300038058F5F8F7320913905821741F0E0913A
:102F40003805F0E0E15EFA4F958F80933805FF91E8
:102F5000EF919F918F912F910F900FBE0F901F9027
:102F600018958081F4CF1F920F920FB60F92112403
:102F70002F933F934F935F936F937F938F939F9381
:102F8000AF93BF93EF93FF938091B900887F803612
:102F900009F44AC0F0F5883209F4A7C018F5803169
:102FA00009F49BC0B8F4882309F4F9C0883009F407
:102FB00094C0FF91EF91BF91AF919F918F917F91BD
:102FC0006F915F914F913F912F910F900FBE0F9096
:102FD0001F901895883109F488C0803251F780938A
:102FE000A90414C0803409F49DC040F48033B9F3BF
:102FF0008833F9F68093A90485ECB0C0803509F4D4
:1030000085C0883509F496C0883499F60E94D9168F
:10301000D0CF883909F48CC038F5883729F050F4BE
:10302000883611F0803729F683E08093AA04109245
:10303000A80457C0883809F47BC0803919F080385B
:1030400009F0B7CF8091A804803208F071C0E091F8
:10305000A80481E08E0F8093A8048091BB00F0E06B
:10306000E857FB4F80833DC0803B39F0E0F4803A65
:1030700009F479C0883A09F09CCF84E08093AA04CF
:103080001092870410928604E091D304F091D40446
:1030900009958091860481110FC081E08093860498
:1030A0001092660409C0803C09F4A6CF883C09F45C
:1030B000A3CF883B09F07DCFE091870481E08E0F9C
:1030C00080938704F0E0EA59FB4F80818093BB0036
:1030D000909187048091860429C08091CF048093C9
:1030E000BB0085EC8093BC0064CF9091CE048091AE
:1030F000CD04981758F5E091CE0481E08E0F8093AF
:10310000CE04F0E0E355FB4F8081E9CFE091CE049F
:1031100081E08E0F8093CE048091BB00F0E0E355F8
:10312000FB4F80839091CE048091CD049817C8F214
:1031300085E8D8CFE091CE0481E08E0F8093CE0455
:103140008091BB00F0E0E355FB4F80838091AC049D
:1031500081115CCF81E08093AB0484EA8093BC0052
:103160001092AA0426CF85EC8093BC001092AA048A
:103170008091A804803230F4E091A804F0E0E85790
:10318000FB4F10826091A80470E0E091D104F091AF
:10319000D20488E894E009951092A8040ACF10920E
:1031A000A90434CFEFE1F5E01382128248EE53E038
:1031B00060E070E0448355836683778381EB91E020
:1031C0009183808385EC90E09587848784EC90E000
:1031D0009787868780EC90E0918B808B81EC90E0E4
:1031E000938B828B82EC90E0958B848B86EC90E0C5
:1031F000978B868B118E128E138E148EACEBB5E0EE
:1032000013961C921E92129714964D935D936D9394
:103210007C93179783EC91E011969C938E93E8EC46
:10322000F5E01382128220E830E03583248380E2C7
:1032300090E0978386833187208793878287168AD9
:10324000158614861786168681E0858B848B2FEF72
:103250003FEF338B228B318B208B878B108E128E1E
:10326000118E85ED91E091838083148E138EB68F3D
:10327000A58F10A2178E8FEF84A385A386A387A3A3
:1032800080A780E89AE1A6E0B0E085AB96ABA7AB5B
:10329000B0AF80EA96E8A1E0B0E081AF92AFA3AF13
:1032A000B4AF80E586AF17AE0895CF93DF93CDB767
:1032B000DEB766970FB6F894DEBF0FBECDBF789429
:1032C00084B5826084BD84B5816084BD85B582602B
:1032D00085BD85B5816085BD80916E0081608093DC
:1032E0006E00109281008091810082608093810045
:1032F0008091810081608093810080918000816055
:10330000809380008091B10084608093B1008091AF
:10331000B00081608093B00080917A0084608093D7
:103320007A0080917A00826080937A0080917A009E
:10333000816080937A0080917A00806880937A001F
:103340001092C100E0912F05F091300582E080835A
:10335000E0912B05F0912C051082E0912D05F09164
:103360002E058FEC808310923705E0913305F091A4
:10337000340586E08083E0913105F091320580814B
:1033800080618083E0913105F09132058081886011
:103390008083E0913105F0913205808180688083DF
:1033A000E0913105F091320580818F7D808380919D
:1033B000E7059091E805892B11F10E9422142091D4
:1033C000CE053091CF058091CC059091CD0521326D
:1033D00031050CF0C9C0B9016052710977FF02C014
:1033E0006F5F7F4F759567958357910997FD01969C
:1033F00000E210E023E730E04EE855E0C8C020913D
:10340000CE053091CF05C901079697FD0796B3E029
:1034100095958795BA95E1F72091CC053091CD052A
:10342000AC01429FC001439F900D529F900D11240B
:103430000E94F01E9093E8058093E705892B09F020
:10344000BCCF66E372E083E492E00E946A1461E01C
:1034500088E00E944B0661E089E00E944B0661E033
:103460008AE00E944B0661E08BE00E944B060E94BE
:10347000CF1362E082E00E944B0660E083E00E948E
:103480004B0662E085E00E944B0662E086E00E9407
:103490004B0661E084E00E944B0661E08CE00E94F4
:1034A0004B0661E087E00E944B0660E084E00E94EA
:1034B0001D0660E08CE00E941D0660E087E00E942F
:1034C0001D061092D8041092D704E7EDF4E0A1E8AD
:1034D000B1E0819191912D913D91820F931F918344
:1034E000808355E0E130F507A1F783E00E94F40501
:1034F00021E0019709F020E020930A0520930505BB
:1035000020931105209310050E94DE0660930605A6
:103510007093070580930805909309056DE472E0A8
:1035200089E592E00E946A1482E00E94F405892BEA
:1035300051F00CE219E082E00E94F405892B09F0B9
:1035400018C20E94CF131092040510920305109226
:10355000100110920F0161E084E00E941D0660E8F6
:1035600072E082E992E019C2B9016054710977FFF3
:1035700002C06F5F7F4F759567958255910997FDE2
:10358000019600E410E022E530E04EE657E0959524
:1035900087950E94410F82E08093EA058091E505BE
:1035A0009091E605892B09F494C08CE38093E9059A
:1035B0001092D6041092D50410921C0510921B058F
:1035C0000E9477108AEE96E09093D4048093D304FF
:1035D0008BEE96E09093D2048093D1048091F00515
:1035E00087FD1EC061E00E944B0661E08091F005FE
:1035F0000E941D0661E070E080E090E00E94AC0651
:1036000060E08091F0050E941D066AE070E080E0B5
:1036100090E00E94AC0661E08091F0050E941D06DA
:103620008091E5059091E605892B09F411C120915F
:10363000FD053091FE054091FF055091000660E0C8
:1036400074E284EF90E00E947F1E2051310941090D
:10365000510956954795379527952093B80064E012
:103660008AE895E00E9422126091CE05615088ECB4
:1036700095E00E94D71264E086E895E00E9422124D
:103680008091EA0564E1813009F460E188EC95E01D
:103690000E94D71264E082E895E00E9422128FE82F
:1036A000809305068091CC059091CD0580389105D9
:1036B00009F031C18091CE059091CF0580349105FC
:1036C00009F039C18091EA05813009F4D8C08FEC46
:1036D000D7C061E08091EE050E944B0661E08091C9
:1036E000EF050E944B068091EE05082E000C990B09
:1036F000FC01E050F54FE491F0E0EE0FFF1FE451C4
:10370000F54F259134913093F6052093F505FC0192
:10371000EC5EF44FE491E093FB058091EF05082EF9
:10372000000C990BFC01E050F54FE491F0E0EE0F36
:10373000FF1FE451F54FA591B491B093F805A09304
:10374000F705FC01EC5EF44FE491E093FC058C91ED
:10375000E82BEC938091E3059091E405892B09F423
:1037600034C01FB7F8948091D004811127C0EAE0DB
:10377000FBE08491EEE1FBE09491E82FF0E0EE0FA6
:10378000FF1FEE51F54FA591B491EC91E92321F47F
:1037900061E08AE00E941D0661E08AE00E944B061B
:1037A0008CB580618CBD8CB580648CBD61E08DE092
:1037B0000E944B0661E08BE00E944B068091D00492
:1037C0008F5F8093D0041FBF09CF61E08091EC052B
:1037D0000E944B0661E08091ED050E944B068091AE
:1037E000EC05082E000C990BFC01E050F54FE4911C
:1037F000F0E0EE0FFF1FE451F54F25913491309327
:10380000F2052093F105FC01EC5EF44FE491E093A6
:10381000F9058091ED05082E000C990BFC01E05094
:10382000F54FE491F0E0EE0FFF1FE451F54FA59145
:10383000B491B093F405A093F305FC01EC5EF44F52
:10384000E491E093FA058C91E095E823EC93C6CEE1
:103850008091E3059091E405892B31F08091060673
:10386000909107060E94570AE091F705F091F8053C
:1038700090818091FC05809589238083F0CE8FE92B
:103880008093050612E16AED88EC95E00E94D7125C
:10389000612F88EC95E00E94D71261E888EC95E0F2
:1038A0000E94D7126091050688EC95E00E94D7121D
:1038B00069ED88EC95E00E94D7128091EA0561EFEE
:1038C000813009F462E288EC95E00E94D71266E04C
:1038D0008CE795E00E9422128091E5059091E60523
:1038E000892BE9F1209101063091020640910306EF
:1038F0005091040660E074E284EF90E00E947F1E25
:103900002051310941095109569547953795279519
:103910002093B80096CD8036910589F48091CE052C
:103920009091CF05409739F48091EA05813029F0D4
:103930008FEA8093050612E0A6CF80E1FACF8034AB
:103940009105C9F78091CE059091CF05809799F7A1
:103950008091EA05813009F0BACE80E191CFE09103
:10396000F705F091F80580819091FC05892B808303
:1039700068CD81E090E00E94DF130150110909F049
:10398000DACD0E94CF1381E090E0909310018093F4
:103990000F0168E672E089E792E00E946A1480EC09
:1039A0009AE00E94B71684EA9AE00E94B71686E869
:1039B0009AE00E94B71685E69AE00E94B71680E565
:1039C0009AE00E94B7168EE29AE00E94B71603E0D2
:1039D00013E0CE0101967C0130E0832E30E0932E7F
:1039E000DD24D39496E1C92E20E4322E80910F017C
:1039F000909110010197B1F46FE972E089E792E0CC
:103A00000E946A146CE271E080E090E00E94AC06D3
:103A10008114910459F30E945607882319F30E94D8
:103A20000000DECF83E00E94F405BB24B39401972D
:103A300009F0B12C80910A05B81661F00E94DE06EB
:103A40006093060570930705809308059093090518
:103A5000B0920A050E94DE064090060550900705C8
:103A60006090080570900905641975098609970921
:103A7000613571058105910520F080910A058093DB
:103A80000505809105058093110580910E0188231D
:103A900009F4EAC080910F05811114C060EB72E057
:103AA00080EC92E00E946A1461E08CE00E941D06A6
:103AB00069E572E081E090E00E94DC15D0920F058C
:103AC0000E949B1680911105811182C06FEC72E0FB
:103AD0008DED92E00E946A1480911105811173C0EE
:103AE00080911005882309F46EC080910F0588230A
:103AF00009F469C068EC70E080E090E00E94AC06D8
:103B000088E0A82EB12C412C512C320130927C003F
:103B100080917A00806480937A0080917A0086FD9B
:103B2000FCCF8091780090917900092E000CAA0BAF
:103B3000BB0B480E591E6A1E7B1E62E070E080E0DF
:103B400090E00E94AC0691E0A91AB108F9F6C30111
:103B5000B20128E030E040E050E00E94A11E209336
:103B60000C0530930D05D0920E05D0920B053F93B6
:103B70002F931F930F931F92CF92FF92EF920E9469
:103B80002120B7018CE093E00E946A1460EB74E09E
:103B900080E090E00E94AC066AE173E085E293E089
:103BA0000E946A1460E08CE00E941D0665E273E0EA
:103BB00090E080E00E94DC1510920E010FB6F894A0
:103BC000DEBF0FBECDBF809111058093100520CFC1
:103BD0000E949B1665E070E080E091E00E949213E5
:103BE000809106018823D1F01092060160E08CE0FC
:103BF0000E941D068091030590910405019686316F
:103C0000910514F081E090E06DEE72E00E94DC1509
:103C100061E08CE00E941D060E949B1666E070E049
:103C200087E091E00E94921380910D01882309F4AE
:103C300053CF10920D0160E08CE00E941D06809130
:103C400003059091040501971816190614F085E1F3
:103C500090E068EF72E00E94DC1561E08CE00E9469
:103C60001D060E949B1638CF80910E058823A1F077
:103C700080910D058F9380910C058F931F930F9367
:103C80001F92CF92FF92EF920E942120B70182E310
:103C900093E00E946A1492CF80910B05882339F03B
:103CA00063E473E082E393E00E946A148CCF6EE4D5
:103CB00073E08CE593E0F8CF85ED91E09093C90532
:103CC0008093C8058091E7059091E805009711F071
:103CD0000C948C1F089597FB072E16F4009407D0C0
:103CE00077FD09D00E94C71E07FC05D03EF49095D1
:103CF00081959F4F0895709561957F4F0895A1E23A
:103D00001A2EAA1BBB1BFD010DC0AA1FBB1FEE1F55
:103D1000FF1FA217B307E407F50720F0A21BB30BA0
:103D2000E40BF50B661F771F881F991F1A9469F71C
:103D300060957095809590959B01AC01BD01CF0178
:103D40000895052E97FB1EF400940E94B81E57FD9F
:103D500007D00E947F1E07FC03D04EF40C94B81EBF
:103D600050954095309521953F4F4F4F5F4F0895A7
:103D700090958095709561957F4F8F4F9F4F0895D7
:103D80000E94E11EB7FF0895821B930B0895AA1BA2
:103D9000BB1B51E107C0AA1FBB1FA617B70710F036
:103DA000A61BB70B881F991F5A95A9F78095909568
:103DB000BC01CD010895EE0FFF1F0590F491E02D99
:103DC0000994A29FB001B39FC001A39F700D811DF4
:103DD0001124911DB29F700D811D1124911D089514
:103DE0000F931F93CF93DF938230910510F482E0FD
:103DF00090E0E0910A06F0910B0630E020E0B0E0A0
:103E0000A0E0309799F42115310509F44AC0281B28
:103E1000390B24303105D8F58A819B8161157105F4
:103E200089F1FB0193838283FE0111C0408151819E
:103E30000281138148175907E0F04817590799F490
:103E4000109761F012960C93129713961C9332966A
:103E5000CF01DF91CF911F910F91089500930A0632
:103E600010930B06F4CF2115310551F0421753077B
:103E700038F0A901DB019A01BD01DF01F801C1CFD2
:103E8000EF01F9CF90930B0680930A06CDCFFE0188
:103E9000E20FF31F819391932250310939832883D4
:103EA000D7CF2091080630910906232B41F42091A9
:103EB00013013091140130930906209308062091D4
:103EC0001101309112012115310541F42DB73EB792
:103ED0004091150150911601241B350BE091080605
:103EE000F0910906E217F307A0F42E1B3F0B2817E9
:103EF000390778F0AC014E5F5F4F2417350748F063
:103F00004E0F5F1F509309064093080681939193CB
:103F10009FCFF0E0E0E09CCFCF93DF930097E9F0F4
:103F2000FC01329713821282A0910A06B0910B060F
:103F3000ED0130E020E01097A1F420813181820F63
:103F4000931F20910806309109062817390709F0B8
:103F500061C0F0930906E0930806DF91CF910895C0
:103F6000EA01CE17DF07E8F54A815B819E01411522
:103F70005105B1F7E901FB83EA8349915991C40FD7
:103F8000D51FEC17FD0761F4808191810296840FA3
:103F9000951FE90199838883828193819B838A831A
:103FA000F0E0E0E012968D919C9113970097B9F59F
:103FB0002D913C911197CD010296820F931F209174
:103FC0000806309109062817390739F6309751F558
:103FD00010920B0610920A06B0930906A0930806E9
:103FE000BCCFD383C28340815181840F951FC817F2
:103FF000D90761F44E5F5F4F88819981480F591F3F
:10400000518340838A819B8193838283211531056B
:1040100009F0B0CFF0930B06E0930A069ECFFD01A6
:10402000DC01C0CF13821282D7CF81E090E0F894F8
:104030000C940623DC0101C06D9341505040E0F721
:104040000895AEE0B0E0E7E2F0E20C94DD220D89E5
:104050001E898F89988D26E02C831A83098397FF08
:1040600002C080E090E801979E838D83AE01455E9B
:104070005F4F698D7A8DCE0101960E9451204D814E
:104080005E8157FD0AC02F813885421753070CF413
:104090009A01020F131FF80110822E96E4E00C948F
:1040A000F922ABE0B0E0E7E5F0E20C94CF227C012E
:1040B0003B018A01FC0117821682838181FFC8C1FE
:1040C000CE0101965C01F7019381F30193FD859187
:1040D00093FF81913F01882309F453C1853239F45C
:1040E00093FD859193FF81913F01853229F4B701BA
:1040F00090E00E944122E7CF912C212C312CFFE14E
:10410000F31538F08B3211F190F4803209F18332DB
:1041100029F137FC3CC020ED280F2A3050F536FE3F
:1041200020C08AE0989E200D1124922E06C08D3268
:1041300091F0803371F7689430F8F30193FD859125
:1041400093FF81913F018111DACF21C0689431F84A
:10415000689432F8F2CF689433F8EFCF689434F86B
:10416000ECCFEAE02E9E200D1124222E689435F823
:10417000E4CF8E3229F436FC04C1689436F8DDCFE2
:104180008C3619F4689437F8D8CF8836B1F2982F66
:104190009F7D95549330E0F08336A1F18337C1F1D0
:1041A000833509F063C02801F2E04F0E511CF8017D
:1041B000C080D180692D70E036FC02C06FEF7FEFC8
:1041C000C6010E942B224C01689437F882010AC074
:1041D0000C5F1F4FFFE3F98388248394912C6501C2
:1041E000E89437F833FE2DC0522C8114910471F5F8
:1041F000552009F468CFB70180E290E00E94412287
:104200005A94F6CFF801808189830E5F1F4FE4CF67
:104210002801F2E04F0E511CF801C080D180692DB9
:1042200070E036FC02C06FEF7FEFC6010E943622BD
:104230004C018201D5CFB70180E290E00E9441227B
:104240002A942814190409F0B0F7CECFF60137FCF0
:10425000859137FE81916F01B70190E00E94412264
:1042600051105A94F1E08F1A9108BFCF843619F09B
:10427000893609F077C0F80137FE6BC06081718123
:10428000828193810C5F1F4FF32DFF763F2E97FFA6
:1042900009C090958095709561957F4F8F4F9F4F86
:1042A000689437F82AE030E0A5010E947122C82EF8
:1042B000CA188C2C432C36FE0CC0E89440F8C91464
:1042C00040F434FE05C032FC03C0F32DFE7E4F2EB9
:1042D000892C44FE95C0FE01EC0DF11D80818033D8
:1042E00009F087C0242D297E422E842D8870582EF7
:1042F00043FC95C040FE8FC09C2C821418F42C0CFB
:10430000922C981844FE91C0B70180E390E00E947F
:10431000412242FE09C088E790E041FE02C088E5E4
:1043200090E0B7010E944122C91408F48AC0CA94DF
:10433000D12C9FEFC91AD90ACA0CDB1CF601829155
:104340006F01B70190E00E944122AC14BD04B1F7A7
:104350004FCF60817181072E000C880B990B0E5F87
:104360001F4F92CFD32CE894D4F82AE030E0853761
:1043700039F1232D297FD22E8F3601F148F488356B
:10438000A9F0F701868197812B96E2E10C94EB224C
:10439000803749F08837A9F7D4FE02C06894D2F874
:1043A00020E130E00DC06894D4F8F6CF34FE03C0AD
:1043B000822F8660D82E20E132E002C028E030E073
:1043C000F801D7FE0FC060817181828193810C5FFB
:1043D0001F4FA5010E947122C82ECA183D2CE894D7
:1043E00037F867CF6081718190E080E00E5F1F4FEA
:1043F000F0CF42FC02C0839478CF8394839475CF2E
:10440000842D867809F471CFF6CFB70180E290E071
:104410000E94412283948214C0F3512C73CF522CFA
:104420005818821408F46ECFF8CF842D867809F4DA
:104430007BCF8BE241FE80E247FC8DE2B70190E04A
:1044400071CFB70180E390E00E9441229A946CCF33
:104450008FEF9FEF99CFFC010590615070400110E4
:10446000D8F7809590958E0F9F1F0895FC0161509D
:10447000704001900110D8F7809590958E0F9F1F86
:1044800008950F931F93CF93DF93182F092FEB01FC
:104490008B8181FD09C01FEF0FEF812F902FDF91DE
:1044A000CF911F910F91089582FF14C02E813F81FB
:1044B0008C819D81281739073CF4E881F981CF016F
:1044C00001969983888310838E819F8101969F83B3
:1044D0008E83E3CFE885F985812F0995892BA1F398
:1044E000DACFFA01AA27283051F1203181F1E8947E
:1044F0006F936E7F6E5F7F4F8F4F9F4FAF4FB1E0D7
:104500003ED0B4E03CD0670F781F891F9A1FA11DD1
:10451000680F791F8A1F911DA11D6A0F711D811DD2
:10452000911DA11D20D009F468943F912AE0269F97
:1045300011243019305D3193DEF6CF010895462FF6
:104540004770405D4193B3E00FD0C9F7F6CF462FD7
:104550004F70405D4A3318F0495D31FD4052419340
:1045600002D0A9F7EACFB4E0A695979587957795FD
:104570006795BA95C9F700976105710508959B0184
:10458000AC010A2E06945795479537952795BA950D
:10459000C9F7620F731F841F951FA01D08952F92E6
:1045A0003F924F925F926F927F928F929F92AF92C3
:1045B000BF92CF92DF92EF92FF920F931F93CF9310
:1045C000DF93CDB7DEB7CA1BDB0B0FB6F894DEBFA7
:1045D0000FBECDBF09942A88398848885F846E84CD
:1045E0007D848C849B84AA84B984C884DF80EE8017
:1045F000FD800C811B81AA81B981CE0FD11D0FB620
:10460000F894DEBF0FBECDBFED01089515E0CFE9F0
:10461000D5E004C0FE010E94DB1E2196C03AD107FE
:10462000C9F7F894FFCF010100000000000101006C
:104630000000000001010000000C068000B60264CA
:10464000036D0376038003890392039C03A503AEE5
:1046500003B803C103CA03D403DD03E603F003F97F
:104660000302040C04150401000000000000000116
:104670000001000000000000000100000000000038
:104680000001000100000000000000010000000027
:104690000000000100010000000000000001000116
:1046A000000000000001005D005D005D005D005D38
:1046B000005D005D005D005D005D005E005D005D11
:1046C000005D005D005D005D005D005D005D005D02
:1046D000005E00000000008C07EC061907D9074AAD
:1046E0000728073C07000000000C11DF108F13CAD9
:1046F00005D810C510B61000000000950CEC068F10
:10470000134F10A009CA053A0F120F2E0F220FA245
:104710000FCA055B0A3913100959095B0E3E0EC614
:104720000D670D0D0A0052657374652025642064C1
:10473000656700506F7320302076696465004D6FA7
:1047400064652072656D706C6973736167650043A1
:104750006F6D70617274696D656E74005465737409
:10476000206C6F67697175650044656D6172726177
:10477000676500486F6D696E6720504F5330004980
:104780006E697469616C69736174696F6E005265FA
:10479000656420696E74726F757661626C65004540
:1047A00052524555520052656D706C697373616762
:1047B000652061637469660053797374656D652063
:1047C00070726574005665726966696572207379E6
:1047D0007374656D6500416C6C6572204C756E205C
:1047E0006D6174696E00496E69742072656D706CDC
:1047F0006973732E004F7576726972203D204849A7
:10480000474800436F75766572636C652066657214
:104810006D65004176616E6365722E2E2E005265C5
:1048200063756C65722E2E2E00506F69647320259F
:10483000640046696E2072656D706C6973732E003A
:10484000506F736974696F6E2030005265746F75B4
:1048500072207265706F730053657373696F6E2099
:104860007465726D696E656500417563756E65206E
:1048700072656600417563756E6520616374696F6A
:104880006E00417474656E7465004C756E206D69C0
:104890006469004C756E20736F6972004D617220FF
:1048A0006D6174696E004D6172206D696469004DBF
:1048B000617220736F6972004D6572206D61746959
:1048C0006E004D6572206D696469004D65722073DC
:1048D0006F6972004A6575206D6174696E004A6582
:1048E00075206D696469004A657520736F6972008F
:1048F00056656E206D6174696E0056656E206D6937
:1049000064690056656E20736F69720053616D2093
:104910006D6174696E0053616D206D696469005347
:10492000616D20736F69720044696D206D617469F7
:104930006E0044696D206D6964690044696D20737F
:044940006F69720029
:107E0000112484B714BE81FFF0D085E080938100F7
:107E100082E08093C00088E18093C10086E0809377
:107E2000C20080E18093C4008EE0C9D0259A86E02C
:107E300020E33CEF91E0309385002093840096BBD3
:107E4000B09BFECF1D9AA8958150A9F7CC24DD24C4
:107E500088248394B5E0AB2EA1E19A2EF3E0BF2EE7
:107E6000A2D0813461F49FD0082FAFD0023811F036
:107E7000013811F484E001C083E08DD089C08234E0
:107E800011F484E103C0853419F485E0A6D080C0E4
:107E9000853579F488D0E82EFF2485D0082F10E0AE
:107EA000102F00270E291F29000F111F8ED06801E7
:107EB0006FC0863521F484E090D080E0DECF843638
:107EC00009F040C070D06FD0082F6DD080E0C81688
:107ED00080E7D80618F4F601B7BEE895C0E0D1E017
:107EE00062D089930C17E1F7F0E0CF16F0E7DF06D8
:107EF00018F0F601B7BEE89568D007B600FCFDCFD4
:107F0000A601A0E0B1E02C9130E011968C91119780
:107F100090E0982F8827822B932B1296FA010C0160
:107F200087BEE89511244E5F5F4FF1E0A038BF0790
:107F300051F7F601A7BEE89507B600FCFDCF97BE46
:107F4000E89526C08437B1F42ED02DD0F82E2BD052
:107F50003CD0F601EF2C8F010F5F1F4F84911BD097
:107F6000EA94F801C1F70894C11CD11CFA94CF0C13
:107F7000D11C0EC0853739F428D08EE10CD085E9AC
:107F80000AD08FE07ACF813511F488E018D01DD067
:107F900080E101D065CF982F8091C00085FFFCCF94
:107FA0009093C60008958091C00087FFFCCF809118
:107FB000C00084FD01C0A8958091C6000895E0E648
:107FC000F0E098E1908380830895EDDF803219F02E
:107FD00088E0F5DFFFCF84E1DECF1F93182FE3DFCA
:107FE0001150E9F7F2DF1F91089580E0E8DFEE27F6
:047FF000FF270994CA
:027FFE00040479
:00000001FF
