:100000000C9446050C946E050C946E050C946E05CC
:100010000C946E050C946E050C946E050C946E0594
:100020000C946E050C946E050C946E050C946E0584
:100030000C946E050C946E050C946E050C946E0574
:100040000C9485130C946E050C94F5130C94CF133B
:100050000C946E050C946E050C946E050C946E0554
:100060000C9427140C946E0500000000003E5B4FBA
:100070005B3E3E6B4F6B3E1C3E7C3E1C183C7E3C08
:10008000181C577D571C1C5E7F5E1C00183C180016
:10009000FFE7C3E7FF0018241800FFE7DBE7FF30A6
:1000A000483A060E2629792926407F050507407F14
:1000B00005253F5A3CE73C5A7F3E1C1C08081C1C87
:1000C0003E7F14227F22145F5F005F5F06097F017D
:1000D0007F006689956A606060606094A2FFA29468
:1000E00008047E040810207E201008082A1C080836
:1000F0001C2A08081E101010100C1E0C1E0C303884
:100100003E3830060E3E0E06000000000000005F84
:1001100000000007000700147F147F14242A7F2AA0
:100120001223130864623649562050000807030062
:10013000001C2241000041221C002A1C7F1C2A08AE
:10014000083E080800807030000808080808000011
:1001500060600020100804023E5149453E00427F85
:10016000400072494949462141494D331814127FD4
:100170001027454545393C4A494931412111090774
:100180003649494936464949291E000014000000F5
:1001900040340000000814224114141414140041C7
:1001A00022140802015909063E415D594E7C121184
:1001B000127C7F494949363E414141227F414141BC
:1001C0003E7F494949417F090909013E4141517337
:1001D0007F0808087F00417F41002040413F017FA8
:1001E000081422417F404040407F021C027F7F0470
:1001F00008107F3E4141413E7F090909063E4151B9
:10020000215E7F09192946264949493203017F01A8
:10021000033F4040403F1F2040201F3F4038403FA9
:10022000631408146303047804036159494D4300BF
:100230007F4141410204081020004141417F0402F6
:10024000010204404040404000030708002054548D
:1002500078407F284444383844444428384444286B
:100260007F385454541800087E090218A4A49C78BE
:100270007F0804047800447D40002040403D007F1A
:100280001028440000417F40007C047804787C08FA
:100290000404783844444438FC18242418182424CE
:1002A00018FC7C08040408485454542404043F44B3
:1002B000243C4040207C1C2040201C3C4030403CE2
:1002C00044281028444C9090907C4464544C440042
:1002D00008364100000077000000413608000201A6
:1002E0000204023C2623263C1EA1A161123A404092
:1002F000207A38545455592155557941225454780F
:1003000042215554784020545579400C1E527212A7
:100310003955555559395454545939555454580030
:1003200000457C410002457D420001457C407D1234
:1003300011127DF0282528F07C5455450020545496
:100340007C547C0A097F4932494949323A44444441
:100350003A324A4848303A4141217A3A424020787C
:10036000009DA0A07D3D4242423D3D4040403D3C7D
:1003700024FF2424487E4943662B2FFC2F2BFF09A2
:1003800029F620C0887E0903205454794100004496
:100390007D413048484A32384040227A007A0A0A81
:1003A000727D0D19317D2629292F282629292926F4
:1003B00030484D4020380808080808080808382F39
:1003C00010C8ACBA2F102834FA00007B00000814C3
:1003D0002A142222142A14085500550055AA55AA99
:1003E00055AAFF55FF55FF000000FF00101010FF39
:1003F00000141414FF001010FF00FF1010F010F094
:10040000141414FC001414F700FF0000FF00FF1484
:1004100014F404FC141417101F10101F101F1414D0
:10042000141F00101010F0000000001F101010101A
:100430001F10101010F010000000FF10101010100E
:1004400010101010FF10000000FF140000FF00FF4C
:1004500000001F10170000FC04F4141417101714E8
:1004600014F404F40000FF00F7141414141414140A
:10047000F700F7141414171410101F101F1414147D
:10048000F4141010F010F000001F101F0000001FE7
:1004900014000000FC140000F010F01010FF10FF1A
:1004A000141414FF141010101F00000000F010FFAF
:1004B000FFFFFFFFF0F0F0F0F0FFFFFF0000000093
:1004C00000FFFF0F0F0F0F0F3844443844FC4A4A17
:1004D0004A347E02020606027E027E0263554941CC
:1004E000633844443C04407E201E2006027E020203
:1004F00099A5E7A5991C2A492A1C4C7201724C3017
:100500004A4D4D303048784830BC625A463D3E49ED
:100510004949007E0101017E2A2A2A2A2A44445F91
:10052000444440514A444040444A51400000FF0185
:1005300003E080FF000008086B6B08361236243693
:10054000060F090F060000181800000010100030F8
:1005500040FF0101001F01011E00191D1712003C80
:100560003C3C3C0000000000000103070F1F3F7FE0
:100570000080C0E0F0F8FCFEDB40A4A62EAF200017
:10058000A1C8D300408DAED580A800006000000057
:100590000000000000000000000000E0000000007B
:1005A00000000000000000000001E000000000006A
:1005B000000000000000000001F00000000000004A
:1005C0000000000000000003F00000000000000038
:1005D00000000000000007F0000000000000000024
:1005E000000000000007F80000000000000000000C
:1005F000000000000FF800000003C0007E000001B2
:10060000E0007F0FF800000003C000FE000001E0E2
:1006100000FFEFF800000003C000FE000001E00052
:10062000FFFFF800000003C000F00000000F007F93
:10063000FE7FC0000003C000F00000000F003FFE7E
:100640007FF83FF1FBCFFCFEF3BC3DEFE01FFE7FE8
:10065000FF7FFBFFDFFEFEFFBC3DEFE01FC6FFFF9D
:100660007FFBFFDFFEFEFFBC3DEFE00FE3C7FE7840
:100670007BC3DE1EF0FFBC3DEF0007FF87FC787BED
:10068000C3DE1EF0F83C3DEF0001FFFFF0007BC32E
:10069000C01EF0F03C3DEF0001F37FE03FFBC3CF15
:1006A000FEF0F03C3DEF0003E33F807FFBC3DFFE45
:1006B000F0F03C3DEF0007E73C00787BC3DE1EF026
:1006C000F03C3DEF0007FFBE00787BC3DE1EF0F07C
:1006D0003C3DEF0007FFFE00787BC3DE1EF0F03CE0
:1006E0003DEF000FFFFE007FFBFFDFFEF0F03FFD60
:1006F000EFE00FFFFF007FFBFFDFFEF0F03FFDEFBD
:10070000E00FF9FF003E79F9CF9EF0F01F3DE7E0E2
:100710001FF1FF0000000000000000000000001FAB
:1007200080FF007FFFFFFFFFFFFFFFFFFFE01C00D8
:100730007F007FFFFFFFFEB46D888D18E000001F73
:10074000007FFFFFFFFE95AD7DB577E000000F0055
:100750007FFFFFFFFEA5AD9D8D19E0000006007F25
:10076000FFFFFFFEB5ADEDB57EE00000000000012B
:100770008000000000000000000003800000000076
:10078000000000000007C0000000000000000000A2
:1007900007C00000000000000000000FC0000000C3
:1007A0000000000000001FE000000000000000004A
:1007B000001FE00000000000000000003FE000001B
:1007C000000000000000003FF000000000000000FA
:1007D00000007FF0000000000000001FF87FF00024
:1007E0000000000000003FFE7FF00000000000005D
:1007F000003FFF7FF0000000000000001FFFFBE053
:10080000000000000000000FFFF9FFC00000000022
:1008100000000FFFF9FFF800000000000007FFF1E3
:10082000FFFF00000000000003FC73FFFF800000DA
:1008300000000001FE3FFFFF80000000000000FFFD
:100840001E0FFF000000000000007FFE1FFC0000E4
:1008500000000000003FFFFFF80000000000000063
:100860000FDFFFE0000000000000001F19FFC000C4
:100870000000000000003F3CFF00000000000000FE
:10088000007E7CF800000000000000007FFE7C007D
:1008900000000000000000FFFFFC0000000000005E
:1008A0000000FFFFFE0000000000000000FFFFFE50
:1008B0000000000000000001FFEFFE00000000004B
:1008C000000001FFCFFE0000000000000003FF0752
:1008D000FE0000000000000003FC07FE0000000016
:1008E00000000003F003FE00000000000000018093
:1008F00000FE000000000000000000007E0000007C
:10090000000000000000003E0000000000000000A9
:1009100000000C000000000000078000FC00000345
:10092000C0000000078001FC000003C000000007B9
:100930008001FC000003C0000000078001E000000F
:10094000001E000000078001E00000001E007FE3A1
:10095000F79FF9FDE7787BDFC0FFF7FFBFFDFDFFE5
:10096000787BDFC0FFF7FFBFFDFDFF787BDFC0F0C6
:10097000F787BC3DE1FF787BDE00F0F787BC3DE107
:10098000F0787BDE0000F787803DE1E0787BDE00D9
:100990007FF7879FFDE1E0787BDE00FFF787BFFDF3
:1009A000E1E0787BDE00F0F787BC3DE1E0787BDEBC
:1009B00000F0F787BC3DE1E0787BDE00F0F787BC14
:1009C0003DE1E0787BDE00FFF7FFBFFDE1E07FFB6C
:1009D000DFC0FFF7FFBFFDE1E07FFBDFC07CF3F38B
:1009E0009F3DE1E03E7BCFC0000000000000000022
:1009F000000000FFFFFFFFFFFFFFFFFFFFC0FFFF43
:100A0000FFFFFD68DB111A31C0FFFFFFFFFD2B5A0E
:100A1000FB6AEFC0FFFFFFFFFD4B5B3B1A33C0FFDC
:100A2000FFFFFFFD6B5BDB6AFDC0000000002300E1
:100A3000260029002200FF210000000024002700DA
:100A40002A0000000000250028002B0004040404F4
:100A50000404040402020202020203030303030368
:100A60000102040810204080010204081020010245
:100A70000408102000000008000201000003040721
:100A800000000000000000004615C21A11241FBE1D
:100A9000CFEFD8E0DEBFCDBF11E0A0E0B1E0EEEBDC
:100AA000F8E302C005900D92AA3CB107D9F723E004
:100AB000AAECB1E001C01D92AD37B207E1F715E035
:100AC000C5E4D5E004C02197FE010E941B1BC4347D
:100AD000D107C9F70E94C9150C94521C0C94000050
:100AE0000895833081F028F4813099F08230A9F0A4
:100AF00008958730A9F08830C9F08430B1F480912E
:100B000080008F7D03C0809180008F77809380006C
:100B1000089584B58F7784BD089584B58F7DFBCF0C
:100B20008091B0008F778093B00008958091B000DD
:100B30008F7DF9CF1F93CF93DF93282F30E0F901FA
:100B4000EC58F54F8491F901E05AF54FD491F90131
:100B5000E45BF54FC491CC23A9F0162F81110E94BC
:100B60007105EC2FF0E0EE0FFF1FEE5BF54FA59146
:100B7000B4918FB7F894EC91111108C0D095DE2391
:100B8000DC938FBFDF91CF911F910895DE2BF8CFBB
:100B9000CF93DF9390E0FC01E05AF54F2491845B02
:100BA000954FFC0184918823D1F090E0880F991F24
:100BB000FC01E85CF54FA591B491FC01EE5BF54FAB
:100BC000C591D491623071F49FB7F8943C91822F13
:100BD000809583238C93E8812E2B28839FBFDF9100
:100BE000CF9108958FB7F894EC912E2B2C938FBF53
:100BF000F6CF3FB7F8948091880290918902A09136
:100C00008A02B0918B0226B5A89B05C02F3F19F030
:100C10000196A11DB11D3FBFBA2FA92F982F88277C
:100C2000BC01CD01620F711D811D911D42E0660F57
:100C3000771F881F991F4A95D1F708958F929F9229
:100C4000AF92BF92CF92DF92EF92FF924B015C0185
:100C50000E94F9056B017C010E94F9056C197D0960
:100C60008E099F09683E734081059105A8F321E034
:100C7000821A9108A108B10888EEC80E83E0D81E38
:100C8000E11CF11C81149104A104B10429F7FF9027
:100C9000EF90DF90CF90BF90AF909F908F9008958E
:100CA00008950895AF92BF92CF92DF92EF92FF9294
:100CB0000F931F93CF93DF936C017B018B01040F84
:100CC000151FEB015E01AE18BF08C017D10759F020
:100CD0006991D601ED91FC910190F081E02DC60162
:100CE0000995892B79F7C501DF91CF911F910F915C
:100CF000FF90EF90DF90CF90BF90AF900895FC01F0
:100D0000538D448D252F30E0842F90E0821B930B70
:100D1000541710F0CF96089501970895FC01918D16
:100D2000828D981761F0A28DAE0FBF2FB11D5D9619
:100D30008C91928D9F5F9F73928F90E008958FEFBB
:100D40009FEF0895FC01918D828D981731F0828D6F
:100D5000E80FF11D858D90E008958FEF9FEF0895C6
:100D6000FC01918D228D892F90E0805C9F4F821B2A
:100D700091098F739927089580E992E00E94B00647
:100D800021E0892B09F420E0822F089580E090E093
:100D9000892B29F00E94BC0681110C940000089553
:100DA000FC01A48DA80FB92FB11DA35ABF4F2C91E0
:100DB000848D90E001968F739927848FA689B789D7
:100DC0002C93A089B1898C91837080648C93938DCE
:100DD000848D981306C00288F389E02D80818F7D71
:100DE00080830895EF92FF920F931F93CF93DF9329
:100DF000EC0181E0888F9B8D8C8D98131AC0E88957
:100E0000F989808185FF15C09FB7F894EE89FF8925
:100E10006083E889F98980818370806480839FBFC3
:100E200081E090E0DF91CF911F910F91FF90EF90C3
:100E30000895F62E0B8D10E00F5F1F4F0F731127D3
:100E4000E02E8C8D8E110CC00FB607FCFACFE8890E
:100E5000F989808185FFF5CFCE010E94D006F1CFC0
:100E6000EB8DEC0FFD2FF11DE35AFF4FF0829FB782
:100E7000F8940B8FEA89FB8980818062CFCFCF9372
:100E8000DF93EC01888D8823B9F0AA89BB89E889B2
:100E9000F9898C9185FD03C0808186FD0DC00FB658
:100EA00007FCF7CF8C9185FFF2CF808185FFEDCFD6
:100EB000CE010E94D006E9CFDF91CF910895EF9245
:100EC000FF920F931F93CF93DF93EC01EC80FD8093
:100ED0006E157F050CF070C057FF04C0240F351F3E
:100EE00050E040E08E819F81FA01E20FF31F8E17E0
:100EF0009F071CF49C01241B350B121613060CF0E3
:100F00005BC0922F842F8695869586958E9DD00105
:100F10008F9DB00D11246A0F7B1FAF8DB8A1A60F56
:100F2000B71F477049F188E0841B482F682F70E095
:100F3000FB01E059FA4FE491281708F063C0621BE7
:100F400071092FEF30E002C0359527956A95E2F7D9
:100F5000E2230130110539F0B0F10230110561F5DD
:100F60008C91E82702C08C91E82BEC93941720F128
:100F70002C813D81A20FB31FE92FE41BE83078F0EC
:100F80000230110521F58E2F9C9190959C932C8118
:100F90003D81A20FB31F88508830B0F7E770EE2371
:100FA00059F0F0E0E859FA4FE49101301105F9F0F9
:100FB00010F10230110519F1DF91CF911F910F91BE
:100FC000FF90EF900895E0958C91E823CECF81E0DB
:100FD0000115110509F480E081959E2F8C932C81D9
:100FE0003D81A20FB31F98509830C0F7D7CF8C9196
:100FF000E82BEC93E1CFE0958C91E823FACF8C912C
:10100000E827F7CF0130110509F4ADCFE0F2023047
:10101000110509F4A5CFAE0DBF1DAECF0F931F93E1
:10102000CF93DF9377FF04C0260F371F70E060E097
:10103000DC011496CD91DC91FB01E20FF31FCE177A
:10104000DF071CF49E01261B370B121613064CF506
:10105000FA0157FD3796A3E0F595E795AA95E1F7D4
:10106000EC9FD001ED9FB00DFC9FB00D11246A0FD5
:101070007B1FDC015F96ED91FC91E60FF71F477037
:10108000552781E090E001C0880F4A95EAF7482F84
:101090000130110559F0A8F02E0F3F1F0230110545
:1010A000E1F0DF91CF911F910F9108952E0F3F1F17
:1010B000E217F307B1F38191DF011197842B8C9331
:1010C000F7CF80952E0F3F1FE217F30751F3919151
:1010D000DF01119798239C93F7CFE217F30709F3E9
:1010E0008191DF01119784278C93F7CF0F931F9382
:1010F000FA01DC0156964C9156974230E9F04330A4
:10110000A1F1413061F514964D915C91DA01AE1B6D
:10111000BF0BFD01E21BF30B77FD0BC0DC01169644
:101120004D915C916417750724F4AB01BF010E94D7
:101130000E081F910F91089514964D915C91DA015C
:10114000A61BB70BBD0161507109DC0116964D91CC
:101150005C91DA01AE1BBF0BFD01E21BF30B77FDC7
:10116000E8CFAF010E945F07E4CF16964D915C91E6
:10117000DA01A61BB70BBD0161507109CDCF0F93EA
:101180001F93FA01DC0156964C9156974230A9F014
:10119000433091F1413019F514964D915C91DA018B
:1011A000AE1BBF0BFD013197F7FD04C0AB01BF01C2
:1011B0000E945F071F910F91089514964D915C91C5
:1011C000DA01A61BB70BBD01DC0116964D915C91AF
:1011D000DA01AE1BBF0BFD013197621B730BF7FDEC
:1011E000E9CFDC0116964D915C91E417F50714F7F1
:1011F000AF010E940E08DECF16964D915C91DA0188
:10120000A61BB70BBD01621B730BCECFFC0177FD94
:1012100064C080859185681779070CF05EC057FD22
:101220005CC082859385481759070CF056C08689A3
:101230008230B1F0833029F1813041F4848195818D
:10124000841B950BAB01BC01615071092130310544
:1012500009F108F443C02230310509F463C0089550
:1012600084819581DC01A61BB70BBD01615071091A
:1012700086819781DC01A41BB50BAD01415051095A
:10128000E5CF86819781861B970BBA01AC0141504F
:101290005109DCCFCA0157FD0796A3E095958795C4
:1012A000AA95E1F7A481B5818A9F90018B9F300DAB
:1012B0009A9F300D1124620F731F078CF0A1E02D4F
:1012C000E60FF71F4770552721E030E001C0220FDD
:1012D0004A95EAF78081822B80830895CA0157FDE1
:1012E000079633E0959587953A95E1F7A481B58106
:1012F0008A9F90018B9F300D9A9F300D1124620FB1
:10130000731F078CF0A1E02DE60FF71F47705527DC
:1013100081E090E001C0880F4A95EAF780959081BE
:101320008923DACFCA0157FD079623E09595879563
:101330002A95E1F7A481B5818A9F90018B9F300D9A
:101340009A9F300D1124620F731F078CF0A1E02DBE
:10135000E60FF71F4770552721E030E001C0220F4C
:101360004A95EAF780818227B7CF08958EBD0000A5
:101370000DB407FEFDCF8EB508958CBD9DBD0895BB
:101380000895FC016370668B848195812681378185
:10139000613039F0633029F0918780873387228765
:1013A0000895318720879387828708952F923F92EF
:1013B0004F925F926F927F928F929F92AF92BF9265
:1013C000CF92DF92EF92FF920F931F93CF93DF9311
:1013D000CDB7DEB76A970FB6F894DEBF0FBECDBFAC
:1013E0009A8F898F7A8369834A01D22E18870F8357
:1013F0003701BC2CDC0159962D913C915A9721154F
:10140000310509F015C118968D919C9119976817AF
:1014100079070CF0D7C11A968D919C9148175907FE
:101420000CF0D0C14C2C512CB6E0CB9E600D711D40
:1014300011247C876B87161617060CF0C3C1EA2DA2
:10144000F0E0FA87E98793E0EE0FFF1F9A95E1F746
:10145000F88BEF87CF01840F951F181619060CF033
:10146000B1C1A98DBA8D58968C91811104C0BFEA83
:10147000BD1508F4D394A98DBA8DED91FC91119707
:101480000284F385E02DCD010995B5E0DB9EC00116
:101490001124E981FA81FC83EB83312C212C9C01FE
:1014A00028593F4F388F2F8B4A2D50E05E8B4D8B44
:1014B000EF89F88DE20DF31D44919E828D82D12C2F
:1014C000C12C69817A81620D731D7A8B698B842F9F
:1014D00090E09C8B8B8BE98DFA8DA081B18140FFD0
:1014E00082C0F1E0BF126FC0AF126DC01C96ED91CB
:1014F000FC912F813885A4014C0D5D1D69897A8985
:10150000898D9A8D0995EB89FC89F595E7954E2F84
:101510005FEFC51AD50A6D817E818D899E89680F1E
:10152000791F7E836D8398E0C916D10481F6AFEFF1
:101530002A1A3A0AEB81FC81E40DF51DFC83EB834A
:10154000F5E02F16310409F0B3CF2F813885261529
:101550003705B9F0A98DBA8DED91FC91B1E0BB12C0
:1015600057C0AB1255C069817A816B5F7F4F00888D
:10157000F189E02D830128E030E0A401898D9A8D66
:101580000995A98DBA8DED91FC9111970688F7897F
:10159000E02DCD016A960FB6F894DEBF0FBECDBF29
:1015A000DF91CF911F910F91FF90EF90DF90CF903F
:1015B000BF90AF909F908F907F906F905F904F9073
:1015C0003F902F9009941E96ED91FC91EF80F88446
:1015D00009851A8592014D815E816B817C81898D9F
:1015E0009A8D099590CF2F8138852615370509F4F6
:1015F0008ACF31E0B31207C0A31205C01C96ED914B
:10160000FC91930178CF1E96ED91FC917301E0CF90
:101610006B857C85641975090684F785E02D730157
:101620000F8518899201A401898D9A8D0995A9CFFA
:10163000F90134969491329745915491D91AB7E0B3
:10164000DB9E400D511D1124F901259134913C8BF5
:101650002B8BFA0125903490FA01329674903196D2
:101660003491398B329664903196449041E04C1518
:1016700018F04A1508F07FC0662D062C000C770B79
:101680007C836B83842D042C000C990B9E838D83AB
:10169000A98DBA8DED91FC9111970284F385E02D0F
:1016A000CD010995512CD12CC12CEA2DF0E0FA87FF
:1016B000E9872B2D30E03C872B87A401440D511D79
:1016C00047FC5A95588F4F8B69817A81660D711D41
:1016D00067FC7A957E876D877989C71608F051CFA8
:1016E0002C2D30E04D815E81420F531FA985BA85B4
:1016F0004A9FC0014B9F900D5A9F900D1124FC01F1
:10170000E80DF91DF88BEF87852D612C4F89588DD9
:10171000420F531F5E8B4D8B671408F050C044245A
:101720004394480E877041F4C1010196EB89FC890E
:10173000E20DF31DD4901C01D7FE19C0A98DBA8DFE
:10174000ED91FC91662D70E0B1E0BB1219C0AB12B7
:1017500017C02D853E85620F731F0484F585E02D2B
:101760002F8138854D895E89898D9A8D0995DD0C8B
:101770006394842DD1CF1E821D821C821B8288CF50
:101780004B815C81640F751FAB85BC856A9FC0016E
:101790006B9F900D7A9F900D112469817A81680F5B
:1017A000791F0684F785E02DEF80F88409851A8576
:1017B0009D014F855889898D9A8D0995D8CF570CF1
:1017C000C3948ACF6A960FB6F894DEBF0FBECDBF22
:1017D000DF91CF911F910F91FF90EF90DF90CF900D
:1017E000BF90AF909F908F907F906F905F904F9041
:1017F0003F902F9008958F929F92AF92CF92EF9249
:10180000FF920F931F93CF93DF93EC01262F898DC7
:101810009A8D009709F051C06A30D1F41D861C865C
:101820008D8948E0849F900111248E859F85820FC9
:10183000931F9F878E8781E090E0DF91CF911F916A
:101840000F91FF90EF90CF90AF909F908F90089561
:101850006D3089F3CC88AD888F898823C1F08C8561
:101860009D8536E0C39E800D911D112448855985C4
:101870004817590764F44E855F851D861C8638E03D
:10188000A39EC0011124840F951F9F878E87EA882D
:10189000FB88088919894E855F856C857D85CE0119
:1018A0000E94D6092C898C859D8546E0249F800D59
:1018B000911D11249D878C87BECF6A3069F41D86E7
:1018C0001C86FC013896E4912D898E859F85E29FC8
:1018D000800D911D1124ADCF6D3009F4ACCFFC010A
:1018E00034963491631708F4A6CF3296E491E61744
:1018F00008F4A1CFFC01329685909490462F431BAB
:10190000342F47E0349F800C911C1124F40132964F
:1019100034913196E4913323A9F1EE2399F1CC88E7
:10192000F4013596E491AD884F89442301F10E2EE0
:10193000000CFF0BE30FF11DCE9EA001CF9E500DBA
:1019400011246C857D85460F571F6885798564173E
:1019500075076CF44E855F851D861C86FC013896E4
:10196000E491AE9E400D511D11245F874E87EA8899
:10197000FB88088919894E855F856C857D85CE0138
:101980000E94D609F4013496E4912C898C859D85BA
:10199000E29F800D911D11248DCF6F927F928F92C7
:1019A0009F92AF92BF92CF92DF92EF92FF920F93EE
:1019B0001F93CF93DF93EC016B015A01390148016A
:1019C000E881F9810284F385E02D0995E881F981A8
:1019D0000288F389E02D87019301A501B601CE01AC
:1019E0000995A501480D591D41505109E881F9811A
:1019F0000288F389E02D9301B601CE010995E881B3
:101A0000F9810088F189E02D9401A501B601CE018C
:101A10000995C60CD71CB60161507109E881F9819E
:101A20000088F189E02D9401A501CE010995E88196
:101A3000F9810688F789E02DCE01DF91CF911F91C2
:101A40000F91FF90EF90DF90CF90BF90AF909F905D
:101A50008F907F906F9009946F927F928F929F9258
:101A6000AF92BF92CF92DF92EF92FF920F931F93AC
:101A7000CF93DF935C01EB016A01490138018701D3
:101A8000DC01ED91FC916217730719F56416750678
:101A90002CF0962D872D3A01C92ED82E96012619A5
:101AA00037092F5F3F4F048CF58DE02DA301BE0158
:101AB000C5010995DF91CF911F910F91FF90EF9094
:101AC000DF90CF90BF90AF909F908F907F906F905E
:101AD00008954615570591F42617370724F0892DE8
:101AE0004B01C22FD82F9E01281939092F5F3F4F74
:101AF000068CF78DE02DA601B401DACF0284F385C0
:101B0000E02D0995D501ED91FC910488F589E02D32
:101B100083019401A601BE01C5010995D501ED918E
:101B2000FC910688F789E02DC501DF91CF911F91C7
:101B30000F91FF90EF90DF90CF90BF90AF909F906C
:101B40008F907F906F900994EF92FF920F931F9365
:101B5000DC011A960D911C911B9718962D913C91C2
:101B60001997ED91FC9100A0F1A1E02D7B0150E0CF
:101B700040E070E060E009951F910F91FF90EF90B9
:101B800008954F925F926F927F928F929F92AF9241
:101B9000BF92CF92DF92EF92FF920F931F93CF935A
:101BA000DF936C012B015A0139014801DC01ED91F1
:101BB000FC910284F385E02D0995E201640C751C0B
:101BC000D601ED91FC91C615D7055CF40088F1892A
:101BD000E02D87019401A501BE01C601099521965A
:101BE000EFCF0688F789E02DC601DF91CF911F91D5
:101BF0000F91FF90EF90DF90CF90BF90AF909F90AC
:101C00008F907F906F905F904F9009948F929F92EA
:101C1000AF92BF92CF92DF92EF92FF920F931F93FA
:101C2000CF93DF93EC015B014A016901E881F981FF
:101C30000284F385E02D099595012C0D3D1D215061
:101C40003109E881F9810488F589E02D7801840162
:101C5000A401B501CE010995E881F9810688F789CB
:101C6000E02DCE01DF91CF911F910F91FF90EF906A
:101C7000DF90CF90BF90AF909F908F9009948F92FC
:101C80009F92AF92BF92CF92DF92EF92FF920F930B
:101C90001F93CF93DF93EC015B014A016901780147
:101CA000E881F9810284F385E02D0995C80CD91CDF
:101CB000860101501109E881F9810488F589E02D38
:101CC0009501A401B501CE010995E881F981068845
:101CD000F789E02DCE01DF91CF911F910F91FF90F9
:101CE000EF90DF90CF90BF90AF909F908F9009942E
:101CF000EF92FF920F931F93DC01ED91FC9100A0F6
:101D0000F1A1E02D09951F910F91FF90EF9008959B
:101D10000F931F93DC01ED91FC91068CF78DE02D64
:101D200009951F910F9108950F931F93DC01ED9179
:101D3000FC91048CF58DE02D09951F910F9108956C
:101D4000DC01ED91FC910084F185E02D09943F9236
:101D50004F925F926F927F928F929F92AF92BF92BB
:101D6000CF92DF92EF92FF920F931F93CF93DF9367
:101D70005C017B014A016901390187E0680E711C31
:101D800093E0759467949A95E1F72B01400E511EEC
:101D900010E000E0312CD0E0C0E0CE018770992740
:101DA000330C892B59F4FE0183E0F595E7958A956C
:101DB000E1F7E00FF11FE80DF91D349037FE0AC07E
:101DC00021E030E0A701B5016C0F7D1F89E393E0AE
:101DD0000E94A00E2196CC16DD06F9F68FEFE81AC8
:101DE000F80A060D171DE414F504A9F6DF91CF914A
:101DF0001F910F91FF90EF90DF90CF90BF90AF9029
:101E00009F908F907F906F905F904F903F9008953C
:101E10002F923F924F925F926F927F928F929F92FA
:101E2000AF92BF92CF92DF92EF92FF920F931F93E8
:101E3000CF93DF9300D000D000D0CDB7DEB73C0108
:101E40006A013E832D83FC82EB825801A41AB50AF5
:101E5000B7FE03C0B194A194B1088D809E80861A0C
:101E6000970A97FE03C09194819491088A149B0469
:101E70005CF0902F812F0D811E819D838E839C2D80
:101E80008D2D6B01692F782F0C151D055CF09D8140
:101E90008E817E836D83692F782F902F812F86010D
:101EA000C92ED82E1601201A310A2B012D813E8110
:101EB000421A530A57FE03C05194419451087101CC
:101EC00037FE03C03FEFE31AF30AF594E7948D81E0
:101ED0009E81861797075CF5A1E0B0E0BA83A983DD
:101EE000C016D1064CF1D301ED91FC910484F58527
:101EF000E02D2B813C81A8016D817E818A149B0499
:101F00001CF04D815E81B801C3010995E418F50804
:101F1000F7FE0AC02D813E8189819A81280F391FE1
:101F20003E832D83E20CF31C0F5F1F4FD9CF2FEFA1
:101F30003FEF3A832983D4CF26960FB6F894DEBFBD
:101F40000FBECDBFDF91CF911F910F91FF90EF900A
:101F5000DF90CF90BF90AF909F908F907F906F90C9
:101F60005F904F903F902F900895089520913002F8
:101F7000260F3327331F21323105ECF42091540210
:101F8000FC0190E080E0243069F082E00895A091A7
:101F900030022191AC01405F5D4FA40FB52FB11D00
:101FA0002C930196861798F380913002680F609306
:101FB000300280E0089581E008951092540281E09B
:101FC000809356021092550261E082E10E949A05C8
:101FD00061E083E10E949A05E9EBF0E080818E7F69
:101FE000808380818D7F808388E48093B80085E43E
:101FF0008093BC000895CF93DF9391E090930F02FC
:102000008823B9F0C091B800D091BA008091BC008B
:102010008A7B8093BC0060E082E10E949A0560E0C8
:1020200083E10E949A050E94DD0FD093BA00C0930D
:10203000B800DF91CF910895E091800280917F02F6
:10204000E81730F4F0E0E651FE4F808190E008950B
:102050008FEF9FEF08959091800280917F022FEF84
:102060003FEF981748F4E92FF0E0E651FE4F20814A
:1020700030E09F5F90938002C901089580917F02B4
:1020800090918002891B990B0895CF92DF92EF9275
:10209000FF920F931F93CF93DF937C01CB018A01B3
:1020A00020918F02222389F0EB016B01C40ED51E13
:1020B000CC15DD0569F06991D701ED91FC91019096
:1020C000F081E02DC7010995F3CF642F0E94B60F70
:1020D000C801DF91CF911F910F91FF90EF90DF909A
:1020E000CF900895CF93DF931F92CDB7DEB769836A
:1020F00020918F022223F9F020918C02203258F097
:1021000021E030E0FC013383228390E080E00F90F7
:10211000DF91CF91089580918D02E82FF0E0E65392
:10212000FE4F998190838F5F80938D0280938C0204
:1021300081E090E0ECCF61E0CE0101960E94B60F05
:10214000F7CFCF92DF92EF92FF920F931F93CF932F
:10215000DF93D0918C0281E0D13208F09CC0C09115
:102160008E020E94F9056B017C018091540281115D
:102170006CC082E08093540281E0809356028FEF1E
:102180008093530210927802D0937702AAECB1E0C8
:10219000E7E5F2E080E0D8138DC0109279028091DB
:1021A0007902CC0FC82BC0937902809155028130FF
:1021B00009F084C0109255020E94F9056B017C0160
:1021C000809179028093BB0080910B0290910C0268
:1021D000A0910D02B0910E02892B8A2B8B2BA1F0BE
:1021E0000E94F90500910B0210910C0220910D0242
:1021F00030910E026C197D098E099F090617170789
:102200002807390708F442C08091BC0083FDD8CF6D
:1022100085EC8093BC000E94F9056B017C018091E4
:102220005402823009F44CC0809153028F3F09F46C
:1022300069C080915302803209F466C080915302D4
:10224000803309F463C084E026C080910B02909132
:102250000C02A0910D02B0910E02892B8A2B8B2BC0
:1022600009F483CF0E94F90500910B0210910C0232
:1022700020910D0230910E026C197D098E099F0983
:10228000061717072807390708F06FCF80910A0251
:102290000E94FB0F85E010928D0210928C0210922A
:1022A0008F02DF91CF911F910F91FF90EF90DF9000
:1022B000CF9008959D9191938F5F6DCF85EEA9CFBB
:1022C00080910B0290910C02A0910D02B0910E0230
:1022D000892B8A2B8B2B09F4A2CF0E94F905009140
:1022E0000B0210910C0220910D0230910E026C191C
:1022F0007D098E099F09061717072807390708F077
:102300008ECFC4CF80E0C7CF82E0C5CF83E0C3CFFC
:10231000EF92FF920F931F93CF93DF937C01C62F11
:102320008091560390915703009709F459C020916A
:102330005A0331E030938F0220938E0210928D0267
:1023400010928C02DC01ED91FC910190F081E02D66
:1023500060E009958701EE24E394F12CD1E0C150AF
:102360008091560390915703CF3F91F1B0E2EB1665
:10237000F104D8F00E94A110809156039091570368
:1023800020915A03D0938F0220938E0210928D02D7
:1023900010928C02DC01ED91FC910190F081E02D16
:1023A00060E00995EE24E394F12C8091560390911E
:1023B0005703F8016491DC01ED91FC910190F081EB
:1023C000E02D0995BFEFEB1AFB0A0F5F1F4FC7CF38
:1023D000DF91CF911F910F91FF90EF900C94A1107E
:1023E000E0916603F0916703908180916C03809582
:1023F000892380838701C15008F438C0F801849193
:102400002091540330915503232B29F00E94B609E3
:102410000F5F1F4FF0CF28E030E040E8E09162030B
:10242000F091630390916A03582F5423D9F050819F
:10243000952B9083E0916403F09165039081509116
:102440006B03952B9083E0916403F09165035081B9
:1024500090916B0390959523908346952150310977
:10246000E9F6D6CF508190959523E3CFDF91CF91B8
:102470001F910F91FF90EF9008951F93CF93DF93DB
:10248000EC018D8D9E8D009721F1162F29A131E051
:1024900030938F0220938E0210928D0210928C0244
:1024A000DC01ED91FC910190F081E02D60E0099557
:1024B0008D8D9E8DDC01ED91FC910190F081E02DE0
:1024C000612F09958D8D9E8DDF91CF911F910C9479
:1024D000A110ADA5BEA59C918BA9809589238C9355
:1024E0008B8D9C8D892B31F0862FDF91CF911F91A1
:1024F0000C94B60928E030E080E8A9A5BAA599A90E
:10250000462F4823C1F04C91942B9C93ABA5BCA5BE
:102510009C914AA9942B9C93ABA5BCA54C919AA9DC
:10252000909594239C9386952150310931F7DF9142
:10253000CF911F9108954C9190959423E6CF1F93CE
:10254000CF93DF93EC01162F8D8D9E8D892BB1F1EA
:102550002DA93EA94FA958AD60E074E284EF90E048
:102560000E94E51A205131094109510956954795B4
:10257000379527952093B80066EA111167EACE01D6
:102580000E943D128D8D9E8D892B41F129AD3AAD72
:102590004BAD5CAD60E074E284EF90E00E94E51A20
:1025A000205131094109510956954795379527958D
:1025B0002093B800DF91CF911F9108958B8D9C8D52
:1025C000892B21F08EAD9FAD0E94BD09EFA5F8A922
:1025D00090818CA9809589238083CECFEFA5F8A91F
:1025E00080819CA9892B8083E5CF90E080E00895CD
:1025F00060E088E00E949A0560E089E00E949A0508
:1026000060E08AE00E949A0560E08BE00C949A05F5
:1026100020913F0330914003C901079697FD07962B
:1026200023E0959587952A95E1F720913D03309118
:102630003E03829FA001839F500D929F500D112455
:1026400070E060E080915803909159030C944B1C0A
:102650000E94461CFB0101900020E9F73197AF0171
:10266000461B570BDC01ED91FC910280F381E02DBC
:1026700009940F931F93CF93DF93EC010E942A13C9
:102680008C0166E771E0CE010E942A13800F911F32
:10269000DF91CF911F910F91089585ED8093BC003C
:1026A00080910B0290910C02A0910D02B0910E024C
:1026B0000796A11DB11D23E0B695A795979587951F
:1026C0002A95D1F72091BC0024FD03C0109254023A
:1026D000089540910B0250910C0260910D0270918F
:1026E0000E02452B462B472B69F30097A105B10538
:1026F00041F02AE22A95F1F700C00197A109B1093A
:10270000E1CF80910A020C94FB0F1F920F920FB63B
:102710000F9211242F933F938F939F93AF93BF9367
:102720008091840290918502A0918602B0918702E7
:102730003091830223E0230F2D3758F50196A11D18
:10274000B11D209383028093840290938502A0930D
:102750008602B09387028091880290918902A091AD
:102760008A02B0918B020196A11DB11D809388024F
:1027700090938902A0938A02B0938B02BF91AF918C
:102780009F918F913F912F910F900FBE0F901F90AF
:10279000189526E8230F0296A11DB11DD2CF1F92D6
:1027A0000F920FB60F9211242F933F934F935F9385
:1027B0006F937F938F939F93AF93BF93EF93FF9309
:1027C00080E992E00E94D006FF91EF91BF91AF9116
:1027D0009F918F917F916F915F914F913F912F9139
:1027E0000F900FBE0F901F9018951F920F920FB66B
:1027F0000F9211242F938F939F93EF93FF93E09168
:10280000A002F091A1028081E091A602F091A702BE
:1028100082FD1BC090818091A9028F5F8F732091F0
:10282000AA02821741F0E091A902F0E0E057FD4FC3
:10283000958F8093A902FF91EF919F918F912F9196
:102840000F900FBE0F901F9018958081F4CF1F92AC
:102850000F920FB60F9211242F933F934F935F93D4
:102860006F937F938F939F93AF93BF93EF93FF9358
:102870008091B900887F803609F44AC0F0F588322B
:1028800009F4A7C018F5803109F49BC0B8F4882377
:1028900009F4F9C0883009F494C0FF91EF91BF9119
:1028A000AF919F918F917F916F915F914F913F91E8
:1028B0002F910F900FBE0F901F901895883109F43B
:1028C00088C0803251F78093530214C0803409F4D9
:1028D0009DC040F48033B9F38833F9F680935302F6
:1028E00085ECB0C0803509F485C0883509F496C000
:1028F000883499F60E944D13D0CF883909F48CC0E2
:1029000038F5883729F050F4883611F0803729F6E9
:1029100083E0809354021092520257C0883809F421
:102920007BC0803919F0803809F0B7CF809152020E
:10293000803208F071C0E091520281E08E0F8093E6
:1029400052028091BB00F0E0EE5CFD4F80833DC001
:10295000803B39F0E0F4803A09F479C0883A09F014
:102960009CCF84E080935402109231021092300286
:10297000E0917D02F0917E020995809130028111F3
:102980000FC081E0809330021092100209C0803C99
:1029900009F4A6CF883C09F4A3CF883B09F07DCF8A
:1029A000E091310281E08E0F80933102F0E0E05F30
:1029B000FD4F80818093BB00909131028091300265
:1029C00029C0809179028093BB0085EC8093BC0084
:1029D00064CF9091780280917702981758F5E09132
:1029E000780281E08E0F80937802F0E0E95AFD4F83
:1029F0008081E9CFE091780281E08E0F80937802A8
:102A00008091BB00F0E0E95AFD4F808390917802FD
:102A1000809177029817C8F285E8D8CFE0917802C4
:102A200081E08E0F809378028091BB00F0E0E95A3C
:102A3000FD4F80838091560281115CCF81E08093AD
:102A4000550284EA8093BC001092540226CF85EC94
:102A50008093BC001092540280915202803230F474
:102A6000E0915202F0E0EE5CFD4F10826091520264
:102A700070E0E0917B02F0917C0282E392E00995A4
:102A8000109252020ACF1092530234CFE0E9F2E0E2
:102A90001382128248EE53E060E070E04483558375
:102AA000668377838AE291E09183808385EC90E06E
:102AB0009587848784EC90E09787868780EC90E008
:102AC000918B808B81EC90E0938B828B82EC90E0F9
:102AD000958B848B86EC90E0978B868B118E128E73
:102AE000138E148EADE2B3E013961C921E921297D1
:102AF00014964D935D936D937C9317978CE391E0BF
:102B000011969C938E93E9E3F3E01382128220E8FE
:102B100030E03583248380E490E097838683318797
:102B2000208793878287168A1586148617861686CD
:102B300081E0858B848B2FEF3FEF338B228B318BA2
:102B4000208B878B108E128E118E8EE491E09183F4
:102B50008083148E138EB68FA58F10A2178E8FEFE1
:102B600084A385A386A387A380A780E89AE1A6E033
:102B7000B0E085AB96ABA7ABB0AF80EA96E8A1E03A
:102B8000B0E081AF92AFA3AFB4AF80E586AF17AE30
:102B90000895789484B5826084BD84B5816084BDD5
:102BA00085B5826085BD85B5816085BD80916E00EB
:102BB000816080936E00109281008091810082601C
:102BC0008093810080918100816080938100809159
:102BD00080008160809380008091B1008460809348
:102BE000B1008091B00081608093B00080917A0044
:102BF000846080937A0080917A00826080937A006A
:102C000080917A00816080937A0080917A00806858
:102C100080937A001092C10062E082E00E94C805B1
:102C200061E088E00E94C80561E089E00E94C80573
:102C300061E08AE00E94C80561E08BE00E94C8055F
:102C4000E091A002F091A10282E08083E0919C02D9
:102C5000F0919D021082E0919E02F0919F028FEC14
:102C600080831092A802E091A402F091A50286E070
:102C70008083E091A202F091A30280818061808331
:102C8000E091A202F091A302808188608083E091AC
:102C9000A202F091A302808180688083E091A20269
:102CA000F091A30280818F7D808380915803909161
:102CB0005903892B41F520913F0330914003C9010D
:102CC000079697FD0796B3E095958795BA95E1F736
:102CD00020913D0330913E03AC01429FC001439FD0
:102CE000900D529F900D11240E94211B9093590327
:102CF00080935803892B39F469E771E080E992E009
:102D00000E943913FFCF0E94081320913F03309196
:102D1000400380913D0390913E03B901213231057A
:102D20000CF451C26054710977FF02C06F5F7F4F8E
:102D3000759567958255910997FD019600E410E01D
:102D400022E530E04AE657E0959587950E94A70E68
:102D500082E080935B038091560390915703892B07
:102D600009F444C28CE380935A03109280021092BB
:102D70007F0210928D0210928C020E94DD0F80E57E
:102D800096E090937E0280937D0281E596E0909399
:102D90007C0280937B028091610387FD1EC061E00D
:102DA0000E94C80561E0809161030E949A0561E07C
:102DB00070E080E090E00E941E0660E08091610378
:102DC0000E949A056AE070E080E090E00E941E0692
:102DD00061E0809161030E949A0580915603909171
:102DE0005703892B09F4C1C220916E0330916F0300
:102DF000409170035091710360E074E284EF90E0C1
:102E00000E94E51A2051310941095109569547950B
:102E1000379527952093B80064E086E895E00E94F6
:102E2000881160913F03615089E393E00E943D1255
:102E300064E082E895E00E94881180915B0360E184
:102E4000813009F064E189E393E00E943D1264E07F
:102E50008EE795E00E9488118FE880937603809139
:102E60003D0390913E038038910509F095C2809111
:102E70003F03909140038034910509F09DC28091F9
:102E80005B03813009F0ABC28FE980937603C2E126
:102E90006AED89E393E00E943D126C2F89E393E091
:102EA0000E943D1261E889E393E00E943D12609127
:102EB000760389E393E00E943D1269ED89E393E094
:102EC0000E943D1280915B0362E2813009F061EF64
:102ED00089E393E00E943D1266E088E795E00E9456
:102EE00088118091560390915703892B09F479C278
:102EF00020917203309173034091740350917503D4
:102F000060E074E284EF90E00E94E51A20513109FC
:102F10004109510956954795379527952093B80053
:102F20000E94081381E090E090934C0380934B0340
:102F300090934A03809349030E94F812812CB4E2D3
:102F40009B2EB4EFAB2EB12CC0E02C2EC0E03C2E5B
:102F5000D4E14D2E512C12E3C12ED12C7724739441
:102F6000E6E7FAE08491E2E6FAE0C491EEE4FAE002
:102F7000D491DD2309F43FC281110E947105ED2F28
:102F8000F0E0EE0FFF1FE65DF54FA591B4918C9137
:102F9000C82391E080E009F490E0C92FD82F0E9467
:102FA000081370924D0370924E03109246031092D4
:102FB0004503109248031092470365E871E089E3E6
:102FC00093E00E943913219709F018C28091810281
:102FD00090918202019664E070E00E94D11A909371
:102FE00082028093810273E0880F991F7A95E1F73E
:102FF000EC01CA5FDE4F688188E00E949A056A8111
:1030000089E00E949A056C818AE00E949A056E818F
:103010008BE00E949A0582E080934D0380934E03DB
:103020001092460310924503509248034092470382
:1030300063E971E089E393E00E94391370924D03D4
:1030400070924E031092460310924503D0924803AB
:10305000C092470367E971E089E393E00E94391366
:1030600063E971E080E992E00E94391365E070E065
:1030700080E090E00E941E068091560390915703D5
:10308000892B09F4E9C120916E0330916F034091BF
:10309000700350917103C501B4010E94E51A2051DB
:1030A0003109410951095695479537952795209340
:1030B000B80064E084E39AE00E94881180913D03A7
:1030C00090913E038034910509F0DDC160E289E30F
:1030D00093E00E943D1260913D03615E89E393E0BD
:1030E0000E943D1220913F0330914003C901079691
:1030F00097FD079633E0959587953A95E1F72091EE
:103100003D0330913E03829F8001839F100D929F6B
:10311000100D1124C0915803D0915903809156038A
:10312000909157030C0F1D1F009709F4E0C12091E7
:103130005A0370928F0220938E0210928D02109289
:103140008C02DC01ED91FC910190F081E02D60E4B6
:103150000995EE24E394F12C809156039091570346
:103160000C171D0709F498C1B0E2EB16F104D8F072
:103170000E94A110809156039091570320915A0309
:1031800070928F0220938E0210928D0210928C0208
:10319000DC01ED91FC910190F081E02D60E4099556
:1031A000EE24E394F12C809156039091570369919A
:1031B000DC01ED91FC910190F081E02D0995BFEFCC
:1031C000EB1AFB0AC9CF6052710977FF02C06F5F2B
:1031D0007F4F759567958357910997FD019600E29A
:1031E00010E023E730E04AE855E0AECD61E08091A1
:1031F0005F030E94C80561E0809160030E94C805DA
:1032000080915F03082E000C990BFC01E45BF54FE5
:10321000E491F0E0EE0FFF1FEE5BF54F2591349146
:103220003093670320936603FC01E05AF54FE49165
:10323000E0936C0380916003082E000C990BFC0155
:10324000E45BF54FE491F0E0EE0FFF1FEE5BF54F0E
:10325000A591B491B0936903A0936803FC01E05A6F
:10326000F54FE491E0936D038C91E82BEC93809102
:10327000540390915503892B09F434C0CFB7F894C7
:1032800080917A02811127C0E6E5FAE08491EAE6AE
:10329000FAE09491E82FF0E0EE0FFF1FE85CF54FA5
:1032A000A591B491EC91E92321F461E08AE00E94B8
:1032B0009A0561E08AE00E94C8058CB580618CBDEA
:1032C0008CB580648CBD61E08DE00E94C80561E032
:1032D0008BE00E94C80580917A028F5F80937A020A
:1032E000CFBF59CD61E080915D030E94C80561E0C8
:1032F00080915E030E94C80580915D03082E000C3A
:10330000990BFC01E45BF54FE491F0E0EE0FFF1F39
:10331000EE5BF54F25913491309363032093620364
:10332000FC01E05AF54FE491E0936A0380915E035B
:10333000082E000C990BFC01E45BF54FE491F0E0E2
:10334000EE0FFF1FEE5BF54FA591B491B0936503AF
:10335000A0936403FC01E05AF54FE491E0936B0302
:103360008C91E095E823EC9316CD809154039091D5
:103370005503892B31F080917703909178030E9457
:10338000BD09E0916803F0916903908180916D031C
:1033900080958923808340CD8036910589F4809182
:1033A0003F0390914003409739F480915B03813053
:1033B00029F480E180937603C2E06ACD8FEAFACFE8
:1033C00080349105C9F780913F0390914003809725
:1033D00099F780915B03813011F480E156CD8FEC39
:1033E00054CDE0916803F0916903808190916D0361
:1033F000892B808395CDD0E0C0E0D1CD0E94F8121A
:1034000082E080934D0380934E0310924603109206
:103410004503509248034092470364EA71E089E310
:1034200093E00E94391370924D0370924E031092F4
:10343000460310924503D0924803C092470369EABD
:1034400071E089E393E00E94391367EB71E080E952
:1034500092E00E94391310CE80915403909155034D
:10346000892B31F080917703909178030E94BD09F8
:10347000E0916803F0916903908180916D038095DC
:103480008923808316CE60E089E393E00E943D1299
:1034900060913D03615022CE0E94A110809156039D
:1034A00090915703892B09F463C0209172033091E6
:1034B00073034091740350917503C501B4010E94D8
:1034C000E51A20513109410951095695479537951B
:1034D00027952093B8002114310409F441CD0E94AE
:1034E000BC06882309F43ACD0E94000037CDE09154
:1034F0006603F0916703808190916C03892B808330
:103500000C171D0759F289912091540330915503EE
:10351000232B19F00E94B609F3CF28E030E090E8A1
:10352000E0916203F091630340916A03592F58239D
:10353000D9F05081452B4083E0916403F0916503FD
:10354000408150916B03452B4083E0916403F091DF
:103550006503508140916B034095452340839695C8
:1035600021503109E9F6CCCF508140954523E3CF76
:10357000E0916803F0916903808190916D03892B3C
:103580008083A9CF8EE491E090933A03809339032E
:103590008091580390915903009711F00C94BD1B32
:1035A000089597FB072E16F4009407D077FD09D0F5
:1035B0000E94071B07FC05D03EF4909581959F4F14
:1035C0000895709561957F4F0895A1E21A2EAA1B68
:1035D000BB1BFD010DC0AA1FBB1FEE1FFF1FA217C3
:1035E000B307E407F50720F0A21BB30BE40BF50BC0
:1035F000661F771F881F991F1A9469F76095709549
:10360000809590959B01AC01BD01CF010895AA1B47
:10361000BB1B51E107C0AA1FBB1FA617B70710F0BD
:10362000A61BB70B881F991F5A95A9F780959095EF
:10363000BC01CD010895EE0FFF1F0590F491E02D20
:1036400009940F931F93CF93DF938230910510F469
:1036500082E090E0E0917B03F0917C0330E020E099
:10366000B0E0A0E0309799F42115310509F44AC083
:10367000281B390B24303105D8F58A819B816115CF
:10368000710589F1FB0193838283FE0111C04081A2
:1036900051810281138148175907E0F048175907F3
:1036A00099F4109761F012960C93129713961C934D
:1036B0003296CF01DF91CF911F910F910895009322
:1036C0007B0310937C03F4CF2115310551F0421791
:1036D000530738F0A901DB019A01BD01DF01F801B0
:1036E000C1CFEF01F9CF90937C0380937B03CDCFC3
:1036F000FE01E20FF31F8193919322503109398328
:103700002883D7CF2091790330917A03232B41F47A
:10371000209102013091030130937A0320937903C1
:1037200020910001309101012115310541F42DB79F
:103730003EB74091040150910501241B350BE091E7
:103740007903F0917A03E217F307A0F42E1B3F0BE5
:103750002817390778F0AC014E5F5F4F2417350703
:1037600048F04E0F5F1F50937A0340937903819383
:1037700091939FCFF0E0E0E09CCFCF93DF93009751
:10378000E9F0FC01329713821282A0917B03B09181
:103790007C03ED0130E020E01097A1F4208131811D
:1037A000820F931F2091790330917A0328173907EC
:1037B00009F061C0F0937A03E0937903DF91CF9130
:1037C0000895EA01CE17DF07E8F54A815B819E0183
:1037D00041155105B1F7E901FB83EA8349915991FC
:1037E000C40FD51FEC17FD0761F48081918102960B
:1037F000840F951FE90199838883828193819B833C
:103800008A83F0E0E0E012968D919C9113970097E7
:10381000B9F52D913C911197CD010296820F931F1E
:103820002091790330917A032817390739F63097B8
:1038300051F510927C0310927B03B0937A03A0930E
:103840007903BCCFD383C28340815181840F951FFC
:10385000C817D90761F44E5F5F4F88819981480F7F
:10386000591F518340838A819B81938382832115D1
:10387000310509F0B0CFF0937C03E0937B039ECF3A
:10388000FD01DC01C0CF13821282D7CF81E090E02E
:10389000F8940C94521CDC0101C06D9341505040CF
:1038A000E0F7089515E0C5E4D5E004C0FE010E94EC
:0E38B0001B1B2196C634D107C9F7F894FFCF31
:1038BE0000007D03800001000000000000000000F9
:1038CE0001000000000000000000010000000000E8
:1038DE0000000000010000000000F20652067F0604
:1038EE003F07B0068E06A2060000000072104510BB
:1038FE00F51270053E102B101C1000000000FB0B83
:10390E005206F512B50F06097005A00E780E940E2C
:10391E00880E080F7005C1099F127608BF08C10DE9
:10392E00A40D2C0DCD0C0D0A00457272657572201A
:10393E004F4C454400484F4D494E47205359535420
:10394E00454D0052554E0052656368657263686559
:10395E002050300053544F5000506F736974696F8C
:10396E006E2030204F4B0053544F50202D20506F5F
:0A397E00736974696F6E2030000059
:00000001FF
