:020000040000FA
:100000000C945D000C9485000C9485000C94850084
:100010000C9485000C9485000C9485000C9485004C
:100020000C9485000C9485000C9485000C9485003C
:100030000C9485000C9485000C9485000C9485002C
:100040000C94EC020C9485000C945C030C94360325
:100050000C9485000C9485000C9485000C9485000C
:100060000C9485000C94850000000008000201003B
:100070000003040700000000000000000000000072
:10008000250028002B0000000000240027002A0083
:10009000040404040404040402020202020203032E
:1000A0000303030301020408102040800102040836
:1000B0001020010204081020C30411241FBECFEF3A
:1000C000D8E0DEBFCDBF11E0A0E0B1E0E4E8FAE0A7
:1000D00002C005900D92A63EB107D9F722E0A6EE28
:1000E000B1E001C01D92AE38B207E1F710E0CDE5F6
:1000F000D0E004C02197FE010E943A05CC35D1071B
:10010000C9F70E948E030C9440050C94000090E007
:10011000FC01EC55FF4F249180579F4FFC018491C7
:10012000882399F090E0880F991FFC01EA57FF4F50
:10013000A591B491FC01E458FF4F859194918FB73C
:10014000F894EC91E22BEC938FBF089590E0FC01C2
:10015000E859FF4F2491FC01EC55FF4F3491FC010D
:10016000E057FF4FE491EE23C9F0222339F023300A
:1001700001F1A8F4213019F1223029F1F0E0EE0F5D
:10018000FF1FE458FF4FA591B4918FB7F894EC91FD
:10019000611126C030953E233C938FBF08952730D0
:1001A000A9F02830C9F0243049F7809180008F7D74
:1001B00003C0809180008F7780938000DFCF84B56B
:1001C0008F7784BDDBCF84B58F7DFBCF8091B0006E
:1001D0008F778093B000D2CF8091B0008F7DF9CF20
:1001E0003E2BDACF3FB7F8948091ED019091EE016C
:1001F000A091EF01B091F00126B5A89B05C02F3F5B
:1002000019F00196A11DB11D3FBFBA2FA92F982F3C
:100210008827BC01CD01620F711D811D911D42E037
:10022000660F771F881F991F4A95D1F708958F92FF
:100230009F92AF92BF92CF92DF92EF92FF924B01CB
:100240005C010E94F2006B017C010E94F2006C19BB
:100250007D098E099F09683E734081059105A8F3C9
:1002600021E0821A9108A108B10888EEC80E83E047
:10027000D81EE11CF11C81149104A104B10429F7DA
:10028000FF90EF90DF90CF90BF90AF909F908F90B6
:100290000895AF92BF92CF92DF92EF92FF920F93A9
:1002A0001F93CF93DF936C017B018B01040F151F0C
:1002B000EB015E01AE18BF08C017D10759F0699174
:1002C000D601ED91FC910190F081E02DC6010995D8
:1002D000892B79F7C501DF91CF911F910F91FF9085
:1002E000EF90DF90CF90BF90AF900895FC01538DB9
:1002F000448D252F30E0842F90E0821B930B541700
:1003000010F0CF96089501970895FC01918D828D8C
:10031000981761F0A28DAE0FBF2FB11D5D968C9125
:10032000928D9F5F9F73928F90E008958FEF9FEF64
:100330000895FC01918D828D981731F0828DE80F20
:10034000F11D858D90E008958FEF9FEF0895FC01DA
:10035000918D228D892F90E0805C9F4F821B9109A7
:100360008F739927089581EF91E00E94A70121E002
:10037000892B09F420E0822F089580E090E0892BFA
:1003800029F00E94B30181110C9400000895FC0132
:10039000A48DA80FB92FB11DA35ABF4F2C91848DE6
:1003A00090E001968F739927848FA689B7892C9343
:1003B000A089B1898C91837080648C93938D848D96
:1003C000981306C00288F389E02D80818F7D808399
:1003D0000895EF92FF920F931F93CF93DF93EC0159
:1003E00081E0888F9B8D8C8D98131AC0E889F989DC
:1003F000808185FF15C09FB7F894EE89FF896083DF
:10040000E889F98980818370806480839FBF81E05F
:1004100090E0DF91CF911F910F91FF90EF900895A1
:10042000F62E0B8D10E00F5F1F4F0F731127E02E7C
:100430008C8D8E110CC00FB607FCFACFE889F989B4
:10044000808185FFF5CFCE010E94C701F1CFEB8DF2
:10045000EC0FFD2FF11DE35AFF4FF0829FB7F89488
:100460000B8FEA89FB8980818062CFCFCF93DF93A6
:10047000EC01888D8823B9F0AA89BB89E889F989BC
:100480008C9185FD03C0808186FD0DC00FB607FCF1
:10049000F7CF8C9185FFF2CF808185FFEDCFCE0124
:1004A0000E94C701E9CFDF91CF910895FC0101902F
:1004B0000020E9F73197AF01481B590BBC0181EFD0
:1004C00091E00C944901CF93DF930E945602EC0116
:1004D0008EE791E00E9456028C0F9D1FDF91CF9115
:1004E00008958F929F92AF92BF92CF92DF92EF9238
:1004F000FF920F931F93CF93DF93CDB7DEB7A197F2
:100500000FB6F894DEBF0FBECDBF6B017C01F7FEC6
:1005100041C06DE281EF91E00E94E9018C01222748
:100520003327A9012C193D094E095F0919A2CE01F3
:1005300081967C019AE0892E912CA12CB12CCA01C4
:10054000B901A50194010E940405605DF701629361
:100550007F01211531054105510589F790E080E0C3
:10056000309719F0CF010E945602800F911FA1967B
:100570000FB6F894DEBF0FBECDBFDF91CF911F91B4
:100580000F91FF90EF90DF90CF90BF90AF909F9032
:100590008F900895AC019B0119A28E010F5D1F4F32
:1005A0008AE0C82ED12CE12CF12CCA01B901A70197
:1005B00096010E940405605DF80162938F01211588
:1005C00031054105510589F790E080E0309779F2D7
:1005D000CF010E945602CBCF1F920F920FB60F92FF
:1005E00011242F933F938F939F93AF93BF93809149
:1005F000E9019091EA01A091EB01B091EC013091F9
:10060000E80123E0230F2D3758F50196A11DB11DF8
:100610002093E8018093E9019093EA01A093EB0114
:10062000B093EC018091ED019091EE01A091EF016A
:10063000B091F0010196A11DB11D8093ED01909341
:10064000EE01A093EF01B093F001BF91AF919F91A4
:100650008F913F912F910F900FBE0F901F90189583
:1006600026E8230F0296A11DB11DD2CF1F920F9233
:100670000FB60F9211242F933F934F935F936F9375
:100680007F938F939F93AF93BF93EF93FF9381EFEC
:1006900091E00E94C701FF91EF91BF91AF919F91AF
:1006A0008F917F916F915F914F913F912F910F901B
:1006B0000FBE0F901F9018951F920F920FB60F92BA
:1006C00011242F938F939F93EF93FF93E091010257
:1006D000F09102028081E0910702F091080282FD10
:1006E0001BC0908180910A028F5F8F7320910B0253
:1006F000821741F0E0910A02F0E0EF50FE4F958F33
:1007000080930A02FF91EF919F918F912F910F900B
:100710000FBE0F901F9018958081F4CF789484B508
:10072000826084BD84B5816084BD85B5826085BDED
:1007300085B5816085BD80916E00816080936E007B
:10074000109281008091810082608093810080916D
:10075000810081608093810080918000816080931E
:1007600080008091B10084608093B1008091B000DE
:1007700081608093B00080917A00846080937A00D9
:1007800080917A00826080937A0080917A00816003
:1007900080937A0080917A00806880937A0010922A
:1007A000C100E0910102F091020282E08083E091B9
:1007B000FD01F091FE011082E091FF01F091000235
:1007C0008FEC808310920902E0910502F0910602FD
:1007D00086E08083E0910302F091040280818061D1
:1007E0008083E0910302F09104028081886080831D
:1007F000E0910302F0910402808180688083E0919F
:100800000302F091040280818F7D808388E00E9442
:10081000870089E00E9487008AE00E9487008BE0C1
:100820000E94870081E891E00E94630232E5432E36
:1008300031E0532E812C912C5401712C612C10E04D
:1008400000E048E0242E312C8DEA91E00E9456020F
:10085000C501B4010E94710285EB91E00E9456022D
:100860000F5F1F4FC80166E170E00E94F004BC01F9
:10087000990F880B990B0E9471028BEC91E00E94FA
:100880005602F201E190F1902F01B7010F2C000CFC
:10089000880B990B0E9471028EEB91E00E9463021B
:1008A000D12CC12CCE14DF0474F58091E601909117
:1008B000E7010196B1010E94F0049093E701809353
:1008C000E60123E0880F991F2A95E1F7EC01CE5E3F
:1008D000DE4F688188E00E94A6006A8189E00E945C
:1008E000A6006C818AE00E94A6006E818BE00E94C7
:1008F000A60063E070E080E090E00E941701FFEF47
:10090000CF1ADF0ACFCF6E0C7F1C60E088E00E9418
:10091000A60060E089E00E94A60060E08AE00E94F4
:10092000A60060E08BE00E94A60068EC70E080E02A
:1009300090E00E9417018FEF881A980AA80AB80A57
:100940000631110509F080CF83EC91E00E94560238
:10095000B301770C880B990B0E9471028FEC91E028
:100960000E946302C0E0D0E068E873E180E090E0BC
:100970000E9417012097C1F30E94B3018823A1F3BD
:100980000E940000F1CFE1EFF1E01382128288EEC5
:1009900093E0A0E0B0E084839583A683B78384E0EE
:1009A00091E09183808385EC90E09587848784EC47
:1009B00090E09787868780EC90E0918B808B81EC2C
:1009C00090E0938B828B82EC90E0958B848B86EC0D
:1009D00090E0978B868B118E128E138E148E089555
:1009E00097FB072E16F4009407D077FD09D00E94DC
:1009F000260507FC05D03EF4909581959F4F0895FC
:100A0000709561957F4F0895A1E21A2EAA1BBB1B1A
:100A1000FD010DC0AA1FBB1FEE1FFF1FA217B307CA
:100A2000E407F50720F0A21BB30BE40BF50B661FE0
:100A3000771F881F991F1A9469F7609570958095A4
:100A400090959B01AC01BD01CF010895AA1BBB1B72
:100A500051E107C0AA1FBB1FA617B70710F0A61BBE
:100A6000B70B881F991F5A95A9F780959095BC01DF
:100A7000CD010895EE0FFF1F0590F491E02D09942C
:100A8000F894FFCF00000000E90149017601360229
:100A9000A70185019901010000000000000001008C
:100AA0000100000000000000010000000000000044
:100AB0000100010000000000000001000000000033
:100AC0000000010001000000000000000100010022
:100AD0000000000001005D005D005D005D005D0044
:100AE0005D005D005D005D005D005E005D005D001D
:100AF0005D005D005D005D005D005D005D005D000E
:100B00005E000D0A00544553542031203A204D4FC9
:100B10005445555220746F757220636F6D706C650B
:100B2000742028323220706F736974696F6E732974
:100B3000003E3E20706F732000202D3E20706F73AA
:100B4000200020706173003E3E20546F74616C2061
:100B50003A2000207061732028646F697420C3AA52
:0A0B60007472652032303438290029
:107E0000112484B714BE81FFF0D085E080938100F7
:107E100082E08093C00088E18093C10086E0809377
:107E2000C20080E18093C4008EE0C9D0259A86E02C
:107E300020E33CEF91E0309385002093840096BBD3
:107E4000B09BFECF1D9AA8958150A9F7CC24DD24C4
:107E500088248394B5E0AB2EA1E19A2EF3E0BF2EE7
:107E6000A2D0813461F49FD0082FAFD0023811F036
:107E7000013811F484E001C083E08DD089C08234E0
:107E800011F484E103C0853419F485E0A6D080C0E4
:107E9000853579F488D0E82EFF2485D0082F10E0AE
:107EA000102F00270E291F29000F111F8ED06801E7
:107EB0006FC0863521F484E090D080E0DECF843638
:107EC00009F040C070D06FD0082F6DD080E0C81688
:107ED00080E7D80618F4F601B7BEE895C0E0D1E017
:107EE00062D089930C17E1F7F0E0CF16F0E7DF06D8
:107EF00018F0F601B7BEE89568D007B600FCFDCFD4
:107F0000A601A0E0B1E02C9130E011968C91119780
:107F100090E0982F8827822B932B1296FA010C0160
:107F200087BEE89511244E5F5F4FF1E0A038BF0790
:107F300051F7F601A7BEE89507B600FCFDCF97BE46
:107F4000E89526C08437B1F42ED02DD0F82E2BD052
:107F50003CD0F601EF2C8F010F5F1F4F84911BD097
:107F6000EA94F801C1F70894C11CD11CFA94CF0C13
:107F7000D11C0EC0853739F428D08EE10CD085E9AC
:107F80000AD08FE07ACF813511F488E018D01DD067
:107F900080E101D065CF982F8091C00085FFFCCF94
:107FA0009093C60008958091C00087FFFCCF809118
:107FB000C00084FD01C0A8958091C6000895E0E648
:107FC000F0E098E1908380830895EDDF803219F02E
:107FD00088E0F5DFFFCF84E1DECF1F93182FE3DFCA
:107FE0001150E9F7F2DF1F91089580E0E8DFEE27F6
:047FF000FF270994CA
:027FFE00040479
:00000001FF
